:020000040800F2
:1000000000000220410C0008D90A0008DD0A00089F
:10001000E10A0008E50A0008E90A000800000000FB
:10002000000000000000000000000000ED0A0008D1
:10003000F10A000800000000F50A0008F90A0008AB
:10004000FD0A0008010B0008050B0008090B000859
:100050000D0B0008110B0008150B0008190B000808
:100060001D0B0008210B0008250B0008290B0008B8
:100070002D0B0008310B0008350B0008390B000868
:100080003D0B0008410B0008450B0008490B000818
:100090004D0B0008510B0008550B0008590B0008C8
:1000A0005D0B0008610B0008650B0008690B000878
:1000B0006D0B0008710B0008750B0008790B000828
:1000C0007D0B0008810B0008850B0008890B0008D8
:1000D0008D0B0008910B0008950B0008990B000888
:1000E0009D0B0008A10B0008A50B0008A90B000838
:1000F000AD0B0008B10B0008B50B0008B90B0008E8
:10010000BD0B0008C10B0008C50B0008C90B000897
:10011000CD0B0008D10B0008D50B0008D90B000847
:10012000DD0B0008E10B0008E50B0008E90B0008F7
:10013000ED0B0008F10B0008F50B0008F90B0008A7
:10014000FD0B0008010C0008050C0008090C000854
:100150000D0C0008110C0008150C0008190C000803
:100160001D0C0008210C0008250C0008290C0008B3
:100170002D0C0008310C0008350C000800000000B0
:08018000390C00083D0C0008D9
:1001880000F1340191E838009C46A6464CF8045D1D
:1001980090E8FF0FE54600BD90EC210B704700BFCB
:1001A80080EC210B704700BF90EC200B704700BF1C
:1001B80080EC200B704700BFD0EC200B704700BFCD
:1001C800C0EC200B704700BFF0EC0201F0EC02110C
:1001D800F0EC0221F0EC0231F0EC0241F0EC0251BB
:1001E800F0EC0261F0EC0271F0EC0281F0EC0291AB
:1001F800F0EC02A1F0EC02B1F0EC02C1F0EC02D19B
:10020800F0EC02E1F0EC02F1704700BFE0EC020113
:10021800E0EC0211E0EC0221E0EC0231E0EC0241FA
:10022800E0EC0251E0EC0261E0EC0271E0EC0281EA
:10023800E0EC0291E0EC02A1E0EC02B1E0EC02C1DA
:10024800E0EC02D1E0EC02E1E0EC02F1704700BF23
:10025800B0FC0181B0FC0191B0FC01A1B0FC01B17E
:10026800704700BFA0FC0181A0FC0191A0FC01A186
:10027800A0FC01B1704700BFEC4600B52DE9005065
:100288002DE9FF1F4FF000032DE90C0001A901F033
:10029800CDFFDDF840E012B0704700BFEC4600B576
:1002A8002DE900502DE9FF1F4FF000032DE90C0048
:1002B80001A901F0F7FFDDF840E012B0704700BF78
:1002C800EC4600B52DE900502DE9FF1F4FF0000363
:1002D8002DE90C0001A902F005F8DDF840E012B0A4
:1002E800704700BFEC4600B52DE900502DE9FF1F0F
:1002F8004FF000032DE90C0001AB01F0CBFFDDF856
:1003080040E012B0704700BFEC4600B52DE9005040
:100318002DE9FF1F4FF000032DE90C0001AA02F0A0
:1003280037F8DDF840E012B0704700BF10F8012B35
:1003380011F8013B012A28BF9A42F7D0D01A70471A
:10034800034613F8012B002AFBD1181A013870470D
:100358000348044B834202D0034B03B1184770474C
:100368005C0000205C000020000000000548064BEF
:100378001B1AD90F01EBA301491002D0034B03B19B
:10038800184770475C0000205C0000200000000057
:1003980010B5064C237843B9FFF7DAFF044B13B1C5
:1003A8000448AFF300800123237010BD5C000020D7
:1003B800000000004C30000808B5054B1BB105498A
:1003C8000548AFF30080BDE80840FFF7CFBF00BF86
:1003D80000000000600000204C300008F0B500F17B
:1003E800080783B0076031B3044608460E46FFF796
:1003F800A7FF0F28054601900CD8012807D13378AC
:1004080023720023204665607B5503B0F0BD0028A9
:10041800F7D008E0002201A9204601F0E3FB019B88
:1004280020600746A3602A463846314602F092FD0E
:10043800019D2768E5E7014801F065FB7430000875
:1004480000B5474B0FCB97B002AC84E80F002046AD
:1004580000F002FDDDED047ADFED426A9DED037ADE
:100468004148F8EE677AB8EE477A67EEA67A27EE43
:10047800267ABCEEE76AFCEEC76A16EE103A99B225
:1004880016EE903A06EE901A9AB2B8EE666A06EE42
:10049800902AF8EE666A77EEC67A37EE667AF3EE59
:1004A800006A27EE267A67EEA67ABCEEC77AFCEEDB
:1004B800E77ACDE90A04002317EE100A1D4660F317
:1004C8000F0517EE900A60F30F0361F31F4362F301
:1004D8001F450AA80D93254B0C930E9500F020F9A3
:1004E8000AA906A800F04AF806A800F0D9FE00F00C
:1004F800D1FE01AA05461E4910A8FFF76FFF10A9F3
:10050800284600F049F810A801F08EFB01A80194D4
:1005180000F046FE01A800F0A5FE00F0BBFE6A460A
:100528000546144910A8FFF759FF10A92846124D8F
:1005380000F032F810A801F077FB0FCD0DF1400C58
:10054800ACE80F002B68ACF8003010A90AA81222FA
:1005580000F046FA4FF47A71204600F093FBF4E776
:1005680064300008B4A2113520310008004400406E
:10057800A8300008B4300008C030000802464FF028
:10058800000C02F801CBC0F801C0C2F804C0C2F8E0
:1005980007C0C160704700BF70B50E680378357832
:1005A800AB4204460FD0E068072100F04BFA002860
:1005B800F9D0E068036829461B68984716F8015F78
:1005C8002378AB42EFD1204670BD00BF2A4B10B54F
:1005D8009A420446C4E90012084633D018D9274B7A
:1005E8009A4234D007D9264B9A4202D1082100F00A
:1005F80055FB204610BDA3F500639A422CD003F5A5
:1006080080639A42F5D1062100F048FB204610BDD0
:10061800A3F500639A4224D007D91A4B9A42E8D12D
:10062800032100F03BFB204610BDA3F500639A426E
:100638001CD003F580639A42DBD1012100F02EFB28
:10064800204610BD042100F029FB204610BD0721DB
:1006580000F024FB204610BD052100F01FFB2046BA
:1006680010BD022100F01AFB204610BD002100F049
:1006780015FB204610BD00BF00100240001C0240C0
:1006880000200240000C0240436882B09868019044
:10069800019849008A4002430192019A9A6002B087
:1006A800704700BF0729436882B00AD8186A0090CB
:1006B800009889008A4002430092009A1A6202B0A8
:1006C8007047586A01900839019889008A400243A6
:1006D8000192019A5A6202B0704700BF436882B023
:1006E80018680190019849004FF0030C0CFA01FCBE
:1006F80020EA0C0001900198186018680090009892
:100708008A4002430092009A1A6002B0704700BF04
:1007180083685960704700BF83681879704700BFC5
:1007280010B5A94A8368934286B0044600F0F78062
:1007380000F28E80A2F50062934200F01B8102F560
:100748008062934256D14068532100F0A7FA9F4A2D
:10075800616802A8FFF73AFF0222002102A8FFF70A
:10076800BDFF0322002102A8FFF78EFF08220DEB30
:1007780002000021FFF796FF944A616804A8FFF77A
:1007880025FF0222012104A8FFF7A8FF0322012167
:1007980004A8FFF779FF0822012104A8FFF782FFC8
:1007A800228A618AA36802F00F0242EA01129A6063
:1007B800DA680492049A22F480520492049ADA6065
:1007C800DA680292029A42F004020292029ADA600D
:1007D800DA680192019A42F008020192019ADA60FD
:1007E800DA680092009A42F400520092009ADA60A5
:1007F80006B010BDA2F500629342D9D140685121DC
:1008080000F04CFA714A616802A8FFF7DFFE022285
:10081800114602A8FFF762FF0322022102A8FFF790
:1008280033FF0722022102A8FFF73CFF674A6168ED
:1008380004A8FFF7CBFE0222032104A8FFF74EFF0E
:100848000322114604A8FFF71FFF07220321A4E78C
:100858005F4A934239D002F580629342A8D140683A
:10086800652100F01BFA5B4A616802A8FFF7AEFE3B
:100878000222062102A8FFF731FF0322062102A85F
:10088800FFF702FF08220DEB02000621FFF70AFF1F
:10089800504A616804A8FFF799FE0222072104A8BC
:1008A800FFF71CFF0322072104A8FFF7EDFE08222B
:1008B800072104A8FFF7F6FEA289E189A36802F0E0
:1008C8000F0242EA01129A6072E74068642100F060
:1008D800E5F93E4A616802A8FFF778FE022209217D
:1008E80002A8FFF7FBFE0322092102A8FFF7CCFEAE
:1008F8000722092102A8FFF7D5FE344A616804A837
:10090800FFF764FE02220A2104A8FFF7E7FE03228C
:100918000A2104A8FFF7B8FE07220A21C9E74068A0
:10092800542100F0BBF92B4A616802A8FFF74EFE7C
:1009380002220C2102A8FFF7D1FE03220C2102A8F3
:10094800FFF7A2FE08220DEB02000C21FFF7AAFE1A
:10095800214A616804A8FFF739FE0222114604A85B
:10096800FFF7BCFE0322022104A8FFF78DFE082230
:10097800022112E74068522100F090F9174A616895
:1009880002A8FFF723FE02220A2102A8FFF7A6FE0B
:1009980003220A2102A8FFF777FE07220A2102A8EC
:1009A800FFF780FE0D4A616804A8FFF70FFE0222D8
:1009B8000B2104A8FFF792FE03220B2104A8FFF7DE
:1009C80063FE07220B21E8E60050004000000240C9
:1009D8000010014000080240000C024000040240E0
:1009E8006AB32DE9F843DFF8588006460C461746E7
:1009F800551E01F1FF39B26813681906FCD5336832
:100A080019F8011F1B68434512D151606B1E6DB167
:100A18007F1B2344791E2144D819141D13681B0613
:100A2800FCD511F8013F23608142F7D1BDE8F88376
:100A38003046013D98476A1CDDD1BDE8F883704710
:100A4800190700088268012312688B40134214BFFB
:100A580001200020704700BF1F2884B00ED84FF037
:100A6800E0220123D2F800110191019983400B4340
:100A78000193019BC2F8003104B07047A0F1200334
:100A88001F2B10D84FF0E02200F01F00D2F80431DD
:100A980002930299012383400B430293029BC2F8FD
:100AA800043104B07047A0F140031F2BE4D84FF085
:100AB800E02200F01F00D2F80831039303990123C4
:100AC80083400B430393039BC2F8083104B070477B
:100AD800FEE700BFFEE700BFFEE700BFFEE700BF7E
:100AE800FEE700BFFEE700BFFEE700BFFEE700BF6E
:100AF800FEE700BFFEE700BFFEE700BFFEE700BF5E
:100B0800FEE700BFFEE700BFFEE700BFFEE700BF4D
:100B1800FEE700BFFEE700BFFEE700BFFEE700BF3D
:100B2800FEE700BFFEE700BFFEE700BFFEE700BF2D
:100B3800FEE700BFFEE700BFFEE700BFFEE700BF1D
:100B4800FEE700BFFEE700BFFEE700BFFEE700BF0D
:100B5800FEE700BFFEE700BFFEE700BFFEE700BFFD
:100B6800FEE700BFFEE700BFFEE700BFFEE700BFED
:100B7800FEE700BFFEE700BFFEE700BFFEE700BFDD
:100B8800FEE700BFFEE700BFFEE700BFFEE700BFCD
:100B9800FEE700BFFEE700BFFEE700BFFEE700BFBD
:100BA800FEE700BFFEE700BFFEE700BFFEE700BFAD
:100BB800FEE700BFFEE700BFFEE700BFFEE700BF9D
:100BC800FEE700BFFEE700BFFEE700BFFEE700BF8D
:100BD800FEE700BFFEE700BFFEE700BFFEE700BF7D
:100BE800FEE700BFFEE700BFFEE700BFFEE700BF6D
:100BF800FEE700BFFEE700BFFEE700BFFEE700BF5D
:100C0800FEE700BFFEE700BFFEE700BFFEE700BF4C
:100C1800FEE700BFFEE700BFFEE700BFFEE700BF3C
:100C2800FEE700BFFEE700BFFEE700BFFEE700BF2C
:100C3800FEE700BFFEE700BF0D480E4A904208B528
:100C480007D2013A121A22F003020B49043202F0C9
:100C580081F90A480A4A904207D2013A121A22F048
:100C680003020432002102F017F9FFF7E9FBFEE75F
:100C7800000000205C000020E83300085C00002031
:100C88007C0200204A1C18BF01314FF0E022136992
:100C9800DB03FCD50139FAD1704700BF1F29204A70
:100CA80084B00CD8D2F830080090009801238B400B
:100CB80003430093009BC2F8303804B070473F29C3
:100CC8000ED8D2F83438019320390198C9B20123DB
:100CD8008B4003430193019BC2F8343804B070473A
:100CE8005F290ED8D2F84038029340390298C9B229
:100CF80001238B4003430293029BC2F8403804B09F
:100D08007047D2F84438039360390398C9B2012375
:100D18008B4003430393039BC2F8443804B07047E5
:100D28000030024010B4164885B0D0F80448039447
:100D3800039CBDF818C0240C1B04240443EA811347
:100D4800039443EA0C631343039AC0F80428D0F8C9
:100D580004280292029A43F4800313430293029BED
:100D6800C0F80438D0F800380193019B43F0807331
:100D78000193019BC0F8003805B05DF8044B70473B
:100D88000030024070B58CB016460A0E03910092EE
:100D98001D46C1F30722C1F30743C9B29DF840407D
:100DA800FFF7C0FF2B49D1F800088301FBD4D1F825
:100DB80008380A930A9B23F0F0030A930A9BC1F8A8
:100DC8000838D1F808380B930B9B43EA06130B93AA
:100DD8000B9BC1F80838D1F808380893089B23F40E
:100DE800E0530893089BC1F80838D1F808380993EC
:100DF800099A42EA85220992099BC1F80838D1F874
:100E080008380693069B23F460430693069BC1F8B3
:100E18000838D1F808380793079B43EA4433079307
:100E2800079BC1F80838D1F808380493049B23F0CD
:100E380003030493049BC1F80838D1F808380593D4
:100E4800059B43F002030593059BC1F808380CB0D5
:100E580070BD00BF0030024010B58AB004460521BD
:100E680003A800F073F803A800F080F80528FAD169
:100E78004FF0E0232C4A4FF47001C3F8881DD2F8D4
:100E880000380893089B43F480330893089BC2F802
:100E98000038D2F800389B03FBD5D2F80038099304
:100EA800099B224923F001030993099BC2F80038E2
:100EB80023688B4234D01ED81D4A934227D002F5AE
:100EC800F41202F59062934206D104231949009363
:100ED80000222046FFF756FFE3681749A1FB0313DA
:100EE8004FF0E0229B09013B0020052153619061EE
:100EF80011610AB010BD114A9342EDD11049042383
:100F08000093002205232046FFF73CFFE4E7002377
:100F180000930C49042308222046FFF733FFDBE740
:100F280009490423ECE700BF0030024000E1F50561
:100F3800006CDC0232040004D34D6210007A030A0C
:100F4800A80400076004000464040004064B82B08F
:100F5800D3F8002C0192019A11430191019AC3F828
:100F6800002C02B0704700BF00300240024BD3F89B
:100F7800000C00F007007047003002404FF0A0421C
:100F880084B0D3680293029B43F040030293029B10
:100F9800D3601369002BFCDA13690393039B43F0B6
:100FA80001030393039B13614FF0A0410B69DB0717
:100FB800FCD48B6B0193019B43F480330193019B19
:100FC8008B6304B0704700BF4FF0A04284B0D36871
:100FD8000393039B23F000530393039BD360D368CD
:100FE8000293029B23F080430293029BD360D36851
:100FF8000193019B43F080430193019BD3605369A4
:10100800DB07FCD404B070474FF0A04300226FF018
:1010180080418AB0C3F81028C3F81428C3F81C28E4
:101028009A6159619A690992099A42F010020992E3
:10103800099A9A619A690892089A42F40062089299
:10104800089A9A619A690792079A42F4805207921D
:10105800079A9A619A690692069A42F40052069291
:10106800069A9A619A690592059A42F48022059235
:10107800059A9A619A690492049A42F400220492A9
:10108800049A9A619A690392039A42F4801203922D
:10109800039A9A619A690292029A42F400120292A1
:1010A800029A9A619A690192019A42F00042019269
:1010B800019A9A610AB0704710B44FF0A043002219
:1010C800C3F8042187B0C3F80821C3F80C21C3F87A
:1010D8001021C3F81421C3F81821C3F81C21C3F840
:1010E8002021C3F82421C3F82821C3F82C21C3F8F0
:1010F8003021C3F83421C3F83821C3F83C21D3F890
:1011080004180391039941F0020103910399C3F86C
:101118000418996B0291029941F400110291029905
:101128009963996B0191019921F400210191019929
:101138009963996B0091009921F48021009100999D
:1011480099630324C3F80028C3F800481A69002AE1
:10115800FCDA4FF480621A611A690592059941F028
:1011680020010591059919614FF0A042136999066C
:10117800FCD44FF0A0421369002BFCDA13690493E6
:10118800049B43F010030493049B13614FF0A041A8
:101198000B69DB06FCD407B05DF8044BFFF734BFDE
:1011A80030B5044689B000682721FFF777FD21682C
:1011B8002A4A02A8FFF70AFA02220B2102A8FFF71F
:1011C8008DFA03220B2102A8FFF75EFA0A220B21EF
:1011D80002A8FFF767FA02220C2102A8FFF77EFA9D
:1011E80003220C2102A8FFF74FFA0A220C2102A8B9
:1011F800FFF758FA4320FFF72FFC2046FFF7BEFE03
:10120800FFF7E2FEFFF758FF4FF0A04204ACD2F818
:1012180004380193019B43F002030193019BC2F838
:10122800043800F037F80E4A0294864607CA234667
:1012380003C34FF0000C1A70092502A970460395E4
:101248008DF819C0FFF7A8F90298A04203D00499B5
:10125800013100F09FF809B030BD00BF0000024026
:10126800283100084FF0A04382B09A680192019A91
:1012780042F001020192019A9A60D3F80428009280
:10128800009A22F002020092009AC3F8042802B0E1
:10129800704700BF014B1868704700BF78000020F6
:1012A800014B1860704700BF780000207FB500240C
:1012B8001023CDE90234036815469E6912686B460F
:1012C800CDE90044B0479DF8043003F00603062B2F
:1012D80003BF009B2B600120204604B070BD00981E
:1012E80090420CBF062001207047000010B5034B48
:1012F8000360044600F067FB204610BD6831000813
:1013080010B50446FFF7F2FF2046082100F042F826
:10131800204610BD2DE9F0411F46DDE90834DDF80F
:10132800188098450646154607D1079900F04EFBE8
:1013380018B165710020BDE8F0813946304600F0EB
:1013480045FB0028F6D00123C4F800802571A3715D
:10135800F0E738B515461C4600F038FB20B10823E5
:10136800E36006232560237138BD2DE9F041054669
:101378000C4616461F4600F029FB48B9032F07D82C
:1013880023683246294620465B69BDE8F041184784
:10139800BDE8F08100F0B6BC30B500231A4610F85D
:1013A800015B05F07F04944023432C0602F10702F9
:1013B800F5D40B6030BD30B500231A4610F8014B48
:1013C80004F07F0595402B43250602F10702F5D46A
:1013D8001F2A06D8640642BF4FF0FF3404FA02F20F
:1013E80013430B6030BD50282DE9F341064688466B
:1013F80015461F4608D1D01C20F0030050F8044BB6
:101408003C6002B0BDE8F08100F00F030C2B2ED831
:10141800DFE803F025071D25292D2D2D2D18212561
:10142800290001A92846FFF7B7FF019C002CE7D047
:1014380006F07003102B08BFA8464444330648BF83
:101448002468DDE701A92846FFF7B5FFEDE7284640
:1014580030F8024BEAE7284630F9024BE6E728461F
:1014680050F8044BE2E7284650F8084BDEE701F055
:101478003FFC08B50346FF2B08460DD003F0700368
:10148800302B0FD004D8202B08D005D901F030FC20
:10149800402B0BD0502BF9D1002008BDBDE80840E7
:1014A80001F023BCBDE8084001F01CBCBDE80840C1
:1014B80001F008BC70B50C460146204615461E468C
:1014C800FFF7D7FF334601462A462046BDE870405D
:1014D800FFF789BF73B50C461546064608B101F0FB
:1014E800F1FB2246286012F8011BFF291CD02B1D96
:1014F8003046FFF7DFFF0246104610F8013BFF2B8E
:1015080014D010232B7501A9FFF746FF019B034454
:10151800EB6010F8013B6B7501A9FFF73DFF019BDC
:1015280003442B6102B070BD6860E5E72B750023AA
:10153800EEE71FB503AB009300230A46194600F0F7
:10154800DDFE039805B05DF804FB00002DE9F04FBF
:1015580093B00023079300F00303012B06460C46C3
:10156800154610D0022B03D0002B5DD103075DD5A3
:101578002946204601F090FB18B1092013B0BDE8B8
:10158800F08F0820FAE7070745D5022306F008067A
:101598001E430CAB009300230C22194628460C94DA
:1015A80000F0D2FE062E43D1D4F83080D4E90A7375
:1015B800B8F1000F00F03C819946002FC0F23B8142
:1015C800032600230DF12C091A461946CDF8009080
:1015D80028460B9400F0B8FE002319460122CDF8E6
:1015E800009028460B9700F0AFFE0F212846FFF722
:1015F800A0FF00F0010040EA080000230B90CDF89E
:1016080000900F221946284600F09EFE022E00F098
:101618002C810720B2E70F6A10460D21FFF789FFDA
:101628008742B2D10623B1E701F062FB0123ADE79F
:10163800284601F04DFB8146002899D00CAA0146A6
:101648002846FFF747FF9DF844B0039029465846BF
:10165800FFF70FFF0F2102900E902846FFF769FF52
:10166800039A20F0010808F1FF38109F97420DD81F
:101678000027B8460123F10700F1C580320740F181
:10168800D480012B40F0CC8000F004F99DF845A0EF
:1016980008AB51460020FFF70DFF09AB0246514643
:1016A8000020FFF707FF0AAB024651460020FFF76C
:1016B80001FF0BA9FFF770FE0C9B08990B444345EB
:1016C800024653D809990B444345CED9DDE90A307F
:1016D800002B3FF44DAF0D9A03EB020800283BD0D6
:1016E80001383844B8F1000F3FF442AF16F0080350
:1016F80004933DD0472323704E2363705523A37072
:101708004323E370462323714F2363715223A3714C
:101718000023E3710023039309A9FFF74CFE0AA9EC
:101728000590FFF748FE099F002F69D043DDBBF104
:10173800FF0F3CD00BF00703042B3FF675AF01A257
:1017480052F823F0BB170008311600088B17000861
:10175800BB170008B3170008B8F1000F3FF408AF33
:10176800F0073FF505AF002702262AE73A467CE74F
:10177800E379012B0CBF54F8203C04F1580307937C
:10178800C8E702220F990BAB02FB171258460299C1
:10179800FFF729FE0B9931B134B307AB002220467D
:1017A80000F0D0FA00B3032365E70822EAE7002235
:1017B800E8E70422E6E70F9B6FF04042D21B03EBF9
:1017C800820AC4B10499B1B9079B0B93AAF1040A20
:1017D8005AF8041F0029E6D00BAB002251442046DA
:1017E80000F0B0FA0028F3D00A98002841D0059BF1
:1017F8000344184690E753F82230002BF4D1D2E77F
:1018080001230393F0E70D212846079EFFF791FE79
:10181800C4E90A79C4E90806C4F830800620ADE6B0
:10182800002FBFF6CDAE00F047F8012B7FF4C5AE10
:10183800204600F011FB0CAA49462846FFF74AFE4D
:101848009DF844002946FFF714FE0F9BFA4303EB6B
:101858008203002253F8221029B9C4E90A2004227D
:10186800C4E90C23ACE60132F4E7204600F0BAFAEA
:10187800CFE6039B002B7FF473AF79E608B580476A
:1018880001F036FA024B1868BFF35B8F704700BF50
:101898000800002008B5FFF7F5FFFFF7EFFF08B5D0
:1018A8008047FFF7F7FF0000024B1868BFF35B8F14
:1018B800704700BF0400002008B5FFF7F5FFFFF7E9
:1018C800EEFF000010B5034B03600446FFF70EFD62
:1018D800204610BDC831000810B50446FFF7F2FFD6
:1018E80020460C21FFF756FD204610BD2DE9F0419A
:1018F800DDF81880904506460F4615461C460BD065
:10190800B0680368CDF818801E6A2A46234639460F
:10191800B446BDE8F0416047194600F057F8002882
:10192800EED00620BDE8F0812DE9F14F0D461946AD
:10193800DDE90A4BDDE90CA681461746984600F01A
:1019480045F890B1002D3460377109DB2C44A2456D
:1019580014BF01240624B471002001B0BDE8F08F43
:101968000235F9D10123B371F6E7544506D159463A
:10197800484600F02BF808B17771EDE7D9F8080070
:101988000368CDE90CA6CDE90A4BDC693A46434623
:101998002946A44601B0BDE8F04F60472DE9F04163
:1019A80007460C4615461E46FFF7D3FC48B9B868EB
:1019B80003689F692A4633462146BC46BDE8F04184
:1019C8006047BDE8F081704700207047814208B544
:1019D8000ED0406803782A2B0CD049680B782A2B44
:1019E80008BF0131FEF7A2FCB0FA80F0400908BD3B
:1019F8000120FCE70020FAE7184B1A68D1075CBF02
:101A080001221A60164B1A68D2075CBF01221A60BD
:101A1800144B1A68D0075CBF01221A60124B1A686F
:101A2800D1075CBF01221A60104B1A68D2075CBF4D
:101A380001221A600E4B1A68D0075CBF01221A6097
:101A48000C4B1A68D1075CBF01221A600A4B1A684E
:101A5800D2075CBF01221A60704700BF9C000020BB
:101A68009800002094000020900000208C000020A6
:101A7800880000208400002080000020184B1A688D
:101A8800D1075CBF01221A60164B1A68D2075CBFE7
:101A980001221A60144B1A68D0075CBF01221A6031
:101AA800124B1A68D1075CBF01221A60104B1A68E2
:101AB800D2075CBF01221A600E4B1A68D0075CBFC0
:101AC80001221A600C4B1A68D1075CBF01221A6008
:101AD8000A4B1A68D2075CBF01221A60704700BF20
:101AE800BC000020B8000020B4000020B000002096
:101AF800AC000020A8000020A4000020A0000020C6
:101B080008B501F0F5F808B501F0F2F808B501F0EC
:101B1800EFF80000244B1A68D0075CBF01221A6056
:101B2800224B1A68D1075CBF01221A60204B1A6841
:101B3800D2075CBF01221A601E4B1A68D0075CBF2F
:101B480001221A601C4B1A68D1075CBF01221A6077
:101B58001A4B1A68D2075CBF01221A60184B1A6820
:101B6800D0075CBF01221A60164B1A68D1075CBF08
:101B780001221A60144B1A68D2075CBF01221A604E
:101B8800124B1A68D0075CBF01221A60104B1A6802
:101B9800D1075CBF01221A600E4B1A68D2075CBFDE
:101BA80001221A60704700BFEC000020E800002006
:101BB800E4000020E0000020DC000020D800002025
:101BC800D4000020D0000020CC000020C800002055
:101BD800C4000020C000002050F8083B1B1A5842DF
:101BE8005841704708B50B68B3F1804F02D30D48D0
:101BF800FFF78CFF93420BD9B3EB420F4FEA420039
:101C080006D2B0F1804F2ABF6FF0404308600B60E6
:101C18000868013001D5FFF773FFBDE8084000F000
:101C280093B900BF0432000810B50446FFF7D4FF8B
:101C380020B92068BDE8104000F064B810BD00006D
:101C4800244B1A68D0075CBF01221A60224B1A681D
:101C5800D1075CBF01221A60204B1A68D2075CBF0B
:101C680001221A601E4B1A68D0075CBF01221A6055
:101C78001C4B1A68D1075CBF01221A601A4B1A68FC
:101C8800D2075CBF01221A60184B1A68D0075CBFE4
:101C980001221A60164B1A68D1075CBF01221A602C
:101CA800144B1A68D2075CBF01221A60124B1A68DB
:101CB800D0075CBF01221A60104B1A68D1075CBFBD
:101CC80001221A600E4B1A68D2075CBF01221A6003
:101CD800704700BF1C0100201801002014010020DB
:101CE800100100200C010020080100200401002040
:101CF80000010020FC000020F8000020F400002073
:101D0800F000002001F004B80378472B17D143787E
:101D18004E2B14D18378552B11D1C378432B0ED178
:101D28000379432B0BD143792B2B08D183792B2BA8
:101D380005D1C07901288CBF002001207047002000
:101D4800704700002DE9F3411E460378472B0446EF
:101D58000F4613D143784E2B10D18378552B0DD1D4
:101D6800C378432B0AD10379462B07D143794F2BEC
:101D780004D18379522B01D1C2793AB32046FFF7B7
:101D8800C3FF024620B3E37954F8202C012B0EBF81
:101D980052F8785C154604F158022B6801929B684A
:101DA80028469847B0B1019B1B68019302243B6801
:101DB80001AAD3F81080294601233846C04758B1F4
:101DC800019B3360204602B0BDE8F081034DE4E793
:101DD800034DE2E70124EAE70446F3E73C32000852
:101DE8006832000810B5044600F09EF80246204606
:101DF800A4F12001FFF788FF60B154F8043C0133D7
:101E0800012B44F8043C03D1936844F8083C9160E2
:101E1800012010BD9368002BF9D0FFF73BFD037834
:101E2800472B17D143784E2B14D18378552B11D1DA
:101E3800C378432B0ED10379432B0BD143792B2B3A
:101E480008D183792B2B05D1C07901288CBF0020BC
:101E5800012070470020704710B5044648B100F0D3
:101E680039F82046FFF7DBFF18B154F8140CFFF7D8
:101E780005FDFFF70FFD10B50246FFF7D0FF38B19B
:101E880052F8184C104600F025F82046FFF707FDD9
:101E9800104600F01FF8FFF70FFD0378472B17D106
:101EA80043784E2B14D18378552B11D1C378432B0B
:101EB8000ED10379432B0BD143792B2B08D183798E
:101EC8002B2B05D1C07901288CBF00200120704739
:101ED8000020704738B5044600F026F80568024629
:101EE8002046A4F12001FFF7D8FF28B90DB1FFF76C
:101EF800D1FC1160284638BD54F80C3C002BB4BF07
:101F0800C3F10103013344F80C3C53688D4203F1DB
:101F1800FF33536020461CBF44F8105C1160656AAB
:101F280000F0EAF9E6E77047004870472001002012
:101F3800024A0349034800F018B800BF0000002017
:101F48002F1F000820010020012838BF012010B5EC
:101F58000446204600F0D4FE00B110BD00F00AF897
:101F680008B900F0C5FE8047F3E70B46014618465E
:101F780000F084BF024B1868BFF35B8F704700BF47
:101F88002C01002003685A004CBF43F0004323F0A3
:101F980000431844704700BF2DE9F84349B34F1E6A
:101FA800044615463E464FF0000909EB060101EBD1
:101FB800D171491004EBC1084046FFF7E3FF8F4297
:101FC80003464FEAC1000FD00830AB42204407D87F
:101FD800FFF7D8FF0138A84208D201F10109E4E768
:101FE800894506D04E1EE0E7AB42F9D84046BDE829
:101FF800F8834FF000084046BDE8F883012807D071
:10200800022807D0044B00280CBF18460020704750
:102018000248704702487047B5260008BD260008E8
:10202800C526000830B5214B83B004468D1E1BB36E
:1020380001A92846AFF3008088B301992A46FFF723
:10204800ABFF014658B3FFF79DFF4B68A064012B17
:1020580028D0002B01F104001FDBFFF793FF0023BA
:1020680023650368E064002B0DDBFFF78BFF034655
:102078000020236103B030BD0D4B0E49C91AC910A9
:1020880018460191DAE7C3F30360FFF7B7FF034689
:1020980028B10020236103B030BD0123E0E700230D
:1020A8000920E6E700230520E3E700BF0000000061
:1020B800C4320008CC3300080368DA0710B50446B8
:1020C80006D49B0700F1480009D5FEF76DF8236890
:1020D800590709D51A070ED5DB0613D510BDFEF72B
:1020E8005BF823685907F5D404F1D000FEF764F8CB
:1020F80023681A07F0D404F5A870FEF765F823687A
:10210800DB06EBD404F5E870BDE81040FEF7A0B894
:102118000346006800B11844704700BF704700BF0D
:1021280070B504460E46316C2046FFF77BFF054626
:1021380088B9326C6261236932462146012098478A
:102148000828F0D0072806D12846316CFFF7E6FFAB
:10215800301DFEF715F8FFDE2DE9F0470D1DD0F80C
:102168000C80D0F81890074614460FCDADF5727D57
:102178000DF10C0CACE80F000FCDACE80F000FCD43
:10218800ACE80F0095E80F0002AE4FF0000E8CE8A7
:102198000F00C6F800E020E0336C7B614FF4F0726A
:1021A80031467AA800F0D6FE3B697AAA39465046ED
:1021B8009847889B73642146CDE9006905463B46EC
:1021C8003A460120C047044618BB4FF4F0727AA97A
:1021D800304600F0BFFE082D19D1316C3846FFF7A4
:1021E80021FF09345FFA84FA05460028D4D0B36B7E
:1021F80073643A46CDE900693B464AF01001012074
:10220800C04730B928460DF5727DBDE8F087072D27
:1022180005D0092528460DF5727DBDE8F0872046D2
:10222800316CFFF77BFF03A8FDF7AAFFF0B5CB6B76
:102238000B6401F1040C0E460546BCE80F00F9B02A
:1022480001AC0FC4BCE80F000FC4BCE80F000FC4FA
:102258009CE80F004FF0FF3784E80F00009706E076
:102268002B696A46294698470828044608D11099D8
:102278002846FFF7D7FE0028F2D0092079B0F0BD34
:102288006846FFF719FF062CF7D131462846FFF7B5
:1022980047FF00BFC160D96B8261196400221946EB
:1022A800FFF75ABF70B5C66843690B64AEB90369D6
:1022B8000A4604460D46014602209847072805D0DD
:1022C80008280ED129462046FFF72AFF3046296CF8
:1022D800FFF724FF281DFDF753FF0122FFF73CFFFE
:1022E800FFDEFFDEC26822B1CA6B0A640022FFF774
:1022F80033BFFFF79BBF00BF704700BF012910D055
:1023080009D883B90F2A0ED800EB82021846536801
:10231800009A13607047033901298CBF02200120FD
:102328007047084670470220704700BF00B585B067
:102338000A46002303A900911946FFF7DFFF039817
:1023480005B05DF804FB00BF012910D009D883B996
:102358000F2A0ED8009900EB8202096851601846CE
:102368007047033901298CBF0220012070470846B5
:1023780070470220704700BF10B584B0002303AC3B
:10238800039200940A461946FFF7DEFF04B010BD19
:1023980070B5D36B136402F1040C05460C46BCE817
:1023A8000F00ADF50E7D0DF15C0EAEE80F00BCE838
:1023B8000F00AEE80F00BCE80F00AEE80F009CE885
:1023C8000F004FF0FF368EE80F00169610E0FFF76B
:1023D800D3FF214616A8A847034616AA694608202F
:1023E80083B9049B9847052806460CD0092809D0CC
:1023F80026996846FFF716FE03466A460C2116A87A
:10240800002BE4D0092616A8FFF756FE30460DF536
:102418000E7D70BD2DE9F04F9346CA6C89B00D460C
:1024280052F8041B069200F0030C002B79D00C0C18
:102438008DF81D400904E4B2059102EB84020221E3
:102448002F6D8DF81C10BCF1020F08BFAA6B17F096
:1024580001070CD005A9584600F0B4FA18B90820AD
:1024680009B0BDE8F08F092009B0BDE8F08F166803
:10247800002EEFD000F008010191B24602976446A1
:102488009946B9F1020F48D0B2F800A0568802F177
:102498000408AA6C26F001030F2158469F18FFF77D
:1024A80045FF874237D82AF001023A44824294BF56
:1024B80000220122730003F002030AF0010A43EA32
:1024C8000A03012B47D0022B31D0002BCBD114B1FA
:1024D800002A40F0C98008F10402D2F800A0BAF13D
:1024E800000FCED105A95846029F00F06BFA0028CC
:1024F800B9D1002FB3D00F215846FFF717FF0E218F
:1025080002465846FFF738FF674A0F215846FFF73B
:1025180033FF0720A8E70022CCE7566802F1080835
:10252800B7E7090205918DF81D30032188E7D8F82F
:10253800006026F00043002C44D122B1019A002A01
:102548005AD0002B58D0002E01DA08F104080133C4
:1025580008EB8302C1E7ECB9CAB1D8F80430D8F85F
:102568000020991C4FEAD2723FF47DAF05F1580163
:102578000133049100F08B8008F10400FFF7C8FDD7
:1025880004AB01462846FFF7DDFB002857D108F1C8
:102598000802A2E70D215846FFF7C8FE2B6A8342BE
:1025A800F5D1AB6A9845F2D14046FFF7EBFC0F2115
:1025B80002465846FFF7E0FE2A4600215846FFF734
:1025C800DBFEA6E70D2158460393FFF7AFFE2A6A04
:1025D800039B8242B7D1AA6A9045B4D1002704224E
:1025E800C5E90B724244AB626A63D8F80020BA426C
:1025F80055DB01220292AAE7039408F1040A002697
:1026080005F158071C460DE050460497FFF780FD7A
:102618000022014604AB284601360AF1040AFFF7F6
:1026280091FBE0B9A642EFD10D215846FFF77EFE97
:10263800049BC5F82880C5E90803062014E704466A
:102648000D215846FFF772FE049E2862022C04BF33
:10265800EE6205F12C06C5E90968062004E7234661
:10266800D8F80060039C6EE74046FFF78BFC08F142
:1026780004020446AA632846FFF7B4FB00283FF487
:10268800F2AE22460F215846FFF776FE41E70C4688
:1026980058460D21FFF74AFE26462862DBE7581CFC
:1026A80008EB800081E700BF7F1E00080023FFF7CA
:1026B800B1BE00BF0123FFF7ADBE00BF0223FFF785
:1026C800A9BE00BF2DE9F0430646C3B015461C4617
:1026D800042900F2D180DFE801F0AC51CF2A0300D1
:1026E800002C40F0C980102A00F2C6800368DC067E
:1026F80000F1E78020AF3846FDF7B4FDB46B3946EA
:1027080000234FF0010C0CFA03F22A42204603F191
:10271800010303D050F8042B0A600446042B01F18E
:102728000401F0D1B4633846FDF792FD99E0032C1B
:1027380040F0A28094B204EB1243102B4FEA1245EA
:1027480000F29A8003681F0700F1C38020AF384663
:10275800FDF75CFDB26B07EBC50154B10B46D01A0F
:1027680001EBC401E4001D5843F8045B8B42FAD125
:102778002244B2633846FDF727FD72E0012C4FEA88
:10278800124895B271D0052C76D108EB0509B9F13C
:10279800200F71D8B8F10F0F72D8B9F1100F036874
:1027A80000F29F80D90708D523F00103304643F093
:1027B800020340F8483BFDF7FBFC20AF3846FDF725
:1027C800F7FCB36B002D00F0B9806D006A1E07EBB3
:1027D800C80100250132043903EB820253F8040BC7
:1027E80041F8040F9342F9D1002D00F0A180414631
:1027F800102938BF10216B0010396F46013B07EBD9
:10280800C1010133043902EB830352F8040B41F888
:10281800040F9A42F9D1012C00F08880B8F10F0F0B
:10282800B26302D820A8FDF7BFFC3846FDF7C4FC08
:1028380017E00CBB806B23461FFA82FC0124371D6E
:1028480004FA03F111EA0C0F024604D052F8041BF3
:1028580047F8231010460133102BF1D1AC0400D4F3
:10286800B063002043B0BDE8F08308EB0503102BEC
:1028780002D8B8F1100F14D1022043B0BDE8F0839C
:10288800002DEED003685A075CD46F463846FDF732
:1028980097FCB26B6B00A8F11001013B07EBC1017B
:1028A800AFE70368DA0759D420AF3846FDF778FC5C
:1028B800B36B002D89D10433B3633846FDF76CFC44
:1028C800CFE723F01003036000F5E870FDF7CAFCBA
:1028D80010E723F00803036000F5A870FDF796FCE5
:1028E80034E7D90708D523F0010343F0020340F881
:1028F800483BFDF75DFC3368580706D5304623F0A2
:10290800040340F8D03BFDF75BFC20AF3846FDF7E9
:102918004FFC6846FDF754FCC8F110025200B36B37
:10292800A9F11005013A07EBC80153E720AFC2E748
:10293800012CC0D0B8F10F0FB36392D83846FDF719
:1029480033FC8EE723F0040340F8D03B6F46FDF7D5
:1029580037FC3846FDF734FCB26B9BE7304623F072
:10296800030340F8483BFDF71BFC9DE7027A03464A
:102978007AB9427AA2B14168013A10B44272086841
:1029880003220C1D1A7202025C60000E10BC1A6051
:1029980070470068013A1A7202021A60000E704706
:1029A800B020704700B585B0002303AA00921946ED
:1029B8000C22FFF7A3FC039805B05DF804FB00BFE9
:1029C800FFF7F0BF2DE9F043064685B00D464FF0FE
:1029D80000082846FFF7CAFFB028044600F0DA804E
:1029E800070646D500F0F003802B5ED0B02B73D0DD
:1029F8001BD8902B00F09B80A02B12D1C34303F06F
:102A080007034FF47F621A41010702F47F6201D580
:102A180042F48042002319463046FFF753FE00284F
:102A2800D7D0092005B0BDE8F083C02B6DD1C628EA
:102A380000F09380C72800F0B28000F0F803C02BA4
:102A480000F0D280C82800F0DD80C928E9D12846E6
:102A5800FFF78CFF020300F00F0002F47022013030
:102A68000243012105233046FFF72CFE0028B0D091
:102A7800D7E78300DBB21F1D0DF10C0900231946AF
:102A8800CDF800900D223046FFF738FC039BCDF8B7
:102A9800009060064CBFDF1BFF1800230D2219466B
:102AA80030460397FFF750FC93E72846FFF75EFF91
:102AB80024022043B0F5004FB3D004010023A2B292
:102AC80019463046FFF7FEFD0028AAD114F4004F3E
:102AD80018BF4FF001087CE7B12851D0B22800F0A8
:102AE800AD80B3286DD000F0FC03B42B99D000F072
:102AF80007020132012342F4002219463046FFF74B
:102B0800E1FD00283FF465AF8BE700F0F803D02B18
:102B180087D100F007020132052342F40022012187
:102B28003046FFF7CFFD00283FF453AF79E700F0B8
:102B38000D030D2B3FF475AF03AF002300F00F0218
:102B4800194600973046FFF7D9FB002300970D225E
:102B580019463046FFF7F8FB3BE72846FFF706FF24
:102B6800020300F00F00013002F470220323024335
:102B780019463046FFF7A6FD00283FF42AAF50E774
:102B88002846FFF7F3FE431EDBB20E2B02467FF604
:102B980041AF46E7B8F1000F40D0002042E7284691
:102BA800FFF7E4FE431EDBB20E2B02463FF639AFB9
:102BB800002304213046FFF785FD00283FF409AFC4
:102BC8002FE72846FFF7D2FE020300F00F0001307E
:102BD80002F470220123024319463046FFF772FDC2
:102BE80000283FF4F6AE1CE700F00F020132032381
:102BF80042F4202219463046FFF764FD00283FF4CE
:102C0800E8AE0EE72846FFF7B1FE00F0F00200F04C
:102C18000F031032013343EA023222E703AC434682
:102C280041460E2200943046FFF768FB0094434665
:102C38000F2241463046FFF787FBAEE700230DF130
:102C48000C090D221946CDF800903046FFF756FBC7
:102C58002846FFF78BFE0206039C4FF002070BD5B0
:102C680000F07F00B840044428460394FFF77EFE36
:102C7800030607F10707F3D400FA07F204F5017415
:102C8800224400230392CDF800900D2219463046C5
:102C9800FFF75AFB9DE600BF10B5C26C536884B0BD
:102CA8004FF0030C08321C0208461B0E01A90194C0
:102CB80002928DF80CC08DF80D30FFF783FE04B03A
:102CC80010BD00BF08B5FFF77BFE806C08BD00BFD4
:102CD80008B5FFF775FEC06CC379023300EB8300BB
:102CE80008BD00BF08B500F003F808B5FFF7FAFF04
:102CF80008B5062000F000F9012000F0A1F9000055
:102D0800024B0146186800F02DB800BF0C000020E7
:102D1800024B0146186800F02BB900BF0C000020D8
:102D280070B50F4E0C463168054611B900F000F930
:102D380030602146284600F0FBF8431C03D14FF0D1
:102D4800FF34204670BDC41C24F00304A042F8D010
:102D5800211A284600F0ECF80130F2D1EFE700BF65
:102D6800300100202DE9F843CD1C25F00305083576
:102D78000C2D38BF0C25002D064601DBA94204D9CD
:102D88000C2333600020BDE8F883DFF8D48000F01E
:102D980069F8D8F800301C4644BB29463046FFF78E
:102DA800BFFF431C044658D1D8F800402746002FDF
:102DB80043D1002C4BD023683946304604EB030935
:102DC80000F0B6F8814542D121686D1A294630468F
:102DD800FFF7A6FF01303AD023682B442360D8F8C8
:102DE80000305A6862BBC8F800700FE02268521BB6
:102DF80020D40B2A17D96119A342256018BF59603E
:102E0800636808BFC8F8001062514B60304600F094
:102E18002FF804F10B00231D20F00700C21A1CBF75
:102E28001B1AA350AFE76268A3420CBFC8F8002082
:102E38005A60EBE723466468AEE73C467F68B6E72E
:102E48001A465B68A342FBD100235360DEE70C23DC
:102E58003360304600F00CF894E70560D6E700BF11
:102E680034010020014800F073B800BF740200204C
:102E7800014800F06EB800BF7402002010B5044687
:102E88000448134620B10A4602202146AFF30080C9
:102E980010BD00BF0000000002440346934200D169
:102EA800704703F8011BF9E71F2938B505460C469A
:102EB80004D9162303604FF0FF3038BDC26B12B13E
:102EC80052F821304BB9284600F030F82246014626
:102ED8002846BDE8384000F017B8012B0AD0591C25
:102EE80003D1162303600120E7E7002142F82410EC
:102EF800204698470020E0E7024B01461868FFF794
:102F0800D3BF00BF0C00002038B5074D002304468E
:102F1800084611462B6000F07DF8431C02D12B684F
:102F280003B1236038BD00BF7002002000F06AB80A
:102F380038B5064D0023044608462B6000F072F8A9
:102F4800431C02D12B6803B1236038BD70020020F6
:102F5800704770470A44914200F1FF3300D170472F
:102F680010B511F8014B03F8014F9142F9D110BD8A
:102F780038B50546002941D051F8043C0C1F002BF8
:102F8800B8BFE418FFF76EFF1D4A136833B96360D2
:102F980014602846BDE83840FFF76ABFA34208D945
:102FA800206821188B4201BF19685B6809182160E5
:102FB800EDE71A465B680BB1A342FAD911685018BD
:102FC800A0420BD120680144501883421160E0D11F
:102FD80018685B68536008441060DAE702D90C236C
:102FE8002B60D6E7206821188B4204BF19685B68FC
:102FF800636004BF091821605460CAE738BD00BF88
:1030080034010020024B58221A604FF0FF307047FD
:1030180070020020024B58221A604FF0FF307047B0
:1030280070020020044A05491368002B08BF0B46AC
:10303800184410601846704778020020800200206B
:10304800FEE700BFF8B500BFF8BC08BC9E46704755
:0C305800F8B500BFF8BC08BC9E467047ED
:10306400007A030A80DE800200BD0105007A030AAB
:1030740062617369635F737472696E673A20636F28
:103084006E737472756374696F6E2066726F6D20EF
:103094006E756C6C206973206E6F742076616C6938
:1030A4006400000048656C6C6F20310A0D0000005C
:1030B40048656C6C6F20330A0D0000005374617214
:1030C400742053544D3332463430370A0D00000017
:1030D4004E3462617365313342617365496E746560
:1030E400726661636545000068310008D4300008E9
:1030F4004E376472697665727335757361727435AF
:103104005573617274450000C8310008F43000083A
:10311400EC300008000000000C310008190700081A
:103124002107000848656C6C6F20320A0D004E318F
:10313400305F5F637878616269763131375F5F63EE
:103144006C6173735F747970655F696E666F450057
:10315400C831000832310008FC31000800000000CA
:1031640054310008F512000809130008D1190008A9
:10317400D119000873130008B51200085B13000886
:103184001D130008E71200084E31305F5F63787842
:10319400616269763132305F5F73695F636C61735A
:1031A400735F747970655F696E666F450000000037
:1031B400C83100088C3100085431000800000000B8
:1031C400B4310008CD180008E1180008D11900082E
:1031D400D119000873130008B5120008A5190008D6
:1031E40031190008F5180008537439747970655F53
:1031F400696E666F0000000068310008EC31000859
:1032040062617369635F737472696E673A3A5F4DA2
:103214005F637265617465004E31305F5F63787817
:10322400616269763131355F5F666F726365645FD1
:10323400756E77696E644500683100081C320008B9
:103244004E31305F5F637878616269763131395F1E
:103254005F666F726569676E5F65786365707469D0
:0C3264006F6E450068310008443200081D
:10327000E5E2FF7F00841600FFFF0100D9E2FF7F37
:10328000B0B0AA00FFFF0100CDE2FF7FB0A80500AB
:10329000FFFF010008B10181B0B000840000000010
:1032A000B5E2FF7FB0A90800FFFF010008B101816E
:1032B000B0B000840000000008B10181B0B000840B
:0432C000000000000A
:1032C40070D0FF7F0100000018D1FF7FB0AB0280F7
:1032D40074D1FF7F98FFFF7FA8D2FF7F0100000019
:1032E400BCD2FF7F94FFFF7FE8D2FF7F0100000084
:1032F40034D4FF7F90FFFF7FECD6FF7F01000000F6
:103304003CD9FF7F8CFFFF7F80D9FF7F0100000045
:1033140094DEFF7F88FFFF7F50DFFF7F0100000006
:1033240008EDFF7FB0A9028094EDFF7FB0B0A880C4
:10333400E4EDFF7F01000000ECEDFF7FB0B0AA8058
:103344001CEEFF7FAE71B280E8EEFF7FAB3F3880AA
:1033540048EFFF7F0100000050EFFF7FB0B0AA806C
:1033640088EFFF7F010000002CF0FF7FAA0DB280E0
:10337400A8F0FF7FB0AF088038F3FF7F01000000A2
:1033840048F3FF7FAD3F0280E8F5FF7F01000000B6
:1033940018F6FF7F008404802CF6FF7F01000000F4
:1033A40028F6FF7FB0AD0480F4F8FF7FB0A8038057
:1033B40018F9FF7FF4FEFF7F1CF9FF7FF8FEFF7F03
:0833C40028F9FF7F0100000061
:1033CC00C1030008011A0008851A00081D1B00081B
:0833DC00491C0008391F00081C
:0433E4009903000841
:1033E800000000009D180008F92C000810000020BB
:1033F8000000000038010020A00100200802002081
:1034080000000000000000000000000000000000B4
:1034180000000000000000000000000000000000A4
:103428000000000000000000000000000000000094
:0C34380000000000000000000000000088
:040000050800018866
:00000001FF
