:020000040800F2
:100000000000022065200008191F00081D1F0008BD
:10001000211F0008251F0008291F000800000000FC
:100020000000000000000000000000002D1F00087C
:10003000311F000800000000351F0008391F0008AC
:100040003D1F0008411F0008451F0008491F000808
:100050004D1F0008511F000825140008551F0008F7
:10006000591F00085D1F0008611F0008651F000878
:10007000691F00086D1F0008711F0008751F000828
:1000800099140008F5140008791F00087D1F000866
:10009000811F0008851F0008891F00088D1F0008A8
:1000A000911F0008951F0008991F00089D1F000858
:1000B000A11F0008A51F0008A91F0008AD1F000808
:1000C000B11F0008B51F0008B91F0008BD1F0008B8
:1000D000C11F00084514000849140008C51F000886
:1000E000C91F0008CD1F0008D11F0008D51F000838
:1000F000D91F0008DD1F0008E11F0008E51F0008E8
:10010000E91F0008ED1F0008F11F0008F51F000897
:10011000F91F0008FD1F00086D14000801200008E9
:1001200005200008092000080D2000081120000803
:1001300015200008192000081D20000821200008B3
:1001400025200008292000082D2000086914000837
:100150003120000835200008392000083D20000823
:100160004120000845200008492000084D200008D3
:100170005120000855200008592000080000000008
:080180005D2000086120000869
:1001880010B5054C237833B9044B13B10448AFF3C9
:1001980000800123237010BD6C00002000000000C7
:1001A8006431000808B5034B1BB103490348AFF39A
:1001B800008008BD000000007000002064310008C5
:1001C80003685A004CBF43F0004323F0004318442F
:1001D800704700BF2DE9F84329B34F1E0446154662
:1001E8003E464FF0000808EB060101EBD1714910BB
:1001F80004EBC1094846FFF7E3FF0346C80008308F
:100208008F42204409D0AB4209D8FFF7D9FF013803
:10021800A8420AD201F10108E5E7AB4205D98845B1
:1002280001D04E1EDFE74FF000094846BDE8F883CD
:10023800012807D0022807D0044B00280CBF184615
:10024800002070470248704702487047FD080008C0
:10025800010900080509000830B5234B83B004469E
:100268008D1E3BB301A92846AFF30080E8B1019980
:100278002A46FFF7AFFF0146B8B1FFF7A1FF4B6869
:10028800A064012B2BD0002B01F1040023DBFFF726
:1002980097FF0023C4E913030368002B10DBFFF763
:1002A8008FFF2061002003B030BD002309202361A7
:1002B80003B030BD0D490E48091AC9100191D7E79E
:1002C800C3F30360FFF7B4FF0028206114BF0020C8
:1002D800092003B030BD0123C4E91303DCE7002380
:1002E80023610520DFE700BF000000002834000874
:1002F800303300080368DA0710B5044606D49B07B4
:1003080000F1480009D500F04BFC2368590709D5CE
:100318001A070ED5DB0613D510BD00F039FC23688B
:100328005907F5D404F1D00000F042FC23681A07FD
:10033800F0D404F5A87000F043FC2368DB06EBD486
:1003480004F5E870BDE8104000F07EBC0346006884
:1003580000B11844704700BF09207047704700BFBC
:1003680070B504460E46316C2046FFF775FF05460A
:1003780088B9336C63613246236921460120984766
:100388000828F0D0072806D12846316CFFF7E6FF89
:10039800301D00F0F1FB02F007FE00BF2DE9F04729
:1003A8000D1D064614460FCDADF5727D0DF10C0CF2
:1003B800ACE80F000FCDACE80F000FCDACE80F0094
:1003C80095E80F0002ADF768D6F818808CE80F00A2
:1003D80000232B6021E02B6C73614FF4F0722946E7
:1003E8007AA802F0F1FD33697AAA31465046984757
:1003F800889BCDE9005821466B64814633463246D6
:100408000120B8470446E8B94FF4F0727AA92846A3
:1004180002F0DAFDB9F1080F1BD1296C3046FFF75D
:100428001BFF09345FFA84FA81460028D3D0AB6BEE
:100438004AF01001CDE9005832466B64012033467A
:10044800B84708B14FF0090948460DF5727DBDE877
:10045800F087B9F1070FF5D12046296CFFF77EFF29
:1004680003A800F089FB00BF406C7047F0B5CB6B68
:100478000B640E1D0F4605460FCEF9B001AC0FC434
:100488000FCE0FC40FCE0FC496E80F004FF0FF3603
:1004980084E80F00009606E02B696A4629469847CB
:1004A8000828044608D110992846FFF7D5FE0028E9
:1004B800F2D0092079B0F0BD6846FFF71BFF062C83
:1004C800F7D139462846FFF74BFF00BF30B4DD6B44
:1004D800C160826119461D64002230BC5EE700BF1E
:1004E80070B5C66843690B64AEB903690A46044629
:1004F8000D46014602209847072805D008280FD145
:1005080029462046FFF72CFF3046296CFFF726FFC7
:10051800281D00F031FB0122FFF740FF02F044FDE7
:1005280002F042FDC2681AB1CA6B0A64002235E7BC
:100538009CE700BF704700BF836801460BB10120EC
:1005480018477047012912D009D873B90F2A0CD857
:1005580000EB820218465368009A1360704703390B
:10056800012994BF012002207047022070470846E5
:10057800704700BF10B584B0002303AC0A4600944E
:100588001946FFF7DFFF039804B010BD012912D008
:1005980009D873B90F2A0CD800EB8200009A1268A8
:1005A8004260184670470339012994BF0120022090
:1005B8007047022070470846704700BF10B584B0E6
:1005C800002303AC039200940A461946FFF7DEFFA6
:1005D80004B010BDF0B5D36B1364151D8C460646E8
:1005E8000FCDADF50F7D17AC0FC40FCD0FC40FCDD8
:1005F8000FC495E80F004FF0FF3784E80F006546F9
:10060800169710E0FFF7DAFF294616A8B047034609
:1006180016AA6946082083B9049B9847052804460A
:100628000CD0092809D026996846FFF715FE03461D
:100638006A460C2116A8002BE4D0092416A8FFF757
:1006480059FE20460DF50F7DF0BD00BF2DE9F04F96
:10065800CC6C89B00D4654F8041B0694174600F07C
:1006680003081E46002B79D00B0CDAB209048DF86A
:100678001D30022304EB820405918DF81C302B6D8C
:10068800B8F1020F08BFAC6B13F001030CD0384669
:1006980005A900F073FB18B9082009B0BDE8F08F70
:1006A800092009B0BDE8F08FD4F800A0BAF1000F16
:1006B800EDD0019300F008030293022E4AD0B4F85B
:1006C80000A0B4F802900434AA6C29F0010B0F21A1
:1006D80038469344FFF74EFF834539D82AF0010284
:1006E8005A44824294BF002001204FEA490303F094
:1006F80002030AF0010A43EA0A03012B49D0022B3C
:1007080032D0002BCCD1B8F1000F02D0002840F035
:10071800CD800434D4F800A0BAF1000FCDD105A9DA
:10072800384600F02BFB0028BAD1019B002BB3D030
:100738000F213846FFF71EFF0E2102463846FFF705
:100748003DFF38466A4A0F21FFF738FF0720A8E720
:100758000020CAE7D4F804900834B5E70902032357
:100768000591ADF81C308AE7236823F0004BB8F1F7
:10077800000F45D128B1029A002A5CD0BBF1000FC6
:1007880074D0002B00DA04340BF1010B04EB8B045A
:10079800C0E7B8F1000F19D1B0B1D4E90023991C12
:1007A8004FEAD2723FF47CAF05F15801013304914E
:1007B80000F09080201DFFF7C9FD04AB01462846D4
:1007C80002F0D8F900285BD10834A3E70D21384698
:1007D800D5F82090FFF7CEFE8145F5D1AB6A9C4253
:1007E800F2D12046FFF7ECFC0F2102463846FFF70E
:1007F800E5FE38462A460021FFF7E0FE072050E7CD
:100808000D213846D5F82090FFF7B4FE814501D078
:100818002368B6E7AB6A9C42FAD104220021C5E9F5
:100828000B12A318C5F828B06B6323688B4259DBF9
:1008380001230193A8E705F15803CDF80C8004F1D2
:10084800040AB04691461E460DE00496FFF77EFD69
:1008580004AB01460022284602F08CF909F101098F
:100868000AF1040AE8B9D9455046EED138460D21B7
:10087800FFF780FE049B2862C5E90934062010E7CB
:1008880081460D213846FFF775FEB9F1020F28623F
:1008980025D12B46049A43F82C2F6B62AC620620B4
:1008A800FFE646462368DDF80C806AE72046FFF736
:1008B80087FC04340246AC632846144602F0B8F9B3
:1008C80000283FF4EDAE384622460F21FFF776FEAA
:1008D8000720E6E638460D21FFF74CFE2862049B08
:1008E8006B62DBE70BF1010004EB80007AE700BFE5
:1008F800CB2C00080023A9E60123A7E60223A5E6DE
:100908002DE9F0430646C3B015461C46042900F2FB
:10091800B980DFE801F09A53B7290300002C40F0B2
:10092800B180102A00F2AE800368D80600F1F38087
:1009380020AF384600F092F9B06B0023012404FA86
:1009480003F22A42014604D051F8042B47F8232029
:1009580008460133042BF2D1B063384600F074F92D
:10096800002043B0BDE8F083032C40F08B8094B2A4
:1009780004EB1243102B4FEA124500F28380036800
:100988001F0700F1D08020AF384600F03BF907EB95
:10099800C501B56B54B10B46E81A01EBC401E4007C
:1009A8001A5843F8042B8B42FAD125443846B563CC
:1009B80000F006F9002043B0BDE8F083012C4FEAAF
:1009C800124895B25AD0052C5CD108EB0509B9F14B
:1009D800200F57D8B8F10F0F77D9A946002D40F04E
:1009E8008880B36B6DB320AF4FF0000907EBC807E1
:1009F800043F03EBC50553F8041B47F8041FAB423B
:100A0800F9D1B9F1000F0FD06F464146102938BF10
:100A1800102107EBC101843903EBC90553F8040B16
:100A280041F8040FAB42F9D1012C00F08480B8F1F1
:100A38000F0FB56345D9B9F1000F02D0684600F031
:100A4800B7F8002043B0BDE8F083DCB9876B2346D4
:100A5800012094B206F1040C00FA03F2224239464E
:100A680004D051F8042B4CF823200F460133102BE7
:100A7800F2D115F40050E4D1B76304E008EB0503A4
:100A8800102B03D9022043B0BDE8F083B8F10F0F53
:100A9800F8D83368DA0706D5304623F0030340F860
:100AA800483B00F079F820AF384600F075F8B36B92
:100AB800002D99D11D460435B563384600F068F815
:100AC800BFE720A800F06CF8B5E7B9F1100F40D9DE
:100AD800A9F110093368D90708D523F00103304676
:100AE80043F0020340F8483B00F05EF8B9F1000F0C
:100AF80032D033685A0720D4B8F10F0F25D96F4682
:100B08003846C8F1100500F057F8002DB36B7FF791
:100B18007CAF20AF6AE723F01003336006F5E87076
:100B280000F09CF804E723F00803036000F5A870C0
:100B380000F068F827E720AFBDE7304623F004034C
:100B480040F8D03B00F038F8D6E720A800F02CF8A1
:100B5800D5E74FF00009BDE7B8F10F0F3FF641AFF9
:100B680020AF384600F020F8B36B002D7FF43CAF7F
:100B7800384600F015F864E700F1340191E83800D0
:100B88009C46A6464CF8045D90E8FF0FE54600BD7C
:100B980090EC210B704700BF80EC210B704700BF21
:100BA80090EC200B704700BF80EC200B704700BF13
:100BB800D0EC200B704700BFC0EC200B704700BF83
:100BC800F0EC0201F0EC0211F0EC0221F0EC023141
:100BD800F0EC0241F0EC0251F0EC0261F0EC027131
:100BE800F0EC0281F0EC0291F0EC02A1F0EC02B121
:100BF800F0EC02C1F0EC02D1F0EC02E1F0EC02F111
:100C0800704700BFE0EC0201E0EC0211E0EC0221C9
:100C1800E0EC0231E0EC0241E0EC0251E0EC026170
:100C2800E0EC0271E0EC0281E0EC0291E0EC02A160
:100C3800E0EC02B1E0EC02C1E0EC02D1E0EC02E150
:100C4800E0EC02F1704700BFB0FC0181B0FC0191FB
:100C5800B0FC01A1B0FC01B1704700BFA0FC01814C
:100C6800A0FC0191A0FC01A1A0FC01B1704700BF4C
:100C7800EC4600B52DE900502DE9FF1F4FF00003A9
:100C88002DE90C0001A9FFF7F1FBDDF840E012B0F7
:100C9800704700BFEC4600B52DE900502DE9FF1F55
:100CA8004FF000032DE90C0001A9FFF719FCDDF84E
:100CB80040E012B0704700BFEC4600B52DE9005087
:100CC8002DE9FF1F4FF000032DE90C0001A9FFF7E4
:100CD80029FCDDF840E012B0704700BFEC4600B5D3
:100CE8002DE900502DE9FF1F4FF000032DE90C00FE
:100CF80001ABFFF7EBFBDDF840E012B0704700BF37
:100D0800EC4600B52DE900502DE9FF1F4FF0000318
:100D18002DE90C0001AAFFF75DFCDDF840E012B0F8
:100D2800704700BF027A7AB9437AA3B14268013B9F
:100D380010B4437213680321141D01721A0244602F
:100D4800026010BC180E70470368013A02721A025A
:100D58000260180E7047B020704700BF00B585B01C
:100D680003AA0023009219460C22FFF7EBFB039815
:100D780005B05DF804FB00BFF0E700BF2DE9F043C4
:100D8800054685B00E464FF000083046FFF7CAFF0B
:100D9800B028044600F0B280070620D500F0F00322
:100DA800802B4DD0902B36D0A02B60D0B02B74D098
:100DB800C02B00F08B8000F0F803D02B0BD100F093
:100DC8000702013242F40022052301212846FFF7D9
:100DD80097FD0028D9D0092005B0BDE8F0830DF1B2
:100DE8000C09002319468700CDF800900D222846EB
:100DF800FFF7A8FBFFB2039BCDF80090043760060D
:100E08004CBFDF1BFF18002319460D222846039705
:100E1800FFF7BCFBB9E700F00D030D2BDBD003AFE8
:100E2800002300F00F02194600972846FFF78AFBB7
:100E38000023009719460D222846FFF7A7FBA4E7D1
:100E48003046FFF76FFF24022043B0F5004FC2D0B1
:100E580004010023A2B219462846FFF751FD0028D5
:100E6800B9D114F4004F18BF4FF001088DE7C24301
:100E780002F007034FF47F621A41010702F47F6210
:100E88004FF0000348BF42F4804219462846FFF756
:100E980037FD00283FF479AF9DE7B12833D0B22859
:100EA80000F08B80B32839D000F0FC03B42B92D02B
:100EB80000F007020132012342F4002219462846B5
:100EC800FFF71EFD00283FF460AF84E7C62842D034
:100ED800C7284CD000F0F803C02B5BD0C82860D0DE
:100EE800C9287FF478AF3046FFF71CFF020300F0F3
:100EF8000F0002F470220130024365E7B8F1000FD9
:100F080018D0002068E73046FFF70CFF024600289B
:100F18003FF461AF10F0F003D0D05CE73046FFF744
:100F280001FF010300F00F0001F47021421C0123AE
:100F38000A43C3E703AC43460E22414600942846C1
:100F4800FFF700FB0094284643460F224146FFF76F
:100F58001DFB404640E73046FFF7E4FE010300F082
:100F68000F0001F47021421C03230A43A6E7304610
:100F7800FFF7D8FE024600283FF42DAF10F0F0032B
:100F88007FF429AF04212846FFF7BAFC00283FF474
:100F9800FCAE20E700F00F020132032342F42022C6
:100FA8008CE73046FFF7BEFE00F0F00200F00F03BA
:100FB8001032013343EA023206E700230DF10C092F
:100FC8000D221946CDF800902846FFF7BBFA3046A7
:100FD800FFF7A8FE02064FF002070CD5039B00F0AE
:100FE8007F00B840034430460393FFF79BFE030697
:100FF80007F10707F2D4039BCDF8009000F07F04B7
:1010080003F50172BC400023144419460D222846FA
:101018000394FFF7BBFAB8E610B5C26C84B0536806
:1010280003248DF80C401B0202F108040846D2790B
:10103800019301A902948DF80D20FFF79FFE04B0DB
:1010480010BD00BF08B5FFF797FE806C08BD00BF54
:1010580008B5FFF791FEC06CC379023300EB83003B
:1010680008BD00BF10F8012B11F8013B012A28BF69
:101078009A42F7D0D01A704730B50B68544A0360CB
:10108800934289B00D46044668D060D8514A9342CD
:1010980000F0988002F5F41202F59062934240F055
:1010A80087804D4A4260C4E9022303A8052101F064
:1010B80019F903A801F024F90528FAD1204601F00E
:1010C80063F8204601F06EF80028FAD0204601F0B7
:1010D800FBF82B683E4A934257D022D83D4A9342A8
:1010E80040D002F5F41202F59062934210D107AB9A
:1010F80000200425394900938DF8100006AB04AA96
:10110800204605918DF818508DF81C5001F07EF896
:101118002046E1684FF47A7200F0D8FF204609B003
:1011280030BD2F4A9342F3D106AB002205202D494A
:10113800009304258DF810208DF8140005AB04AA3F
:10114800204607918DF8185001F060F8E0E7244A2E
:1011580093422DD1244A4260244AA4E71E4A4260A1
:10116800234AA0E707AB0822042022490093002560
:101178008DF814208DF8180006AB05AA20460491B6
:101188008DF81C5001F042F8C2E707AB0022052099
:101198001949009304258DF810208DF8140005AB2B
:1011A80004AA204606918DF81C5001F02FF8AFE7ED
:1011B8000B4A6360934209D00D49074A8B4218BF16
:1011C8001A4670E70D4A42601A466CE7074A6AE712
:1011D80000E1F505006CDC0240787D013204000472
:1011E800007A030AA804000780DE800200BD01051A
:1011F80080F0FA02600400046404000400366E0102
:101208002DE9F043ABB023AF764B2393394612A8B0
:10121800FFF732FF744B754A754D764E4FF47000E8
:101228000DF12808186012A9404600F067FA12ABC1
:101238000CAC714A0C931846394651230D928DF81F
:101248008C30C5F8008000F055FF2046002100F0E2
:1012580097FB0C9B20465A684FF4E13100F07EFC66
:101268002046002100F022FC2046012100F034FC39
:101278002046012100F046FC2046012100F058FCE0
:101288005E4B204601211C6000F0BAFC0FCE1EAD5B
:101298000FC54FF0000933682B70102216AE204698
:1012A8001EA98DF88B90ADF8899000F081FC21463D
:1012B800304600F049F9524BDFF85CE193E807004B
:1012C80025AD2B46239503C34FF0090C1A703946F8
:1012D8003046CEF80060CDF890C08DF89D9000F0B3
:1012E80041F9494600F0F0F92398A84201D001F0ED
:1012F8007DF91399304600F04DF9002100F0E4F92A
:101308001499304600F046F9002100F0DDF91599EE
:10131800304600F03FF9002100F0D6F901221146CD
:10132800404600F0D9FA01221146404600F0B6FACC
:1013380009A800F0AFFD362000F0AEFD262000F031
:10134800ABFD102000F0A8FD112000F0A5FD2D4BED
:1013580093E803000EAB83E80300072219462046F2
:1013680000F026FC284A119212A81523394610903D
:101378008DF88C3000F0BEFE4FF0000C4FF48073F7
:10138800CDF898C0ADF89E308DF89CC08DF8A0C0FF
:101398000FCD0126CDE905666E460FC64FF0807267
:1013A8002B681A4D8DF890C08DF892C02392336047
:1013B80010AE97E80C0031462E60204600F036FC4F
:1013C800134B0FCB1AAD85E80F002A4631460E2382
:1013D800204600F0EBFC0F4A31462046052300F07A
:1013E8001FFDFEE7007A030A88ED00E000000240D6
:1013F800980000207C31000800440040A80000202C
:10140800A0310008AC3100080060024094000020C0
:10141800903100089C0000209000002000B583B0A7
:10142800002101A800F042FE034A1368013313604B
:1014380003B05DF804FB00BF8C000020704700BFBC
:1014480010B5054C0521206800F0CEFB206800F09F
:10145800C1FB024B187010BDA800002088000020B6
:10146800704700BF08B5074B0C21186800F06CFAEC
:10147800054B186800F04CFF044A136801331360E9
:1014880008BD00BF98000020A40000208C000020A8
:1014980030B5134B134D93E8070089B004AC2346CD
:1014A800029403C328681A7002A909220023039230
:1014B8008DF8193000F056F80298A04201D001F0DA
:1014C80095F8094B02A91868882405230DF107022D
:1014D80002948DF8073000F041FF09B030BD00BF1D
:1014E800B4310008900000209400002030B5134B60
:1014F800134D93E8070089B004AC2346029403C354
:1015080028681A7002A90922002303928DF819305D
:1015180000F028F80298A04201D001F067F8094BC2
:1015280002A91868A02405230DF1070202948DF87A
:10153800073000F013FF09B030BD00BFC03100080C
:101548009000002094000020024610B4002402F805
:10155800014BC0F801405460C2F807405DF8044BE5
:10156800C160704770B50E6803783578AB420446A1
:101578000DD0E06800F032FB0028FAD02946E06878
:1015880000F012FB16F8015F2378AB42F1D1204638
:1015980070BD00BF464A70B5A2FB0143DB0803EBF0
:1015A80083050446A1EB4505002030350929C4F818
:1015B800050082B0A060C4F80100A57263D9A2FB3F
:1015C8000350C00800EB8005A3EB450330336329C3
:1015D800637258D9A2FB0053DB0803EB8305A0EB29
:1015E80045003030B1F57A7F20724CD3A2FB03500E
:1015F800C00800EB8005A3EB450342F20F753033BA
:10160800A942E3713FD9A2FB0053DB0803EB830532
:10161800A0EB4500274D3030A942A07133D9A2FB79
:101628000350C00800EB8005A3EB4503224D30337F
:10163800A942637127D9A2FB0053DB0803EB83059A
:10164800A0EB45001D4D3030A94220711BD3A2FBF1
:101658000350C00800EB8005A3EB4503184D303359
:10166800A942E3700FD9A2FB0032D20802EB820331
:10167800A0EB4300134B994200F1300088BF303291
:10168800A07088BF6270254604F10B0615F8011F8B
:10169800E068019100F0A2FA01990028F8D0E0680A
:1016A80000F082FAB542F1D1204602B070BD00BF09
:1016B800CDCCCCCC9F8601003F420F00809698008D
:1016C800FFE0F505FFC99A3B10B5044609B120466D
:1016D80010BDE06800F082FA0028FAD0E0680A211C
:1016E80000F062FAE06800F079FA0028FAD0E068C1
:1016F8000D2100F059FA204610BD00BF10B5414B2E
:1017080004469A42C4E9001282B0084647D022D95A
:101718003D4B9A424DD00CD93C4B9A4206D10823F6
:101728000DF107018DF8073000F0E4FC204602B007
:1017380010BDA3F500639A4245D003F580639A4231
:10174800F4D106230DF107018DF8073000F0D2FC23
:10175800204602B010BDA3F500639A423DD00CD9D3
:101768002B4B9A42E2D103230DF107018DF8073084
:1017780000F0C0FC204602B010BDA3F500639A42F9
:1017880035D003F580639A42D0D101230DF10701CA
:101798008DF8073000F0AEFC204602B010BD0423DF
:1017A8000DF107018DF8073000F0A4FC204602B0C7
:1017B80010BD07230DEB03018DF8073000F09AFCEC
:1017C800204602B010BD05230DF107018DF8073042
:1017D80000F090FC204602B010BD02230DF1070175
:1017E8008DF8073000F086FC204602B010BD0023BB
:1017F8000DF107018DF8073000F07CFC204602B09F
:1018080010BD00BF00100240001C02400020024032
:10181800000C0240436882B0986801900198490022
:101828008A4002430192019A9A6002B0704700BF51
:10183800072982B00BD84368186A0090009889007D
:101848008A4002430092009A1A6202B070474068C8
:10185800436A019308398B0001999A400A4301921F
:10186800019B436202B0704710B4436883B01868A4
:1018780001900198490003248C4020EA040001905B
:10188800019818601868009000988A4002430092F6
:10189800009A1A6003B05DF8044B704782B06AB1D1
:1018A800012A09D14368986900908A40009992B248
:1018B8000A430092009A9A6102B0704743689A6995
:1018C800019201984FF4803202FA01F1014301912B
:1018D800019A9A6102B0704730B4436886B01868BC
:1018E8000490049C4D000320A84024EA00040494BA
:1018F800049C1C601C680594059CAA402243059220
:10190800059A1A609A690392039C4FF4803202FA8E
:1019180001F121430391039A9A619A680292029A0B
:1019280010430290029A9A605A680192019A0192B1
:10193800019A5A60DA680092009A0092009ADA6076
:1019480006B030BC704700BF42680123506903FAF3
:1019580001F10142936982B008D00093009B43EAE9
:1019680001410091009B936102B070470193019B74
:1019780089B219430191019B936102B0704700BF7E
:1019880010B5044684B003292BD8DFE801F02C56A3
:101998007002444A21686846FFF7B0FE6846022292
:1019A8000521FFF761FF684603220521FFF732FF93
:1019B800684607220521FFF73BFF2168394A02A83C
:1019C800FFF79CFE02A802220621FFF74DFF02A89E
:1019D80003220621FFF71EFF02A807220621FFF7B0
:1019E80027FF04B010BD304A21686846FFF786FE1D
:1019F800022211466846FFF737FF68460322022194
:101A0800FFF708FF684607220221FFF711FF216848
:101A1800254A02A8FFF772FE02A802220321FFF757
:101A280023FF032202A81146FFF7F4FE02A80722AB
:101A38000321FFF7FDFE04B010BD21681A4A68466D
:101A4800FFF75CFE022268461146FFF70DFF684665
:101A580003220221FFF7DEFE684607220221FFF774
:101A6800E7FE21680F4A02A8FFF748FEAAE72168A7
:101A78000C4A6846FFF742FE684602220521FFF736
:101A8800F3FE684603220521FFF7C4FE68460722D5
:101A98000521FFF7CDFE2168034A02A8FFF72EFEB5
:101AA800BAE700BF000C024000000240426882B062
:101AB800D36841B90093009B23F480530093009BA3
:101AC800D36002B070470193019B43F480530193A4
:101AD800019BD36002B07047426882B0D36841B9B5
:101AE8000093009B23F004030093009BD36002B093
:101AF80070470193019B43F004030193019BD3605A
:101B080002B07047426882B0D36841B90093009B25
:101B180023F008030093009BD36002B07047019341
:101B2800019B43F008030193019BD36002B0704707
:101B3800426882B0D36841B90093009B23F40053F4
:101B48000093009BD36002B070470193019B43F45C
:101B580000530193019BD36002B07047090107EE5F
:101B6800901AB8EE677A07EE902AF8EE676AB3EE35
:101B7800006AC6EE877A4168BCEEE77A17EE103A3B
:101B88009BB207EE103AB8EE477A77EEC77A67EE5F
:101B9800867AFCEEE77A17EE902A02F00F0242EA04
:101BA80003138B60704700BF43685960704700BFDC
:101BB8007AB14068013910B40A44041D03681B0651
:101BC800FCD511F8013F23609142F7D15DF8044B31
:101BD8007047704743681879704700BF43681868B2
:101BE800C0F3C010704700BF426882B01368019309
:101BF800019B23F400730193019B136002B07047AB
:101C0800426882B0D36841B90093009B23F0200357
:101C18000093009BD36002B070470193019B43F08F
:101C280020030193019BD36002B0704782B02DE975
:101C3800F0435A4E456889B00F46B54210A981E86D
:101C48000C009DF85C809DF860900DD0544B9D422F
:101C580004461FD0A3F54C439D4209D0002009B08B
:101C6800BDE8F04302B07047384600F0D9FBF5E70D
:101C7800384600F0D5FB4B4B9842EFD1B8F1000F36
:101C880034D1B9F1000F78D1012009B0BDE8F04393
:101C980002B07047384600F0C3FB434B9842DDD191
:101CA800B8F1000F44D1B9F1000FEDD065686A6949
:101CB80005920423059C8DF8513013AB0FCB44F0EB
:101CC80040040594059C6C618DE80F0000248DF894
:101CD80045408DF84B404FF48074CDF8474010AB29
:101CE80038460ECB00F09EFB4846B8E76668736935
:101CF8000693A02204238DF85130169213AB069D4B
:101D08000FCB45F080050695069D75618DE80F009F
:101D180001258DF845504FF48075CDF847500025C2
:101D28008DF84B5010AB0ECB384600F07BFBA8E784
:101D3800666873690493B82204238DF851301692AB
:101D480013AB0FCB049D45F080050495049D756188
:101D58008DE80F0001258DF845504FF48075CDF8BA
:101D6800475000258DF84B5010AB0ECB384600F08D
:101D780059FBB9F1000F87D098E765686B6907933D
:101D8800079C8822042344F040048DF851301692B1
:101D980013AB07940FCB079C95E700BF00480040A2
:101DA8000010014000600240006402402DE9F0414B
:101DB800184E4768B74282B003D0002002B0BDE891
:101DC800F08108461C468846154600F029FB124B50
:101DD8009842F2D1A02601A94046019600F0B2FA35
:101DE8000E4A019601A9404600F00EFB2A4601A9B9
:101DF8004046019600F00EFB224601A94046019696
:101E080000F0FCFA404601A9019600F08DFA012085
:101E1800D4E700BF00440040006002400444004092
:101E28002DE9F041184E4768B74282B003D0002030
:101E380002B0BDE8F08108461C468846154600F009
:101E4800EFFA124B9842F2D1882601A94046019632
:101E580000F078FA0E4A019601A9404600F0D4FA3B
:101E68002A4601A94046019600F0D4FA224601A963
:101E78004046019600F0C2FA404601A9019600F0DA
:101E880053FA0120D4E700BF00440040006002403C
:101E980004440040704700BF1F2884B00CD8194A7A
:101EA800136801930199012303FA00F00843019094
:101EB800019B136004B07047A0F120031F2B0ED8BC
:101EC800114A136802930299012300F01F0003FAD4
:101ED80000F008430290029B136004B07047A0F121
:101EE80040031F2BE6D8094A13680393039901237B
:101EF80000F01F0003FA00F008430390039B1360EF
:101F080004B0704700E100E004E100E008E100E00F
:101F1800FEE700BFFEE700BFFEE700BFFEE700BF29
:101F2800FEE700BFFEE700BFFEE700BFFEE700BF19
:101F3800FEE700BFFEE700BFFEE700BFFEE700BF09
:101F4800FEE700BFFEE700BFFEE700BFFEE700BFF9
:101F5800FEE700BFFEE700BFFEE700BFFEE700BFE9
:101F6800FEE700BFFEE700BFFEE700BFFEE700BFD9
:101F7800FEE700BFFEE700BFFEE700BFFEE700BFC9
:101F8800FEE700BFFEE700BFFEE700BFFEE700BFB9
:101F9800FEE700BFFEE700BFFEE700BFFEE700BFA9
:101FA800FEE700BFFEE700BFFEE700BFFEE700BF99
:101FB800FEE700BFFEE700BFFEE700BFFEE700BF89
:101FC800FEE700BFFEE700BFFEE700BFFEE700BF79
:101FD800FEE700BFFEE700BFFEE700BFFEE700BF69
:101FE800FEE700BFFEE700BFFEE700BFFEE700BF59
:101FF800FEE700BFFEE700BFFEE700BFFEE700BF49
:10200800FEE700BFFEE700BFFEE700BFFEE700BF38
:10201800FEE700BFFEE700BFFEE700BFFEE700BF28
:10202800FEE700BFFEE700BFFEE700BFFEE700BF18
:10203800FEE700BFFEE700BFFEE700BFFEE700BF08
:10204800FEE700BFFEE700BFFEE700BFFEE700BFF8
:10205800FEE700BFFEE700BFFEE700BF00B50E4881
:102068000E4A904283B007D2013A121A22F00302B4
:102078000B49043200F0A8FF0A480B4A904207D2E5
:10208800013A121A22F003020432002100F0AAFFDA
:1020980001A8FFF7B5F8FEE7000000206C0000205B
:1020A800303400086C000020CC000020064A82B0C2
:1020B800136801930198012303FA01F10143019187
:1020C800019B136002B07047143C014030B4B1FB6F
:1020D800F2F2054D0548064B0024013A05212A6015
:1020E800046030BC1960704714E000E018E000E0BC
:1020F80010E000E00B781F2B84B00CD81E490A684A
:1021080000920098012202FA03F303430093009B14
:102118000B6004B070473F2B0ED818490A6801922B
:10212800203B01980122DBB202FA03F30343019337
:10213800019B0B6004B070475F2B0ED810490A68EA
:102148000292403B02980122DBB202FA03F30343F6
:102158000293029B0B6004B070470A490A68039215
:10216800603B03980122DBB202FA03F303430393B3
:10217800039B0B6004B0704730380240343802408B
:102188004038024044380240054A82B0136801933F
:10219800019B43F480330193019B136002B07047A5
:1021A80000380240024B1868C0F34040704700BF37
:1021B8000038024030B4134C84B020680390039870
:1021C800BDF81850000C00040390039820601B040D
:1021D80043EA81112368029341EA05631A43029B8B
:1021E800094942F480021A430292029B23600B6859
:1021F8000193019B43F080730193019B0B6004B032
:1022080030BC70470438024000380240F0B58DB049
:102218000F0E039116461D46C1F30722C1F307436B
:102228000097C9B2129CFFF7C5FF254801688B01CA
:10223800FCD4244933780A680A920A982D7820F049
:10224800F0000A900A9A0A600A680B920B9A42EA0E
:1022580003120B920B9B0B600B680893089A22F4ED
:10226800E0520892089B0B600B680993099B43EAAC
:1022780085230993099B0B600B680693069B23F43F
:1022880060430693069B0B6022780B680793079BB5
:1022980043EA42330793079B0B600B680493049B44
:1022A80023F003030493049B0B600B680593059BC1
:1022B80043F002030593059B0B600DB0F0BD00BF12
:1022C8000038024008380240054A82B0136801937A
:1022D800019B23F001030193019B136002B0704737
:1022E80000380240054B82B01A680192019A1143E6
:1022F8000191019A1A6002B0704700BF003C024089
:10230800024B186800F00700704700BF003C02400D
:10231800426882B013690193019B23F00103019382
:10232800019B136102B0704740680A6882B0835805
:102338000193019B43F001030193019B835002B079
:10234800704700BF42680B6882B0D158019101996B
:1023580001910199D15002B0704700BF0968127805
:10236800102982B03BD0202916D0402931D05829D5
:1023780021D08829406835D023DC402939DD7029EF
:1023880037D1C36800930099012393400B4300930E
:10239800009BC36002B070474168931D0831DAB2F0
:1023A8000B68019301980123934003430193019B18
:1023B8000B6002B07047416802F116030831DAB2C7
:1023C800EEE7A02911D0B82913D102F11603DAB229
:1023D800D7E7416802F110030831DAB2E0E7416853
:1023E8000831DDE7931DDAB2CBE702F11003DAB268
:1023F800C7E702F16303DAB2C3E700BF43680968BD
:102408000B445A60704700BF436809680B449A60E0
:10241800704700BF436809680B44DA60704700BF23
:102428004068704784B0F0B496B04068219C055964
:102438001595159D1595159D05511BAD85E80E0043
:102448000359149314999DF86C209DF86D309DF8EC
:102458006E5041EA42011491149A025102591392A2
:10246800139A42EA83021392139B0351035912935E
:10247800129B43EAC5031293129B0351035911930C
:10248800119E9DF86F509DF870109DF871209DF871
:1024980072309DF8737046EA05161196119D055124
:1024A80005591095109D45EA41151095109901514F
:1024B80001590F910F9941EA82110F910F9A025118
:1024C80002590E920E9A42EA03220E920E9B035173
:1024D80003590D930D9B43EA47230D930D9B03511D
:1024E80003590C930C9D9DF874109DF875209DF868
:1024F80076309DF877609DF878C045EA81250C957F
:102508000C99015101590B910B9941EAC2210B9188
:102518000B9A025102590A920A9A42EA43320A92E3
:102528000A9B035103590993099B43EAC63309934C
:10253800099B035103590893089E9DF879109DF84B
:102548007A209DF87B309DF87C7046EA0C46089608
:10255800089D055105590795079D45EA8145079549
:102568000799015101590691069941EAC24106911C
:10257800069A025102590592059A42EA4352059277
:10258800059B035103590493049B43EAC7530493DF
:10259800049B03519DF87D2003590393039D9DF8E7
:1025A8007E109DF87F309DF8806045EA426503956E
:1025B800039A0251204442690292029A11430291FD
:1025C800029A426142690192019A42EA83020192A7
:1025D800019B436143690093009B43EAC613009340
:1025E800009B436116B0F0BC04B0704700F0E4BC37
:1025F80030B500231A4610F8015B05F07F049440BB
:1026080023432C0602F10702F5D40B6030BD30B528
:1026180000231A4610F8014B04F07F0595402B4320
:10262800250602F10702F5D41F2A06D8640642BF20
:102638004FF0FF3404FA02F213430B6030BD502808
:102648002DE9F3410646884615461F4608D1033250
:1026580022F0030050F8044B3C6002B0BDE8F08162
:1026680000F00F030C2B2ED8DFE803F025071D25FB
:10267800292D2D2D2D182125290001A92846FFF7E0
:10268800B7FF019C002CE7D006F07003102B08BFA1
:10269800A8464444330648BF2468DDE701A9284614
:1026A800FFF7B5FFEDE7284630F8024BEAE7284682
:1026B80030F9024BE6E7284650F8044BE2E7284693
:1026C80050F8084BDEE700F06FFC08B50346FF2B17
:1026D800084610D003F07002302A12D007D8202AFA
:1026E8000BD002D813F0600F05D000F05DFC402A33
:1026F8000BD0502AF9D1002008BDBDE8084000F0F1
:1027080050BCBDE8084000F049BCBDE80840FEF7F1
:1027180099BC13B50C4601462046CDE90032FFF7B7
:10272800D4FFDDE900320146204602B0BDE8104082
:10273800FFF785BF73B50C461546064628B3FEF766
:1027480081FC034620462B6010F8011BFF291ED090
:1027580002462B1D3046FFF7DCFF10F8013B2B75B6
:10276800FF2B16D010232B7501A9FFF741FF019B02
:102778000344EB6010F8013B6B7501A9FFF738FFC4
:10278800019B03442B6102B070BD0346DAE76B601E
:10279800E3E70023EDE71FB503AB009300230A46E8
:1027A8001946FDF7CFFE039805B05DF804FB00005D
:1027B8002DE9F04F91B00023059300F00303012B9E
:1027C80006460C4617460ED0022B03D0002B3BD1F1
:1027D80001073BD539462046FEF71EFC90B3092079
:1027E80011B0BDE8F08F020706D40D6A38460D21F6
:1027F800FFF7D1FF85422BD00220002306F0080600
:102808000DF1280A0643CDF800A00C2219463846D7
:102818000A94FDF7BBFE062E1CD1D4F83080D4E90B
:102828000A59B8F1000F0CBF4FF0010B4FF0030B22
:1028380016F0080600F00C81BBF1010F40F004818E
:1028480000F064F90820CBE700F0AEFB0120D4E7E4
:102858000620D2E73846FEF7FBFB81460028B9D0B0
:10286800524601463846FFF765FF394605469DF84A
:102878003C00FFF72AFF0F210C903846FFF78BFF2B
:1028880020F0010808F1FF380E9BAB4240F2C480EB
:102898002A469DF83D1006AB0020FFF73AFF9DF849
:1028A8003D10024607AB0020FFF733FF08AB024696
:1028B8009DF83D100020FFF72CFF09A9FFF798FEAF
:1028C8000A9B069A13444345054601D90E9DDBE74A
:1028D800079A13444345D7D9DDF82080B8F1000F93
:1028E80001D00B9B9844099D15B10E98013D0544F4
:1028F800B8F1000F3FF46EAF002D00F0F78016F02E
:102908000803029334D0472323704E236370552362
:10291800A3704323E370462323714F23637152232B
:10292800A3710023E3714FF0000B07A92846FFF7B6
:102938006EFE08A90390FFF76AFE0799002968D080
:102948003ADD9DF83C00FF2832D000F00703042B45
:102958003FF67AAF01A252F823F000BFBD29000864
:10296800512800088B290008BD290008B52900084E
:10297800E379012B0CBF54F8203C04F1580305936C
:10298800D1E702250D9A09AB05FB11220C99FFF737
:1029980056FE099931B17CB305AB0022204600F000
:1029A800E9F848B3079D4FF0030B39E00825E9E73C
:1029B8000025E7E70425E5E7C1F17F5101F57F111F
:1029C8000D9B01F57F513F3103EB8105DCB1029A84
:1029D800CAB9059B0993043D55F8041F41B109ABD9
:1029E80000222944204600F0C5F80028F4D001212F
:1029F80081F001010029D5D1089D002D72D0039BDB
:102A08002B441D4691E753F82110B1FA81F1490989
:102A1800F0E74FF0010BEFE70025A8464FF0010B58
:102A2800F3077FF505AFBBF1020F3FF4D3AE0D21DD
:102A38003846059EFFF7AFFEC4E90A59C4E90806FF
:102A4800C4F830800620CBE6002D22DA00F070F8BA
:102A5800BBF1010F02D1204600F024F9002D18DA4D
:102A6800524649463846FFF765FE9DF83C00394610
:102A7800FFF72BFE0D9A0C90EB4302EB830353F800
:102A880026200AB10136FAE70422C4E90A60C4E93B
:102A98000C23002309AE1A461946009638460994B5
:102AA800FDF774FD00231946012200963846099562
:102AB800FDF76CFD0F213846FFF76DFE00F00100B1
:102AC80040EA08000023099000960F22194638466C
:102AD800FDF75CFDBBF1020F02D1204600F0A8F81B
:102AE80007207DE6BBF1000F3FF474AE4FF0020BF8
:102AF80096E700BF08B5804700F056FA024B186801
:102B0800BFF35B8F704700BF0400002008B5FFF7D4
:102B1800F5FFFFF7EFFF08B58047FFF7F7FF000065
:102B2800024B1868BFF35B8F704700BF000000209E
:102B380008B5FFF7F5FFFFF7EEFF0378472B17D12E
:102B480043784E2B14D18378552B11D1C378432B5E
:102B58000ED10379432B0BD143792B2B08D18379E1
:102B68002B2B05D1C07901288CBF0020012070478C
:102B7800002070472DE9F3411D460378472B0E4688
:102B88000246C17913D143784E2B10D18378552B47
:102B98000DD1C378432B0AD10379462B07D143794A
:102BA8004F2B04D18379522B01D1002931D0104603
:102BB800FFF7C3FF80F00100C0B200230024019496
:102BC80053BB58BB01290ABF52F8203CA2F120038D
:102BD800783B012908BF52F8202C1C6818BF5832CE
:102BE8000192236820469B689847C8B1019B1B68DF
:102BF80001930227336801AAD3F8108021460123E4
:102C08003046C04770B1019B2B60384602B0BDE822
:102C1800F08101230846D1E7034CE2E7034CE0E7E3
:102C28000127E7E70746F0E7CC310008D431000870
:102C380010B5044600F0A0F802462046A4F1200191
:102C4800FFF77BFF60B154F8043C0133012B44F8D3
:102C5800043C03D1936844F8083C9160012010BDFE
:102C68009368002BF9D0FFF751FF0378472B17D152
:102C780043784E2B14D18378552B11D1C378432B2D
:102C88000ED10379432B0BD143792B2B08D18379B0
:102C98002B2B05D1C07901288CBF0020012070475B
:102CA8000020704710B5044648B100F03BF82046B4
:102CB800FFF7DBFF18B154F8140CFFF71BFFFFF701
:102CC80025FF38B50246FFF7D0FF40B152F8184C3F
:102CD8000025104600F026F825B1FFF729FF044625
:102CE8000125F6E72046FFF716FF0378472B17D193
:102CF80043784E2B14D18378552B11D1C378432BAD
:102D08000ED10379432B0BD143792B2B08D183792F
:102D18002B2B05D1C07901288CBF002001207047DA
:102D28000020704738B5044600F026F805680246CA
:102D38002046A4F12001FFF7D8FF28B90DB1FFF70D
:102D4800E5FE1160284638BD54F80C3C002BB4BF92
:102D5800C3F10103013344F80C3C53688D4203F17D
:102D6800FF33536020461CBF44F8105C1160656A4D
:102D7800FDF7E0FBE6E7000000487047AC000020E4
:102D880010B5034B0360044600F0B2F8204610BDAE
:102D98005C32000810B50446FFF7F2FF20460C210C
:102DA80000F0FAF8204610BDF7B5089F974205468F
:102DB8000E4614460AD0A86802680897156A314674
:102DC8002246AC4603B0BDE8F0406047194601937F
:102DD80000F058F8019B0028EDD0062003B0F0BDA4
:102DE8002DE9F14F0D461946DDE90A4BDDE90CA640
:102DF80081461746984600F045F890B1002D34609A
:102E0800377109DB61198A450CBF06210121B171AF
:102E1800002001B0BDE8F08F0235F9D10123B3716C
:102E2800F6E7544506D15946484600F02BF808B154
:102E38007771EDE7D9F808000368CDE90CA6CDE96C
:102E48000A4BDC693A4643462946A44601B0BDE828
:102E5800F04F60472DE9F04107460C4615461E46DF
:102E680000F079F848B9B86803689F692A4633467C
:102E78002146BC46BDE8F0416047BDE8F081704797
:102E880000207047814208B50ED0406803782A2B8D
:102E98000CD049680B782A2B08BF0131FEF7E2F8FD
:102EA800B0FA80F0400908BD0120FCE70020FAE7ED
:102EB8007FB500241023CDE90234036800949E698D
:102EC8008DF8044015466B461268B0479DF80430EB
:102ED80003F00603062B03BF009B2B60012020464E
:102EE80004B070BD0098904214BF012006207047BE
:102EF80010B5034B03600446FFF7C1FF204610BD21
:102F0800D032000810B50446FFF7F2FF204608212A
:102F180000F042F8204610BD2DE9F0411F46DDE9DA
:102F28000834DDF8188098450646154607D10799F4
:102F3800FFF7A8FF18B165710020BDE8F081394698
:102F48003046FFF79FFF0028F6D00123C4F8008021
:102F58002571A371F0E738B515461C46FFF792FFB7
:102F680020B10823E36006232560237138BD73B5BB
:102F780005460C4601921E46FFF784FF50B9032E02
:102F880008D82368019A5B692946204602B0BDE843
:102F98007040184702B070BDFFF728BB08B500F0B5
:102FA80003F808B5FFF7FAFF08B5062000F09AF80D
:102FB800012000F0D1F80000024B0146186800F02B
:102FC80019B800BF080000200A44914200F1FF33FD
:102FD80000D1704710B511F8014B03F8014F914229
:102FE800F9D110BD02440346934200D1704703F85B
:102FF800011BF9E737B5002948D051F8043C019086
:10300800002BA1F10404B8BFE41800F087F8204AA7
:1030180001981368154633B96360146003B0BDE8BE
:10302800304000F081B8A3420BD92168621893425E
:1030380004BF1A685B68636004BF521822602C6082
:10304800ECE71A465B680BB1A342FAD91168551828
:10305800A5420BD1246821445418A3421160DDD144
:103068001C685B68536021441160D7E702D90C23C0
:103078000360D3E7256861198B4204BF19685B6850
:10308800636004BF491921605460C7E703B030BDCD
:10309800B80000201F2938B504460D4604D9162368
:1030A80003604FF0FF3038BD426C12B152F8213046
:1030B8004BB9204600F030F82A4601462046BDE8C4
:1030C800384000F017B8012B0AD0591C03D1162339
:1030D80003600120E7E7002442F825402846984786
:1030E8000020E0E7024B01461868FFF7D3BF00BF96
:1030F8000800002038B5074D00230446084611464D
:103108002B6000F021F8431C02D12B6803B1236027
:1031180038BD00BFBC00002000F00EB8014800F028
:1031280009B800BFC4000020014800F004B800BF7F
:10313800C400002070477047024B58221A604FF0B5
:10314800FF307047BC000020024B58221A604FF035
:10315800FF307047BC000020FEE70000F8B500BF54
:10316800F8BC08BC9E467047F8B500BFF8BC08BC60
:043178009E467047B8
:10317C00546573742055415254206D61696E0A0D6B
:10318C00000000005472616E736D697420646D618F
:10319C000A0D00005465737420636F757400000091
:1031AC0053746172740A0D0073747265616D350A23
:1031BC000D00000073747265616D360A0D0000001D
:1031CC00D0320008DC310008D0320008FC31000895
:1031DC004E31305F5F637878616269763131355F8B
:1031EC005F666F726365645F756E77696E644500C8
:1031FC004E31305F5F637878616269763131395F67
:10320C005F666F726569676E5F6578636570746918
:10321C006F6E45005C3200082C32000898320008B2
:10322C004E31305F5F637878616269763132305F3E
:10323C005F73695F636C6173735F747970655F69E9
:10324C006E666F4500000000000000002032000890
:10325C00892D00089D2D0008892E0008892E000854
:10326C00772F0008B92E00085D2E0008E92D000804
:10327C00B12D0008D032000888320008537439741C
:10328C007970655F696E666F000000005C32000843
:10329C00A4320008803200084E31305F5F637878CA
:1032AC00616269763131375F5F636C6173735F7430
:1032BC007970655F696E666F450000000000000064
:1032CC0098320008F92E00080D2F0008892E0008EE
:1032DC00892E0008772F0008B92E00085F2F0008F0
:0832EC00212F0008ED2E00085F
:1032F400C5F4FF7FB0AD2A00FFFF010008B10181D2
:10330400B0B0008400000000ADF4FF7FB0A803005B
:10331400FFFF010008B10181B0B00084000000008B
:0C33240008B10181B0B00084000000007E
:1033300098CEFF7F0100000028CFFF7FB0A9028058
:10334000BCCFFF7FB0B0A8800CD0FF7F0100000091
:1033500018D0FF7FB0B0AA804CD0FF7FAE71B28092
:1033600010D1FF7F010000000CD1FF7FAB3F388000
:1033700064D1FF7F0100000070D1FF7FB0B0AA8050
:10338000ACD1FF7F0100000054D2FF7FAB0EB280B2
:10339000C4D2FF7FB0AF088064D5FF7F010000007A
:1033A00068D5FF7FAD3F0280D8D7FF7F01000000C6
:1033B000B4D9FF7F00840480C8D9FF7F01000000DA
:1033C000C4D9FF7FB0AD048058DCFF7FB0A8038074
:1033D0007CDCFF7F44FFFF7F80DCFF7F48FFFF7FB7
:1033E0008CDCFF7F0100000020DEFF7F08FFFF7FF5
:1033F00034E0FF7F0100000050E0FF7FB0B0A88004
:1034000068E0FF7F0100000064E0FF7FF4FEFF7FC3
:1034100088E0FF7F0100000070E5FF7FF0FEFF7F86
:0834200094E6FF7F01000000AB
:04342800AD010008EA
:04342C00890100080A
:10343000152B0008B12F00080C0000200000000030
:10344000000000000000000000000000000000007C
:10345000000000000000000000000000000000006C
:10346000000000000000000000000000000000005C
:10347000000000000000000000000000000000004C
:10348000000000000000000000000000000000003C
:0C34900000000000000000000000000030
:040000050800018866
:00000001FF
