:020000040800F2
:1000000000000220951E0008DB1E0008E11E00080B
:10001000E71E0008ED1E0008F31E000800000000A7
:10002000000000000000000000000000F91E0008B1
:10003000FF1E000800000000051F00080B1F00083D
:10004000111F0008171F00081D1F0008231F0008AC
:10005000291F00082F1F000811120008351F000873
:100060003B1F0008411F0008471F00084D1F0008E4
:10007000531F0008591F00085F1F0008651F000874
:1000800021150008791500086B1F0008711F000872
:10009000771F00087D1F0008831F0008891F0008C4
:1000A0008F1F0008951F00089B1F0008A11F000854
:1000B000A71F0008AD1F0008B31F0008B91F0008E4
:1000C000BF1F0008C51F0008CB1F0008D11F000874
:1000D000D71F00083112000835120008DD1F000884
:1000E000E31F0008E91F0008EF1F0008F51F0008C4
:1000F000FB1F000801200008072000080D20000851
:1001000013200008192000081F20000825200008DF
:100110002B20000831200008591200083720000861
:100120003D20000843200008492000084F20000817
:10013000552000085B2000086120000867200008A7
:100140006D2000087320000879200008551200086F
:100150007F200008852000088B20000891200008DF
:10016000972000089D200008A3200008A92000086F
:10017000AF200008B5200008BB20000800000000E8
:08018000C1200008C72000089F
:1001880010B5054C237833B9044B13B10448AFF3C9
:1001980000800123237010BD6C00002000000000C7
:1001A8004435000808B5034B1BB103490348AFF3B6
:1001B800008008BD000000007000002044350008E1
:1001C80003685A004CBF43F0004323F0004318442F
:1001D800704700BF2DE9F84329B34F1E0446154662
:1001E8003E464FF0000808EB060101EBD1714910BB
:1001F80004EBC1094846FFF7E3FF0346C80008308F
:100208008F42204409D0AB4209D8FFF7D9FF013803
:10021800A8420AD201F10108E5E7AB4205D98845B1
:1002280001D04E1EDFE74FF000094846BDE8F883CD
:10023800012807D0022807D0044B00280CBF184615
:10024800002070470248704702487047FD080008C0
:10025800010900080509000830B5234B83B004469E
:100268008D1E3BB301A92846AFF30080E8B1019980
:100278002A46FFF7AFFF0146B8B1FFF7A1FF4B6869
:10028800A064012B2BD0002B01F1040023DBFFF726
:1002980097FF0023C4E913030368002B10DBFFF763
:1002A8008FFF2061002003B030BD002309202361A7
:1002B80003B030BD0D490E48091AC9100191D7E79E
:1002C800C3F30360FFF7B4FF0028206114BF0020C8
:1002D800092003B030BD0123C4E91303DCE7002380
:1002E80023610520DFE700BF000000006C3800082C
:1002F800643700080368DA0710B5044606D49B077C
:1003080000F1480009D500F04BFC2368590709D5CE
:100318001A070ED5DB0613D510BD00F039FC23688B
:100328005907F5D404F1D00000F042FC23681A07FD
:10033800F0D404F5A87000F043FC2368DB06EBD486
:1003480004F5E870BDE8104000F07EBC0346006884
:1003580000B11844704700BF09207047704700BFBC
:1003680070B504460E46316C2046FFF775FF05460A
:1003780088B9336C63613246236921460120984766
:100388000828F0D0072806D12846316CFFF7E6FF89
:10039800301D00F0F1FB02F07FFF00BF2DE9F047B0
:1003A8000D1D064614460FCDADF5727D0DF10C0CF2
:1003B800ACE80F000FCDACE80F000FCDACE80F0094
:1003C80095E80F0002ADF768D6F818808CE80F00A2
:1003D80000232B6021E02B6C73614FF4F0722946E7
:1003E8007AA802F071FF33697AAA314650469847D5
:1003F800889BCDE9005821466B64814633463246D6
:100408000120B8470446E8B94FF4F0727AA92846A3
:1004180002F05AFFB9F1080F1BD1296C3046FFF7DB
:100428001BFF09345FFA84FA81460028D3D0AB6BEE
:100438004AF01001CDE9005832466B64012033467A
:10044800B84708B14FF0090948460DF5727DBDE877
:10045800F087B9F1070FF5D12046296CFFF77EFF29
:1004680003A800F089FB00BF406C7047F0B5CB6B68
:100478000B640E1D0F4605460FCEF9B001AC0FC434
:100488000FCE0FC40FCE0FC496E80F004FF0FF3603
:1004980084E80F00009606E02B696A4629469847CB
:1004A8000828044608D110992846FFF7D5FE0028E9
:1004B800F2D0092079B0F0BD6846FFF71BFF062C83
:1004C800F7D139462846FFF74BFF00BF30B4DD6B44
:1004D800C160826119461D64002230BC5EE700BF1E
:1004E80070B5C66843690B64AEB903690A46044629
:1004F8000D46014602209847072805D008280FD145
:1005080029462046FFF72CFF3046296CFFF726FFC7
:10051800281D00F031FB0122FFF740FF02F0BCFE6E
:1005280002F0BAFEC2681AB1CA6B0A64002235E743
:100538009CE700BF704700BF836801460BB10120EC
:1005480018477047012912D009D873B90F2A0CD857
:1005580000EB820218465368009A1360704703390B
:10056800012994BF012002207047022070470846E5
:10057800704700BF10B584B0002303AC0A4600944E
:100588001946FFF7DFFF039804B010BD012912D008
:1005980009D873B90F2A0CD800EB8200009A1268A8
:1005A8004260184670470339012994BF0120022090
:1005B8007047022070470846704700BF10B584B0E6
:1005C800002303AC039200940A461946FFF7DEFFA6
:1005D80004B010BDF0B5D36B1364151D8C460646E8
:1005E8000FCDADF50F7D17AC0FC40FCD0FC40FCDD8
:1005F8000FC495E80F004FF0FF3784E80F006546F9
:10060800169710E0FFF7DAFF294616A8B047034609
:1006180016AA6946082083B9049B9847052804460A
:100628000CD0092809D026996846FFF715FE03461D
:100638006A460C2116A8002BE4D0092416A8FFF757
:1006480059FE20460DF50F7DF0BD00BF2DE9F04F96
:10065800CC6C89B00D4654F8041B0694174600F07C
:1006680003081E46002B79D00B0CDAB209048DF86A
:100678001D30022304EB820405918DF81C302B6D8C
:10068800B8F1020F08BFAC6B13F001030CD0384669
:1006980005A900F073FB18B9082009B0BDE8F08F70
:1006A800092009B0BDE8F08FD4F800A0BAF1000F16
:1006B800EDD0019300F008030293022E4AD0B4F85B
:1006C80000A0B4F802900434AA6C29F0010B0F21A1
:1006D80038469344FFF74EFF834539D82AF0010284
:1006E8005A44824294BF002001204FEA490303F094
:1006F80002030AF0010A43EA0A03012B49D0022B3C
:1007080032D0002BCCD1B8F1000F02D0002840F035
:10071800CD800434D4F800A0BAF1000FCDD105A9DA
:10072800384600F02BFB0028BAD1019B002BB3D030
:100738000F213846FFF71EFF0E2102463846FFF705
:100748003DFF38466A4A0F21FFF738FF0720A8E720
:100758000020CAE7D4F804900834B5E70902032357
:100768000591ADF81C308AE7236823F0004BB8F1F7
:10077800000F45D128B1029A002A5CD0BBF1000FC6
:1007880074D0002B00DA04340BF1010B04EB8B045A
:10079800C0E7B8F1000F19D1B0B1D4E90023991C12
:1007A8004FEAD2723FF47CAF05F15801013304914E
:1007B80000F09080201DFFF7C9FD04AB01462846D4
:1007C80002F036FB00285BD10834A3E70D21384638
:1007D800D5F82090FFF7CEFE8145F5D1AB6A9C4253
:1007E800F2D12046FFF7ECFC0F2102463846FFF70E
:1007F800E5FE38462A460021FFF7E0FE072050E7CD
:100808000D213846D5F82090FFF7B4FE814501D078
:100818002368B6E7AB6A9C42FAD104220021C5E9F5
:100828000B12A318C5F828B06B6323688B4259DBF9
:1008380001230193A8E705F15803CDF80C8004F1D2
:10084800040AB04691461E460DE00496FFF77EFD69
:1008580004AB01460022284602F0EAFA09F1010930
:100868000AF1040AE8B9D9455046EED138460D21B7
:10087800FFF780FE049B2862C5E90934062010E7CB
:1008880081460D213846FFF775FEB9F1020F28623F
:1008980025D12B46049A43F82C2F6B62AC620620B4
:1008A800FFE646462368DDF80C806AE72046FFF736
:1008B80087FC04340246AC632846144602F016FB53
:1008C80000283FF4EDAE384622460F21FFF776FEAA
:1008D8000720E6E638460D21FFF74CFE2862049B08
:1008E8006B62DBE70BF1010004EB80007AE700BFE5
:1008F800872F00080023A9E60123A7E60223A5E61F
:100908002DE9F0430646C3B015461C46042900F2FB
:10091800B980DFE801F09A53B7290300002C40F0B2
:10092800B180102A00F2AE800368D80600F1F38087
:1009380020AF384600F092F9B06B0023012404FA86
:1009480003F22A42014604D051F8042B47F8232029
:1009580008460133042BF2D1B063384600F074F92D
:10096800002043B0BDE8F083032C40F08B8094B2A4
:1009780004EB1243102B4FEA124500F28380036800
:100988001F0700F1D08020AF384600F03BF907EB95
:10099800C501B56B54B10B46E81A01EBC401E4007C
:1009A8001A5843F8042B8B42FAD125443846B563CC
:1009B80000F006F9002043B0BDE8F083012C4FEAAF
:1009C800124895B25AD0052C5CD108EB0509B9F14B
:1009D800200F57D8B8F10F0F77D9A946002D40F04E
:1009E8008880B36B6DB320AF4FF0000907EBC807E1
:1009F800043F03EBC50553F8041B47F8041FAB423B
:100A0800F9D1B9F1000F0FD06F464146102938BF10
:100A1800102107EBC101843903EBC90553F8040B16
:100A280041F8040FAB42F9D1012C00F08480B8F1F1
:100A38000F0FB56345D9B9F1000F02D0684600F031
:100A4800B7F8002043B0BDE8F083DCB9876B2346D4
:100A5800012094B206F1040C00FA03F2224239464E
:100A680004D051F8042B4CF823200F460133102BE7
:100A7800F2D115F40050E4D1B76304E008EB0503A4
:100A8800102B03D9022043B0BDE8F083B8F10F0F53
:100A9800F8D83368DA0706D5304623F0030340F860
:100AA800483B00F079F820AF384600F075F8B36B92
:100AB800002D99D11D460435B563384600F068F815
:100AC800BFE720A800F06CF8B5E7B9F1100F40D9DE
:100AD800A9F110093368D90708D523F00103304676
:100AE80043F0020340F8483B00F05EF8B9F1000F0C
:100AF80032D033685A0720D4B8F10F0F25D96F4682
:100B08003846C8F1100500F057F8002DB36B7FF791
:100B18007CAF20AF6AE723F01003336006F5E87076
:100B280000F09CF804E723F00803036000F5A870C0
:100B380000F068F827E720AFBDE7304623F004034C
:100B480040F8D03B00F038F8D6E720A800F02CF8A1
:100B5800D5E74FF00009BDE7B8F10F0F3FF641AFF9
:100B680020AF384600F020F8B36B002D7FF43CAF7F
:100B7800384600F015F864E700F1340191E83800D0
:100B88009C46A6464CF8045D90E8FF0FE54600BD7C
:100B980090EC210B704700BF80EC210B704700BF21
:100BA80090EC200B704700BF80EC200B704700BF13
:100BB800D0EC200B704700BFC0EC200B704700BF83
:100BC800F0EC0201F0EC0211F0EC0221F0EC023141
:100BD800F0EC0241F0EC0251F0EC0261F0EC027131
:100BE800F0EC0281F0EC0291F0EC02A1F0EC02B121
:100BF800F0EC02C1F0EC02D1F0EC02E1F0EC02F111
:100C0800704700BFE0EC0201E0EC0211E0EC0221C9
:100C1800E0EC0231E0EC0241E0EC0251E0EC026170
:100C2800E0EC0271E0EC0281E0EC0291E0EC02A160
:100C3800E0EC02B1E0EC02C1E0EC02D1E0EC02E150
:100C4800E0EC02F1704700BFB0FC0181B0FC0191FB
:100C5800B0FC01A1B0FC01B1704700BFA0FC01814C
:100C6800A0FC0191A0FC01A1A0FC01B1704700BF4C
:100C7800EC4600B52DE900502DE9FF1F4FF00003A9
:100C88002DE90C0001A9FFF7F1FBDDF840E012B0F7
:100C9800704700BFEC4600B52DE900502DE9FF1F55
:100CA8004FF000032DE90C0001A9FFF719FCDDF84E
:100CB80040E012B0704700BFEC4600B52DE9005087
:100CC8002DE9FF1F4FF000032DE90C0001A9FFF7E4
:100CD80029FCDDF840E012B0704700BFEC4600B5D3
:100CE8002DE900502DE9FF1F4FF000032DE90C00FE
:100CF80001ABFFF7EBFBDDF840E012B0704700BF37
:100D0800EC4600B52DE900502DE9FF1F4FF0000318
:100D18002DE90C0001AAFFF75DFCDDF840E012B0F8
:100D2800704700BF027A7AB9437AA3B14268013B9F
:100D380010B4437213680321141D01721A0244602F
:100D4800026010BC180E70470368013A02721A025A
:100D58000260180E7047B020704700BF00B585B01C
:100D680003AA0023009219460C22FFF7EBFB039815
:100D780005B05DF804FB00BFF0E700BF2DE9F043C4
:100D8800054685B00E464FF000083046FFF7CAFF0B
:100D9800B028044600F0B280070620D500F0F00322
:100DA800802B4DD0902B36D0A02B60D0B02B74D098
:100DB800C02B00F08B8000F0F803D02B0BD100F093
:100DC8000702013242F40022052301212846FFF7D9
:100DD80097FD0028D9D0092005B0BDE8F0830DF1B2
:100DE8000C09002319468700CDF800900D222846EB
:100DF800FFF7A8FBFFB2039BCDF80090043760060D
:100E08004CBFDF1BFF18002319460D222846039705
:100E1800FFF7BCFBB9E700F00D030D2BDBD003AFE8
:100E2800002300F00F02194600972846FFF78AFBB7
:100E38000023009719460D222846FFF7A7FBA4E7D1
:100E48003046FFF76FFF24022043B0F5004FC2D0B1
:100E580004010023A2B219462846FFF751FD0028D5
:100E6800B9D114F4004F18BF4FF001088DE7C24301
:100E780002F007034FF47F621A41010702F47F6210
:100E88004FF0000348BF42F4804219462846FFF756
:100E980037FD00283FF479AF9DE7B12833D0B22859
:100EA80000F08B80B32839D000F0FC03B42B92D02B
:100EB80000F007020132012342F4002219462846B5
:100EC800FFF71EFD00283FF460AF84E7C62842D034
:100ED800C7284CD000F0F803C02B5BD0C82860D0DE
:100EE800C9287FF478AF3046FFF71CFF020300F0F3
:100EF8000F0002F470220130024365E7B8F1000FD9
:100F080018D0002068E73046FFF70CFF024600289B
:100F18003FF461AF10F0F003D0D05CE73046FFF744
:100F280001FF010300F00F0001F47021421C0123AE
:100F38000A43C3E703AC43460E22414600942846C1
:100F4800FFF700FB0094284643460F224146FFF76F
:100F58001DFB404640E73046FFF7E4FE010300F082
:100F68000F0001F47021421C03230A43A6E7304610
:100F7800FFF7D8FE024600283FF42DAF10F0F0032B
:100F88007FF429AF04212846FFF7BAFC00283FF474
:100F9800FCAE20E700F00F020132032342F42022C6
:100FA8008CE73046FFF7BEFE00F0F00200F00F03BA
:100FB8001032013343EA023206E700230DF10C092F
:100FC8000D221946CDF800902846FFF7BBFA3046A7
:100FD800FFF7A8FE02064FF002070CD5039B00F0AE
:100FE8007F00B840034430460393FFF79BFE030697
:100FF80007F10707F2D4039BCDF8009000F07F04B7
:1010080003F50172BC400023144419460D222846FA
:101018000394FFF7BBFAB8E610B5C26C84B0536806
:1010280003248DF80C401B0202F108040846D2790B
:10103800019301A902948DF80D20FFF79FFE04B0DB
:1010480010BD00BF08B5FFF797FE806C08BD00BF54
:1010580008B5FFF791FEC06CC379023300EB83003B
:1010680008BD00BF10F8012B11F8013B012A28BF69
:101078009A42F7D0D01A7047034613F8012B002A7A
:10108800FBD1181A0138704730B58DB004460D46AB
:101098000B680360574A934256D00AD8564A93427F
:1010A8000CD002F5F41202F59062934207D15B0866
:1010B80005E0524A934202D19B0800E05B08636056
:1010C8002B684C4A934243D04C4A934242D04C4AF4
:1010D80093423BD0A3602B68E360052103A801F08D
:1010E80061F903A801F06CF90528FAD1204601F04E
:1010F800D7F8204601F0E2F80028FAD0204601F09F
:10110800E5F82B683B4A93425DD025D83A4A93428A
:101118003BD002F5F41202F5906293424AD10023C3
:101128008DF81D3004238DF81E308DF81F300DF119
:101138001F0300930DF11E030DF11D02314949688B
:10114800204601F009F935E09B08B8E75B08C1E7DC
:101158005B08BFE75B08BDE7284A93422AD1002312
:101168008DF82D3005238DF82E3004238DF82F307F
:101178000DF12F0300930DF12E030DF12D022149DE
:10118800C968204601F0E8F814E008238DF8153006
:1011980004238DF8163000238DF817300DF117034E
:1011A80000930DF116030DF1150216490968204642
:1011B80001F0D2F84FF47A72E168204600F0F0FFAF
:1011C80020460DB030BD00238DF8253005238DF85D
:1011D800263004238DF827300DF1270300930DF1F5
:1011E80026030DF1250207498968204601F0B4F865
:1011F800E0E700BF00E1F505006CDC02007A030AB5
:1012080080F0FA025C35000800B583B0002101A81F
:1012180000F058FF034A13680133136003B05DF808
:1012280004FB00BF8C0000207047000010B5054C7F
:101238000521206800F06EFC206800F04BFC024B92
:10124800187010BDA800002088000020704700001A
:1012580008B50C21064B186800F03EFB054B1868D2
:1012680001F0B6F8044A13680133136008BD00BFE3
:1012780098000020A40000208C00002070B582B0E7
:1012880005460E4661B1941B01940F2C0DD82868B1
:10129800012C13D0A4B12246314602F015F80FE014
:1012A8009142F0D00A4801F07DFD002201A92846AC
:1012B80001F07EFD2860019BAB60E8E7337803709E
:1012C800019B6B602A680021D15402B070BD00BF39
:1012D8009035000838B5044600F1080303600D4650
:1012E80059B10846FFF7C8FE2A184FF000032946EF
:1012F8002046FFF7C3FF204638BD4A1EF5E7000029
:1013080070B5B2B0764B2A9326AC2AA92046FFF7CF
:10131800BBFE4FF47002734B1A6024AD724A21462B
:10132800284600F0BFF9714B1D602294704B23933F
:1013380051238DF8C7300DF1C701204600F086FF14
:1013480022AC0021204600F00BFB229B5A684FF488
:10135800E131204600F096FB0021204600F036FBE4
:101368000121204600F049FB0121204600F05CFBEA
:101378000121204600F06FFB5E4B1C6005212046D2
:1013880000F0D4FB1DAD5C4E0FCE0FC533682B703B
:101398000025ADF885508DF8875010221DA92046EC
:1013A80000F0A0FB19AE2146304600F00DF9534B72
:1013B8001E6031AA52492BA8FFF78CFF2BA9304693
:1013C80000F010F9294600F055F92B982DAB9842FA
:1013D80001D001F03EFA279919A800F019F9002167
:1013E80000F048F9289919A800F012F9002100F036
:1013F80041F9299919A800F00BF9002100F03AF9F0
:101408000122114624A800F04EFA0122114624A810
:1014180000F03FFA18A800F0FBFC362000F0FAFCB8
:10142800262000F0F7FC102000F0F4FC112000F05A
:10143800F1FC344A16AB92E8030083E80300072264
:10144800194622A800F04EFB26A814902E4B15939F
:1014580015238DF8C6300DF1C60100F0F7FE14AE65
:101468002A4B1E6000238DF834308DF835308DF806
:10147800363001228DF837208DF838308DF83A3023
:101488008DF840308DF841308DF842308DF843307A
:101498008DF844308DF846308DF847208DF8483067
:1014A800069205926C460FAD0FCD0FC42B682360D2
:1014B8000E9B0D9A314622A800F074FB09AC144B20
:1014C8000FCB84E80F000E232246314622A800F0F5
:1014D8002BFC05230F4A314622A800F05FFCFEE7EB
:1014E800007A030A88ED00E000000240980000201E
:1014F80000440040A80000206C350008900000203F
:10150800BC350008C835000800600240940000207F
:10151800803500089C00002030B589B0114B1D684B
:1015280002AC0094104A4FF00003A2F1090168468A
:10153800FFF7A4FE6946284600F054F80098A04238
:1015480001D001F086F98823069305238DF81F3012
:101558000DF11F0206A9054B186801F034F809B00F
:1015680030BD00BF90000020D9350008940000204D
:1015780030B589B0114B1D6802AC0094104A4FF089
:101588000003A2F109016846FFF778FE694628467C
:1015980000F028F80098A04201D001F05AF9A023E1
:1015A800069305238DF81F300DF11F0206A9054B80
:1015B800186801F008F809B030BD00BF900000209D
:1015C800E53500089400002010B40024024602F813
:1015D800014BC0F801405460C2F80740C1605DF893
:1015E800044B704770B504460D6804E03146E06866
:1015F80000F06DFA01352E7823789E4205D0E06818
:1016080000F06BFA0028FAD0F0E7204670BD000021
:1016180070B50446421C0B23002B04DD002002F8A1
:10162800010B013BF8E70A22013A114BA3FB010326
:10163800DB08184603EB8303A1EB43033033A518FB
:101648006B700B460146092BEED800250BE0631999
:101658005E78E06800F041FA0028FAD03146E06888
:1016680000F035FA01350A2DF1D9204670BD00BFCA
:10167800CDCCCCCC10B5044609B1204610BDE068ED
:1016880000F02BFA0028FAD00A21E06800F01FFACF
:10169800E06800F022FA0028FAD00D21E06800F096
:1016A80016FAEAE710B584B004460846216062607D
:1016B800354B9A4250D00ED9344B9A425BD029D937
:1016C800334B9A423DD108238DF80F300DF10F01AD
:1016D80000F0BCFD35E0A3F500639A4234D00AD986
:1016E8002C4B9A422DD103238DF80A300DF10A01B3
:1016F80000F0ACFD25E0A3F500639A421AD003F58B
:1017080080639A421DD101238DF8083002A900F0A8
:101718009DFD16E0A3F500639A4225D003F580638A
:101728009A420ED106238DF80D300DF10D0100F00F
:101738008DFD06E000238DF807300DF1070100F05C
:1017480085FD204604B010BD02238DF809300DF147
:10175800090100F07BFDF4E704238DF80B300DF14F
:101768000B0100F073FDECE705238DF80C3003A99D
:1017780000F06CFDE5E707238DF80E300DF10E0142
:1017880000F064FDDDE700BF00100240001C0240CD
:1017980000200240000C024082B04368490002FA6F
:1017A80001F19A680192019A0A430192019A9A609A
:1017B80002B0704782B0436802FA01F15A68019298
:1017C800019A0A430192019A5A6002B0704782B0A6
:1017D8004368490002FA01F1DA680192019A0A4362
:1017E8000192019ADA6002B0704782B007290CD8DA
:1017F8004368890002FA01F11A6A0092009A1143BB
:101808000091009A1A6202B070474368083989004B
:1018180002FA01F15A6A0192019A11430191019A5F
:101828005A62F0E730B482B045684900032303FAEE
:1018380001F42B680193019B23EA04030193019BA4
:101848002B6043688A401968009100990A43009206
:10185800009A1A6002B030BC704782B04268012317
:101868008B40916901919BB201990B430193019BB4
:10187800936102B0704782B0426801238B4091693E
:101888000191019941EA03410191019B936102B0E1
:10189800704708B522B1012A01D1FFF7DEFF08BD64
:1018A800FFF7E9FFFBE738B504460D46FFF7BAFF37
:1018B80029462046FFF7DFFF032229462046FFF787
:1018C8006BFF002229462046FFF774FF00222946B5
:1018D8002046FFF77CFF38BD08B543685A690123E5
:1018E8008B401A4203D00022FFF7D3FF08BD012224
:1018F800FFF7CFFFFAE72DE9F04184B00546174618
:101908001C469DF828609DF82C800A46016802A8AC
:10191800FFF7C8FE0222214602A8FFF783FF032231
:10192800214602A8FFF738FF4246214602A8FFF7E2
:101938005CFF3A4629686846FFF7B4FE0222314642
:101948006846FFF76FFF032231466846FFF724FF1A
:10195800424631466846FFF748FF04B0BDE8F081CB
:1019680000B583B003290CD8DFE801F0020E182275
:101978001449072301930323009302230A46FFF720
:10198800BAFF03B05DF804FB072301930623009315
:1019980002230D4A0B49FFF7AEFFF2E70723019335
:1019A800032300930523074A0749FFF7A4FFE8E745
:1019B8000549072301930623009305230A46FFF7E9
:1019C8009AFFDEE700000240000C024082B051B9E5
:1019D8004268D3680093009B23F480530093009BD4
:1019E800D36002B070474268D3680193019B43F407
:1019F80080530193019BD360F3E782B051B94268E9
:101A0800D3680093009B23F004030093009BD360EA
:101A180002B070474268D3680193019B43F0040306
:101A28000193019BD360F3E782B051B94268D36850
:101A38000093009B23F008030093009BD36002B03F
:101A480070474268D3680193019B43F008030193F0
:101A5800019BD360F3E782B051B94268D368009321
:101A6800009B23F400530093009BD36002B070479F
:101A78004268D3680193019B43F400530193019B8F
:101A8800D360F3E706EE902AF8EE666A090107EEDE
:101A9800901AB8EE677AC6EE877ABCEEE77A17EE48
:101AA800103A9BB207EE103AB8EE477A77EEC77A4B
:101AB800B3EE007A67EE877AFCEEE77A416817EEB4
:101AC800902A02F00F0242EA03138B6070474368C2
:101AD8005960704743681879704743681868C0F3BD
:101AE800C01070472DE9F04104468846002507E0FC
:101AF8006F1C18F805102046FFF7E9FF3D463246EF
:101B0800561E2AB12046FFF7E8FF0028FAD0EFE773
:101B1800BDE8F08182B0426813680193019B23F409
:101B280000730193019B136002B0704782B0426852
:101B380001238B40D1680191019919430191019BBF
:101B4800D36002B0704782B051B9426853690093BC
:101B5800009B23F080030093009B536102B0704701
:101B6800426853690193019B43F080030193019BF1
:101B78005361F3E782B051B9426853690093009BFF
:101B880023F040030093009B536102B07047426802
:101B980053690193019B43F040030193019B5361F7
:101BA800F3E7000082B0F0B585B00D460AA981E8D8
:101BB8000C009DF844709DF848604368574A93426A
:101BC80000F0A780044602F54842934209D0A2F5E6
:101BD8004C42934250D0002005B0BDE8F04002B01E
:101BE8007047284600F043FD4D4B984201D0002035
:101BF800F2E717B90EBB0120EEE7B82310930423D0
:101C08008DF8393000238DF82F3001218DF83010F0
:101C18008DF82D108DF831308DF832308DF8333045
:101C28002046FFF790FF0DAB0FCB8DE80F000AABF6
:101C38000ECB284600F01DFDDCE704238DF8393073
:101C480000238DF82F3001218DF830108DF82D30BC
:101C58008DF831308DF832308DF833302046FFF76B
:101C680089FF0DAB0FCB8DE80F000AAB0ECB2846D2
:101C780000F0FFFC3046AFE7284600F0F8FC294B9F
:101C8800984201D00020A7E717B90EBB0120A3E7AF
:101C9800A023109304238DF8393000238DF82F30BA
:101CA80001218DF830108DF82D108DF831308DF818
:101CB80032308DF833302046FFF745FF0DAB0FCBA0
:101CC8008DE80F000AAB0ECB284600F0D2FCDCE70B
:101CD8008823109304238DF8393000238DF82F3092
:101CE80001218DF830108DF82D308DF831308DF8B8
:101CF80032308DF833302046FFF73CFF0DAB0FCB69
:101D08008DE80F000AAB0ECB284600F0B2FC304637
:101D180062E7284600F0ABFC00205DE70048004081
:101D28000064024000600240F0B587B0446818487B
:101D3800844202D0002007B0F0BD0F4616461D466B
:101D4800084600F094FC134B984201D00020F2E7BB
:101D5800A024019401A9384600F05EFC02940E4AC2
:101D680002A9384600F069FC0394324603A93846B4
:101D780000F068FC04942A4604A9384600F058FC90
:101D8800059405A9384600F03AFC0120D3E700BFC6
:101D9800004400400060024004440040F0B587B0B1
:101DA80044681848844202D0002007B0F0BD0F46AE
:101DB80016461D46084600F05AFC134B984201D0BF
:101DC8000020F2E78824019401A9384600F024FC99
:101DD80002940E4A02A9384600F02FFC03943246BA
:101DE80003A9384600F02EFC04942A4604A9384674
:101DF80000F01EFC059405A9384600F000FC0120FF
:101E0800D3E700BF004400400060024004440040A3
:101E18007047000084B01F280DD800F01F00012370
:101E28008340174A11680191019818430190019B5A
:101E3800136004B07047A0F12003DBB21F2B0CD84D
:101E480000F01F00012383400E4A11680291029896
:101E580018430290029B1360EBE7A0F14003DBB24A
:101E68001F2BE6D800F01F0001238340064A1168A3
:101E78000391039818430390039B1360D9E700BFAD
:101E880000E100E004E100E008E100E000B583B013
:101E98000A4B0B4A0B498B4204D252F8041B43F8F5
:101EA800041BF7E7084B094A934203D2002243F880
:101EB800042BF8E701A8FFF723FAFEE7000000204B
:101EC800743800086C0000206C000020D800002046
:101ED800FEE708B5FFF7FCFF08B5FFF7F9FF08B5FF
:101EE800FFF7F6FF08B5FFF7F3FF08B5FFF7F0FFB8
:101EF80008B5FFF7EDFF08B5FFF7EAFF08B5FFF7EC
:101F0800E7FF08B5FFF7E4FF08B5FFF7E1FF08B5FD
:101F1800FFF7DEFF08B5FFF7DBFF08B5FFF7D8FFCF
:101F280008B5FFF7D5FF08B5FFF7D2FF08B5FFF7EB
:101F3800CFFF08B5FFF7CCFF08B5FFF7C9FF08B515
:101F4800FFF7C6FF08B5FFF7C3FF08B5FFF7C0FFE7
:101F580008B5FFF7BDFF08B5FFF7BAFF08B5FFF7EB
:101F6800B7FF08B5FFF7B4FF08B5FFF7B1FF08B52D
:101F7800FFF7AEFF08B5FFF7ABFF08B5FFF7A8FFFF
:101F880008B5FFF7A5FF08B5FFF7A2FF08B5FFF7EB
:101F98009FFF08B5FFF79CFF08B5FFF799FF08B545
:101FA800FFF796FF08B5FFF793FF08B5FFF790FF17
:101FB80008B5FFF78DFF08B5FFF78AFF08B5FFF7EB
:101FC80087FF08B5FFF784FF08B5FFF781FF08B55D
:101FD800FFF77EFF08B5FFF77BFF08B5FFF778FF2F
:101FE80008B5FFF775FF08B5FFF772FF08B5FFF7EB
:101FF8006FFF08B5FFF76CFF08B5FFF769FF08B575
:10200800FFF766FF08B5FFF763FF08B5FFF760FF46
:1020180008B5FFF75DFF08B5FFF75AFF08B5FFF7EA
:1020280057FF08B5FFF754FF08B5FFF751FF08B58C
:10203800FFF74EFF08B5FFF74BFF08B5FFF748FF5E
:1020480008B5FFF745FF08B5FFF742FF08B5FFF7EA
:102058003FFF08B5FFF73CFF08B5FFF739FF08B5A4
:10206800FFF736FF08B5FFF733FF08B5FFF730FF76
:1020780008B5FFF72DFF08B5FFF72AFF08B5FFF7EA
:1020880027FF08B5FFF724FF08B5FFF721FF08B5BC
:10209800FFF71EFF08B5FFF71BFF08B5FFF718FF8E
:1020A80008B5FFF715FF08B5FFF712FF08B5FFF7EA
:1020B8000FFF08B5FFF70CFF08B5FFF709FF08B5D4
:1020C800FFF706FF82B001238B40054A1168019192
:1020D800019919430191019B136002B0704700BF39
:1020E800143C014082B00A4B1A680192019A22F00E
:1020F800F0020192019A1A6009781A680092009A0F
:1021080042EA01120092009A1A6002B0704700BFBA
:102118000838024082B00A4B1A680192019A22F4E8
:10212800E0520192019A1A6009781A680092009A9E
:1021380042EA81220092009A1A6002B0704700BFFA
:102148000838024082B00A4B1A680192019A22F4B8
:1021580060420192019A1A6009781A680092009AFE
:1021680042EA41320092009A1A6002B0704700BFFA
:102178000838024082B0094B1A680192019A22F08D
:1021880003020192019A1A601A680092009A114398
:102198000091009A1A6002B0704700BF08380240E8
:1021A800B1FBF2F10139044B1960002204331A60C3
:1021B8000522083B1A60704714E000E082B00A78F4
:1021C800012303FA02F205490B680193019B1343AB
:1021D8000193019B0B6002B0704700BF303802408A
:1021E80082B00A78012303FA02F205490B680193C9
:1021F800019B13430193019B0B6002B0704700BF22
:102208003438024082B00A78012303FA02F2054901
:102218000B680193019B13430193019B0B6002B070
:10222800704700BF4038024082B00A78012303FAA1
:1022380002F205490B680193019B13430193019B2B
:102248000B6002B0704700BF4438024000B583B04D
:102258000B781F2B0BD93F2B11D95F2B17D8403B7D
:102268008DF806300DF10601FFF7CCFF04E08DF87C
:10227800043001A9FFF7A2FF03B05DF804FB203B7F
:102288008DF805300DF10501FFF7AAFFF4E7603B73
:102298008DF807300DF10701FFF7C6FFECE70000E6
:1022A80082B0054A13680193019B43F4803301937C
:1022B800019B136002B0704700380240024B186857
:1022C800C0F34040704700BF0038024082B0054A62
:1022D80013680193019B23F001030193019B136091
:1022E80002B070470038024082B0054A1368019373
:1022F800019B43F080730193019B136002B0704708
:102308000038024030B583B00E4D2C680194019C12
:10231800240C24040194019C2C6042F4800242EABB
:102328008112BDF8181042EA016242EA03422B68A2
:102338000093009B1A430092009B2B60FFF7D4FF89
:1023480003B030BD04380240024B1868C0F3406047
:10235800704700BF00380240F0B585B004460391CD
:1023680016461D460F0E0097C1F30743C1F3072217
:10237800C9B2FFF7C7FF2046FFF7E6FF0028FAD1EA
:1023880031462046FFF7AEFE29462046FFF7C2FE3B
:102398000A992046FFF7D6FE02212046FFF7EAFEFB
:1023A80005B0F0BD82B0054B1A680192019A11433D
:1023B8000191019A1A6002B0704700BF003C0240C8
:1023C800024B186800F00700704700BF003C02404D
:1023D80082B0426813690193019B23F001030193C2
:1023E800019B136102B0704710B483B00C68102CC5
:1023F80018D0202C16D0402C14D0582C12D0002BDA
:1024080000F0AA8040680B68702B00F0978000F3FA
:102418008B80402B00F0948075DD582B40F096801F
:10242800162175E0002B37D040680B68702B25D03B
:102438001ADC402B24D003DD582B27D1162104E0C9
:10244800102B1FD0202B1FD1062113780B44DBB291
:102458000168012202FA03F3194214BF1046002052
:1024680003B05DF8044B7047A02B11D0B82B01D1F5
:102478001621EAE7882B0DD10621E6E70021E4E7DB
:102488001021E2E70021E0E76321DEE76321DCE7D2
:102498001021DAE76321D8E740680968702924D059
:1024A80019DC402923D003DD582926D1162104E060
:1024B80010291ED020291ED1062112780A44D2B232
:1024C8000121914082680092009A0A430092009A82
:1024D80082601846C4E7A02911D0B82901D1162175
:1024E800EBE788290DD10621E7E70021E5E7102170
:1024F800E3E70021E1E76321DFE76321DDE710215E
:10250800DBE76321D9E7102B1CD0202B1CD1062137
:1025180013780B44DBB24168012202FA03F3194233
:1025280014BF104600209BE7A02B11D0B82B01D177
:102538001621EDE7882B0DD10621E9E70021E7E711
:102548001021E5E70021E3E76321E1E76321DFE705
:102558001021DDE76321DBE740680968702924D092
:1025680019DC402923D003DD582926D1162104E09F
:1025780010291ED020291ED1062112780A44D2B271
:1025880001219140C2680192019A0A430192019A7D
:10259800C260184664E7A02911D0B82901D11621D4
:1025A800EBE788290DD10621E7E70021E5E71021AF
:1025B800E3E70021E1E76321DFE76321DDE710219D
:1025C800DBE76321D9E700B583B013788DF80730CE
:1025D80000230DF10702FFF707FF03B05DF804FBC6
:1025E80082B040680968127803FA02F243580193EE
:1025F800019B13430193019B435002B0704700B500
:1026080083B000238DF8073001230DF10702FFF78F
:10261800E7FF03B05DF804FB00B583B000238DF835
:1026280007300DF10702FFF7DBFF03B05DF804FB8D
:10263800436809680B445A607047436809680B444B
:102648009A607047436809680B44DA60704782B043
:10265800406809680144127803FA02F24B69019351
:10266800019B13430193019B4B6102B07047406883
:10267800704784B030B587B004460BAD85E80E00CE
:1026880011A9FFF7C9FF01238DF803309DF82C30FD
:102698000DF1030211A92046FFF7A2FF02258DF8CC
:1026A80004509DF82D3001AA11A92046FFF798FF84
:1026B80003238DF805309DF82E300DF1050211A980
:1026C8002046FFF78DFF04238DF806309DF82F3044
:1026D8000DF1060211A92046FFF782FF05238DF8A8
:1026E80007309DF830300DF1070211A92046FFF799
:1026F80077FF06238DF808309DF8313002AA11A91A
:102708002046FFF76DFF08238DF809309DF8323019
:102718000DF1090211A92046FFF762FF09238DF880
:102728000A309DF833300DF10A0211A92046FFF74F
:1027380057FF0A238DF80B309DF834300DF10B024A
:1027480011A92046FFF74CFF0B238DF80C309DF89C
:10275800353003AA11A92046FFF742FF0D238DF853
:102768000D309DF836300DF10D0211A92046FFF706
:1027780037FF0F238DF80E309DF837300DF10E021C
:1027880011A92046FFF72CFF10238DF80F309DF874
:1027980038300DF10F0211A92046FFF721FF12234F
:1027A8008DF810309DF8393004AA11A92046FFF79A
:1027B80017FF13238DF811309DF83A300DF11102EF
:1027C80011A92046FFF70CFF15238DF812309DF84C
:1027D8003B300DF1120211A92046FFF701FF172324
:1027E8008DF813309DF83C300DF1130211A92046E5
:1027F800FFF7F6FE19238DF814309DF83D3005AA31
:1028080011A92046FFF7ECFE00238DF815309DF83E
:102818003E300DF1150211A92046FFF718FF8DF87B
:1028280016509DF83F300DF1160211A92046FFF70A
:102838000EFF07238DF817309DF840300DF1170271
:1028480011A92046FFF703FF07B0BDE8304004B0E8
:10285800704700F031BD30B500231A4610F8015B0F
:1028680005F07F04944023432C0602F10702F5D4B7
:102878000B6030BD30B500231A4610F8014B04F048
:102888007F0595402B43250602F10702F5D41F2A40
:1028980006D8640642BF4FF0FF3404FA02F213432D
:1028A8000B6030BD50282DE9F34106468846154691
:1028B8001F4608D1033222F0030050F8044B3C6055
:1028C80002B0BDE8F08100F00F030C2B2ED8DFE832
:1028D80003F025071D25292D2D2D2D18212529002B
:1028E80001A92846FFF7B7FF019C002CE7D006F0A6
:1028F8007003102B08BFA8464444330648BF246819
:10290800DDE701A92846FFF7B5FFEDE7284630F8CF
:10291800024BEAE7284630F9024BE6E7284650F82A
:10292800044BE2E7284650F8084BDEE700F0B4FC19
:1029380008B50346FF2B084610D003F07002302A72
:1029480012D007D8202A0BD002D813F0600F05D078
:1029580000F0A2FC402A0BD0502AF9D1002008BD73
:10296800BDE8084000F095BCBDE8084000F08EBC0A
:10297800BDE80840FEF766BB13B50C460146204685
:10298800CDE90032FFF7D4FFDDE9003201462046E9
:1029980002B0BDE81040FFF785BF73B50C46154679
:1029A800064628B3FEF74EFB034620462B6010F878
:1029B800011BFF291ED002462B1D3046FFF7DCFF06
:1029C80010F8013B2B75FF2B16D010232B7501A98E
:1029D800FFF741FF019B0344EB6010F8013B6B7567
:1029E80001A9FFF738FF019B03442B6102B070BDBA
:1029F8000346DAE76B60E3E70023EDE71FB503ABB7
:102A0800009300230A461946FDF79CFD039805B07C
:102A18005DF804FB2DE9F04F91B00023059300F019
:102A28000303012B06460C4617460ED0022B03D093
:102A3800002B3BD101073BD539462046FEF7ECFA7F
:102A480090B3092011B0BDE8F08F020706D40D6AD3
:102A580038460D21FFF7D2FF85422BD002200023F4
:102A680006F008060DF1280A0643CDF800A00C224E
:102A7800194638460A94FDF789FD062E1CD1D4F86C
:102A88003080D4E90A59B8F1000F0CBF4FF0010BA0
:102A98004FF0030B16F0080600F00C81BBF1010F94
:102AA80040F0048100F064F90820CBE700F0F4FB63
:102AB8000120D4E70620D2E73846FEF7C9FA814656
:102AC8000028B9D0524601463846FFF766FF394616
:102AD80005469DF83C00FFF72BFF0F210C90384668
:102AE800FFF78CFF20F0010808F1FF380E9BAB427E
:102AF80040F2C4802A469DF83D1006AB0020FFF73F
:102B08003BFF9DF83D10024607AB0020FFF734FF5E
:102B180008AB02469DF83D100020FFF72DFF09A9DC
:102B2800FFF799FE0A9B069A13444345054601D9C7
:102B38000E9DDBE7079A13444345D7D9DDF820807B
:102B4800B8F1000F01D00B9B9844099D15B10E9860
:102B5800013D0544B8F1000F3FF46EAF002D00F0C1
:102B6800F78016F00803029334D0472323704E23CE
:102B780063705523A3704323E370462323714F23C7
:102B880063715223A3710023E3714FF0000B07A96F
:102B98002846FFF76FFE08A90390FFF76BFE079919
:102BA800002968D03ADD9DF83C00FF2832D000F0BB
:102BB8000703042B3FF67AAF01A252F823F000BFB7
:102BC800212C0008B52A0008EF2B0008212C00084A
:102BD800192C0008E379012B0CBF54F8203C04F1B0
:102BE80058030593D1E702250D9A09AB05FB11227D
:102BF8000C99FFF757FE099931B17CB305AB002258
:102C0800204600F015F948B3079D4FF0030B39E053
:102C18000825E9E70025E7E70425E5E7C1F17F5145
:102C280001F57F110D9B01F57F513F3103EB8105C4
:102C3800DCB1029ACAB9059B0993043D55F8041FF3
:102C480041B109AB00222944204600F0F1F80028E0
:102C5800F4D0012181F001010029D5D1089D002D72
:102C680072D0039B2B441D4691E753F82110B1FA0B
:102C780081F14909F0E74FF0010BEFE70025A8467D
:102C88004FF0010BF3077FF505AFBBF1020F3FF4DF
:102C9800D3AE0D213846059EFFF7B0FEC4E90A59A8
:102CA800C4E90806C4F830800620CBE6002D22DAF5
:102CB80000F070F8BBF1010F02D1204600F050F986
:102CC800002D18DA524649463846FFF766FE9DF849
:102CD8003C003946FFF72CFE0D9A0C90EB4302EBB3
:102CE800830353F826200AB10136FAE70422C4E91F
:102CF8000A60C4E90C23002309AE1A461946009657
:102D080038460994FDF742FC002319460122009633
:102D180038460995FDF73AFC0F213846FFF76EFE55
:102D280000F0010040EA08000023099000960F22F5
:102D380019463846FDF72AFCBBF1020F02D120469E
:102D480000F0D4F807207DE6BBF1000F3FF474AE25
:102D58004FF0020B96E700BF08B5804700F09CFAD9
:102D6800024B1868BFF35B8F704700BF0400002058
:102D780008B5FFF7F5FFFFF7EFFF08B58047FFF746
:102D8800F7FF0000024B1868BFF35B8F704700BF66
:102D98000000002008B5FFF7F5FFFFF7EEFF08B5C4
:102DA80000F07AFA08B500F077FA08B500F074FA7E
:102DB80008B50B68B3F1804F02D30D48FFF7F5FF54
:102DC80093420BD9B3EB420F4FEA420006D2B0F15F
:102DD800804F2ABF6FF0404308600B6008680130DD
:102DE80001D5FFF7DCFFBDE8084000F027B900BFB8
:102DF800E63500080378472B17D143784E2B14D1BA
:102E08008378552B11D1C378432B0ED10379432BEB
:102E18000BD143792B2B08D183792B2B05D1C07982
:102E280001288CBF00200120704700207047000057
:102E38002DE9F3411D460378472B0E460246C1791A
:102E480013D143784E2B10D18378552B0DD1C378ED
:102E5800432B0AD10379462B07D143794F2B04D151
:102E68008379522B01D1002931D01046FFF7C2FFD8
:102E780080F00100C0B200230024019453BB58BB6A
:102E880001290ABF52F8203CA2F12003783B01290E
:102E980008BF52F8202C1C6818BF583201922368CA
:102EA80020469B689847C8B1019B1B68019302277D
:102EB800336801AAD3F81080214601233046C04761
:102EC80070B1019B2B60384602B0BDE8F081012348
:102ED8000846D1E7034CE2E7034CE0E70127E7E7C0
:102EE8000746F0E7003600080836000810B5044623
:102EF80000F0A0F802462046A4F12001FFF77AFF6F
:102F080060B154F8043C0133012B44F8043C03D16C
:102F1800936844F8083C9160012010BD9368002B29
:102F2800F9D0FFF725FF0378472B17D143784E2BAD
:102F380014D18378552B11D1C378432B0ED1037943
:102F4800432B0BD143792B2B08D183792B2B05D11C
:102F5800C07901288CBF00200120704700207047ED
:102F680010B5044648B100F03BF82046FFF7DBFFF8
:102F780018B154F8140CFFF7EFFEFFF7F9FE38B557
:102F88000246FFF7D0FF40B152F8184C0025104612
:102F980000F026F825B1FFF7FDFE04460125F6E707
:102FA8002046FFF7EAFE0378472B17D143784E2BCC
:102FB80014D18378552B11D1C378432B0ED10379C3
:102FC800432B0BD143792B2B08D183792B2B05D19C
:102FD800C07901288CBF002001207047002070476D
:102FE80038B5044600F026F8056802462046A4F1E4
:102FF8002001FFF7D8FF28B90DB1FFF7B9FE11601E
:10300800284638BD54F80C3C002BB4BFC3F101036B
:10301800013344F80C3C53688D4203F1FF3353608D
:1030280020461CBF44F8105C1160656AFDF782FAFF
:10303800E6E7000000487047AC000020012838BFD0
:10304800012010B50446204600F02EF930B900F0F2
:1030580015F908B900F020F98047F4E710BD000021
:1030680010B5034B0360044600F0B2F8204610BDCB
:103078009036000810B50446FFF7F2FF20460C21F1
:1030880000F0FAF8204610BDF7B5089F97420546AC
:103098000E4614460AD0A86802680897156A314691
:1030A8002246AC4603B0BDE8F0406047194601939C
:1030B80000F058F8019B0028EDD0062003B0F0BDC1
:1030C8002DE9F14F0D461946DDE90A4BDDE90CA65D
:1030D80081461746984600F045F890B1002D3460B7
:1030E800377109DB61198A450CBF06210121B171CD
:1030F800002001B0BDE8F08F0235F9D10123B3718A
:10310800F6E7544506D15946484600F02BF808B171
:103118007771EDE7D9F808000368CDE90CA6CDE989
:103128000A4BDC693A4643462946A44601B0BDE845
:10313800F04F60472DE9F04107460C4615461E46FC
:1031480000F079F848B9B86803689F692A46334699
:103158002146BC46BDE8F0416047BDE8F0817047B4
:1031680000207047814208B50ED0406803782A2BAA
:103178000CD049680B782A2B08BF0131FDF772FF84
:10318800B0FA80F0400908BD0120FCE70020FAE70A
:103198007FB500241023CDE90234036800949E69AA
:1031A8008DF8044015466B461268B0479DF8043008
:1031B80003F00603062B03BF009B2B60012020466B
:1031C80004B070BD0098904214BF012006207047DB
:1031D80010B5034B03600446FFF7C1FF204610BD3E
:1031E8000437000810B50446FFF7F2FF204608210F
:1031F80000F042F8204610BD2DE9F0411F46DDE9F8
:103208000834DDF8188098450646154607D1079911
:10321800FFF7A8FF18B165710020BDE8F0813946B5
:103228003046FFF79FFF0028F6D00123C4F800803E
:103238002571A371F0E738B515461C46FFF792FFD4
:1032480020B10823E36006232560237138BD73B5D8
:1032580005460C4601921E46FFF784FF50B9032E1F
:1032680008D82368019A5B692946204602B0BDE860
:103278007040184702B070BDFFF7EBBA024B1868F0
:10328800BFF35B8F704700BFB800002008B500F09F
:1032980003F808B5FFF7FAFF08B5062000F004F9AF
:1032A800012000F049F90000024B0146186800F0BF
:1032B80069B800BF08000020024B0146186800F0FA
:1032C80011B800BF080000200A44914200F1FF3302
:1032D80000D1704710B511F8014B03F8014F914226
:1032E800F9D110BD37B5002948D051F8043C0190F8
:1032F800002BA1F10404B8BFE41800F0F1F8204A4B
:1033080001981368154633B96360146003B0BDE8CB
:10331800304000F0EBB8A3420BD921686218934201
:1033280004BF1A685B68636004BF521822602C608F
:10333800ECE71A465B680BB1A342FAD91168551835
:10334800A5420BD1246821445418A3421160DDD151
:103358001C685B68536021441160D7E702D90C23CD
:103368000360D3E7256861198B4204BF19685B685D
:10337800636004BF491921605460C7E703B030BDDA
:10338800BC000020F8B5CD1C25F0030508350C2D30
:1033980038BF0C25002D064601DBA94203D90C23B2
:1033A80033600020F8BD00F09BF821490A681446F4
:1033B8009CB9204F3B6823B92146304600F03CF8C1
:1033C80038602946304600F037F8431C23D10C23D7
:1033D8003360304600F08AF8E3E723685B1B17D4B4
:1033E8000B2B03D923601C44256004E06368A242C8
:1033F8000CBF0B605360304600F078F804F10B0006
:10340800231D20F00700C21ACCD01B1AA350C9E70D
:1034180022466468CCE7C41C24F00304A042E3D02D
:10342800211A304600F008F80130DDD1CFE700BF9F
:10343800BC000020C000002038B5064D002304461B
:1034480008462B6000F06AF8431C02D12B6803B1D0
:10345800236038BDC80000201F2938B504460D4632
:1034680004D9162303604FF0FF3038BD426C12B107
:1034780052F821304BB9204600F030F82A46014670
:103488002046BDE8384000F017B8012B0AD0591C77
:1034980003D1162303600120E7E7002442F8254002
:1034A800284698470020E0E7024B01461868FFF7D6
:1034B800D3BF00BF0800002038B5074D00230446DD
:1034C800084611462B6000F021F8431C02D12B68F6
:1034D80003B1236038BD00BFC800002000F00EB85B
:1034E800014800F009B800BFD0000020014800F0F2
:1034F80004B800BFD000002070477047024B582224
:103508001A604FF0FF307047C8000020024B582265
:103518001A604FF0FF307047C8000020044B19684C
:10352800024609B903491960186802441A607047CD
:10353800C4000020D8000020FEE70000F8B500BF56
:10354800F8BC08BC9E467047F8B500BFF8BC08BC7C
:043558009E467047D4
:10355C00600400043204000464040004A80400079E
:10356C00546573742055415254206D61696E0A0D77
:10357C00000000005472616E736D697420646D619B
:10358C000A0D000062617369635F737472696E6720
:10359C003A3A5F4D5F636F6E737472756374206E2D
:1035AC00756C6C206E6F742076616C696400000021
:1035BC005465737420636F757400000053746172EA
:1035CC00740A0D0073747265616D350A0D0000008C
:1035DC0073747265616D360A0D0062617369635FA5
:1035EC00737472696E673A3A5F4D5F6372656174AA
:1035FC006500000004370008103600080437000886
:10360C00303600084E31305F5F63787861626976DE
:10361C003131355F5F666F726365645F756E7769B4
:10362C006E6445004E31305F5F6378786162697615
:10363C003131395F5F666F726569676E5F6578639C
:10364C00657074696F6E450090360008603600082E
:10365C00CC3600084E31305F5F63787861626976F2
:10366C003132305F5F73695F636C6173735F747960
:10367C0070655F696E666F45000000000000000019
:10368C0054360008693000087D30000869310008A4
:10369C006931000857320008993100083D310008A3
:1036AC00C93000089130000804370008BC36000807
:1036BC00537439747970655F696E666F0000000031
:1036CC0090360008D8360008B43600084E31305F0A
:1036DC005F637878616269763131375F5F636C6103
:1036EC0073735F747970655F696E666F4500000077
:1036FC0000000000CC360008D9310008ED3100087C
:10370C006931000869310008573200089931000806
:0C371C003F32000801320008CD310008E7
:1037280008B10181B0B0008400000000E9F2FF7F19
:10373800B0AA3100FFFF0100DDF2FF7FB0AC03004B
:10374800FFFF010008B10181B0B000840000000053
:0C37580008B10181B0B000840000000046
:1037640064CAFF7F01000000F4CAFF7FB0A9028091
:1037740088CBFF7FB0B0A880D8CBFF7F01000000CA
:10378400E4CBFF7FB0B0AA8018CCFF7FAE71B280CB
:10379400DCCCFF7F01000000D8CCFF7FAB3F38803A
:1037A40030CDFF7F010000003CCDFF7FB0B0AA8088
:1037B40078CDFF7F0100000020CEFF7FAB0EB280EA
:1037C40090CEFF7FB0AF088030D1FF7F01000000B2
:1037D40034D1FF7FAD3F0280A4D3FF7F01000000FE
:1037E40080D5FF7F0084048094D5FF7F0100000012
:1037F40090D5FF7FB0AD048024D8FF7FB0A80380AC
:1038040048D8FF7F44FFFF7F4CD8FF7F48FFFF7FEE
:1038140058D8FF7F0100000018DAFF7FB0B0A880FD
:1038240030DAFF7F010000002CDAFF7FF8FEFF7F13
:1038340050DAFF7FB0AA0180A0DAFF7FA908B18027
:10384400C4DAFF7FECFEFF7FD4DCFF7FB0A90880E1
:103854007CDDFF7F01000000A2E0FF7FE0FEFF7F30
:0838640004E1FF7F01000000F8
:04386C00AD010008A2
:0438700089010008C2
:10387400792D0008A13200080C000020000000008F
:103884000000000000000000000000000000000034
:103894000000000000000000000000000000000024
:1038A4000000000000000000000000000000000014
:1038B4000000000000000000000000000000000004
:1038C40000000000000000000000000000000000F4
:0C38D400000000000000000000000000E8
:040000050800018866
:00000001FF
