:020000040800F2
:1000000000000220910C000875040008710400082B
:1000100081040008730400087F0400080000000049
:10002000000000000000000000000000D30C0008E9
:10003000D90C000800000000DF0C0008E50C0008E7
:10004000EB0C0008F10C0008F70C0008FD0C000890
:10005000030D0008090D00080F0D0008150D00081C
:100060001B0D0008210D0008270D00082D0D0008AC
:10007000330D0008390D00083F0D0008450D00083C
:100080004B0D0008510D0008570D00085D0D0008CC
:10009000630D0008690D00086F0D0008750D00085C
:1000A0007B0D0008810D0008870D00088D0D0008EC
:1000B000930D0008990D00089F0D0008A50D00087C
:1000C000AB0D0008B10D0008B70D0008BD0D00080C
:1000D000C30D0008C90D0008CF0D0008D50D00089C
:1000E000DB0D0008E10D0008E70D0008ED0D00082C
:1000F000F30D0008F90D0008FF0D0008050E0008BB
:100100000B0E0008110E0008170E00081D0E000847
:10011000230E0008290E00082F0E0008350E0008D7
:100120003B0E0008410E0008470E00084D0E000867
:10013000530E0008590E00085F0E0008650E0008F7
:100140006B0E00087D0400087B0400088114000881
:100150007904000877040008710E0008770E000883
:100160007D0E0008830E0008890E00088F0E00081F
:10017000950E00089B0E0008A10E0008000000006C
:08018000A70E0008AD0E0008F7
:1001880000F1340191E838009C46A6464CF8045D1D
:1001980090E8FF0FE54600BD90EC210B704700BFCB
:1001A80080EC210B704700BF90EC200B704700BF1C
:1001B80080EC200B704700BFD0EC200B704700BFCD
:1001C800C0EC200B704700BFF0EC0201F0EC02110C
:1001D800F0EC0221F0EC0231F0EC0241F0EC0251BB
:1001E800F0EC0261F0EC0271F0EC0281F0EC0291AB
:1001F800F0EC02A1F0EC02B1F0EC02C1F0EC02D19B
:10020800F0EC02E1F0EC02F1704700BFE0EC020113
:10021800E0EC0211E0EC0221E0EC0231E0EC0241FA
:10022800E0EC0251E0EC0261E0EC0271E0EC0281EA
:10023800E0EC0291E0EC02A1E0EC02B1E0EC02C1DA
:10024800E0EC02D1E0EC02E1E0EC02F1704700BF23
:10025800B0FC0181B0FC0191B0FC01A1B0FC01B17E
:10026800704700BFA0FC0181A0FC0191A0FC01A186
:10027800A0FC01B1704700BFEC4600B52DE9005065
:100288002DE9FF1F4FF000032DE90C0001A902F032
:10029800E5F8DDF840E012B0704700BFEC4600B565
:1002A8002DE900502DE9FF1F4FF000032DE90C0048
:1002B80001A902F00FF9DDF840E012B0704700BF65
:1002C800EC4600B52DE900502DE9FF1F4FF0000363
:1002D8002DE90C0001A902F01DF9DDF840E012B08B
:1002E800704700BFEC4600B52DE900502DE9FF1F0F
:1002F8004FF000032DE90C0001AB02F0E3F8DDF844
:1003080040E012B0704700BFEC4600B52DE9005040
:100318002DE9FF1F4FF000032DE90C0001AA02F0A0
:100328004FF9DDF840E012B0704700BF10F8012B1C
:1003380011F8013B012A28BF9A42F7D0D01A70471A
:10034800034613F8012B002AFBD1181A013870470D
:100358000348044B834202D0034B03B1184770474C
:100368005C0000205C000020000000000548064BEF
:100378001B1AD90F01EBA301491002D0034B03B19B
:10038800184770475C0000205C0000200000000057
:1003980010B5064C237843B9FFF7DAFF044B13B1C5
:1003A8000448AFF300800123237010BD5C000020D7
:1003B800000000006C32000808B5054B1BB1054968
:1003C8000548AFF30080BDE80840FFF7CFBF00BF86
:1003D80000000000600000206C32000810B41F4CC0
:1003E80004601F4C046041608260D1ED027AB8EE6F
:1003F800677A9FED1C6AC7EE067ABCEEE77A17EEBD
:10040800102A92B207EE102AB8EE477A77EEC77A2A
:10041800F3EE006A67EEA67AFCEEE77A17EE904AEA
:100428008481C28191ED017AB8EE477AC7EE067AE7
:10043800BCEEE77A17EE102A92B207EE102AB8EE51
:10044800477A77EEC77A67EEA67AFCEEE77A17EE78
:10045800901A018242825DF8044B70472C330008E1
:10046800603300080000E149FEE7FEE7FEE7FEE72B
:10047800FEE7FEE7FEE7FEE7FEE770B582B004465A
:100488000E46551A01950F2D0DD800942A4631466F
:10049800206801F0E0FC00220092019B6360216863
:1004A800CA5402B070BD002201A901F0A7FC206067
:1004B800019BA360E9E7000038B500F10803036079
:1004C80069B104460D460846FFF73AFF4FF00003AE
:1004D8002A1829462046FFF7D0FF204638BD014894
:1004E80001F019FCA432000800B5A3B0274B10ACEA
:1004F8000FCB84E80F00204600F0E6FD244A214691
:100508000BA8FFF76BFF0BA800F004FB0BA907A8CB
:1005180000F062F807A800F0CBFF00F0C3FF054623
:100528001AAA1C4914A8FFF7C7FF14A9284600F007
:1005380060F814A801F084FC069406A800F070FF87
:1005480006A800F0B9FE00F0ADFF044621AA124942
:100558001BA8FFF7B1FF1BA9204600F04AF81BA80B
:1005680001F06EFC0DF1040C0C4C0FCCACE80F0044
:100578002368ACF80030122201A90BA800F074FA25
:100588004FF47A7110A800F09BFCF4E7843200085D
:1005980000440040D8320008E4320008F032000875
:1005A80038B504460D460721E06800F054FA0028E3
:1005B800F9D0E06803681B682946984738BD38B504
:1005C80005460C4603E02846FFF7EAFF0134217888
:1005D8002B789942F7D138BD4FF0000C024602F84B
:1005E80001CBC0F801C0C2F804C0C2F807C0C1609E
:1005F800704710B504460968FFF7E1FF204610BDB3
:1006080082B003680193019B23EA01030193019BD4
:10061800036002B07047000010B504460846216028
:100628006260244B9A4238D00AD9234B9A423CD074
:100638001ED9224B9A422AD1082100F0D1FC26E08B
:10064800A3F500639A4224D006D91D4B9A421ED1C5
:10065800032100F0C5FC1AE0A3F500639A4213D009
:1006680003F580639A4212D1012100F0B9FC0EE033
:10067800A3F500639A4214D003F580639A4206D129
:10068800062100F0ADFC02E0002100F0A9FC2046A4
:1006980010BD022100F0A4FCF9E7042100F0A0FC41
:1006A800F5E7052100F09CFCF1E7072100F098FC34
:1006B800EDE700BF00100240001C0240002002408D
:1006C800000C024082B003680193019B0B43019325
:1006D800019B036002B0704708B54068490002FA00
:1006E80001F10830FFF7EEFF08BD08B5072907D864
:1006F8004068890002FA01F12030FFF7E3FF08BDE6
:100708004068A1F108039B0002FA03F12430FFF7C7
:10071800D9FFF4E782B003680193019B0B4301936F
:10072800019B036002B0704770B5044616464D0041
:100738000321A9404068FFF763FF06FA05F16068E6
:10074800FFF7E8FF70BD83685960704783681879C0
:1007580070472DE9F04184B0054617461C469DF8C0
:1007680028609DF82C800A46416802A8FFF754FFCC
:100778000222214602A8FFF7D7FF0322214602A83A
:10078800FFF7AAFF4246214602A8FFF7AEFF3A4606
:1007980069686846FFF740FF022231466846FFF75E
:1007A800C3FF032231466846FFF796FF42463146AB
:1007B8006846FFF79AFF04B0BDE8F08100B583B042
:1007C80003290CD8DFE801F0020E1721134907238B
:1007D80001930A23009309230A46FFF7BAFF03B0DF
:1007E8005DF804FB07230193009309230C4A0B4986
:1007F800FFF7AFFFF3E7072301930A2300930623CC
:10080800064A0749FFF7A5FFE9E7054907230193CA
:10081800009306230A46FFF79CFFE0E7000002402A
:100828000004024000B583B003290CD8DFE801F0CA
:10083800020E18221449072301930323009302236D
:100848000A46FFF786FF03B05DF804FB0723019310
:100858000623009302230D4A0B49FFF77AFFF2E7BC
:1008680007230193032300930523074A0749FFF74A
:1008780070FFE8E705490723019306230093052342
:100888000A46FFF766FFDEE700000240000C024060
:1008980000B583B008290FD8DFE801F005111B2542
:1008A8002F39434D57002E49072301930B230093FB
:1008B8000A230A46FFF74DFF03B05DF804FB072340
:1008C80001930B2300930A23264A2549FFF741FF8A
:1008D800F2E707230193092300930A23224A2049B8
:1008E800FFF737FFE8E7072301930B2300930A2359
:1008F8001B4A1C49FFF72DFFDEE71A49072301931E
:100908000B2300930A230A46FFF723FFD4E70723A4
:100918000193092300930A23134A1249FFF719FF89
:10092800CAE7072301930B23009308230C4A0E49B7
:10093800FFF70FFFC0E7072301930B23009308235A
:10094800084A0949FFF705FFB6E70723019309237A
:1009580000930823034A0449FFF7FBFEACE700BFF6
:100968000004024000080240000C024000B583B0B9
:1009780003290CD8DFE801F0020E182214490823D5
:1009880001930123009300230A46FFF7E2FE03B018
:100998005DF804FB082301930B23009300230D4A01
:1009A8000B49FFF7D6FEF2E70823019301230093D2
:1009B8000A23074A0749FFF7CCFEE8E70549082359
:1009C80001930B2300930A230A46FFF7C2FEDEE7D2
:1009D800000002400008024000B583B003290CD88B
:1009E800DFE801F0020E18221449082301930723B7
:1009F800009306230A46FFF7ACFE03B05DF804FB3C
:100A0800082301930923009306230D4A0B49FFF796
:100A1800A0FEF2E708230193072300930E23074A59
:100A28000749FFF796FEE8E70549082301930923DC
:100A380000930E230A46FFF78CFEDEE7000802400B
:100A480000180240826848880B8803F00F0343EAC5
:100A580000139360704783681A6801238B401A4219
:100A680014BF0120002070472DE9F0410446884654
:100A780000250EE007212046FFF7EDFF0028F9D0FA
:100A88006F1C23681B6818F80510204698473D46D8
:100A98003246561E002AEDD1BDE8F08108B531B9BD
:100AA80080684FF480510C30FFF7AAFD08BD8068BC
:100AB8004FF480510C30FFF705FEF7E708B529B968
:100AC800806804210C30FFF79BFD08BD8068042175
:100AD8000C30FFF7F7FDF8E708B529B98068082159
:100AE8000C30FFF78DFD08BD806808210C30FFF73A
:100AF800E9FDF8E708B531B980684FF400510C30CA
:100B0800FFF77EFD08BD80684FF400510C30FFF7F9
:100B1800D9FDF7E710B582B004468368404A93428E
:100B28006AD027D8A2F50062934257D002F58062B6
:100B380093420DD15321406800F052FA002120461B
:100B4800FFF714FF04F110012046FFF77BFF33E0A5
:100B5800A2F5006293422FD15121406800F040FA7B
:100B680000212046FFF75EFE04F110012046FFF742
:100B780069FF21E02B4A934211D002F5806293422B
:100B88001AD16521406800F02BFA00212046FFF7B2
:100B980023FF04F10C012046FFF754FF0CE0642109
:100BA800406800F01DFA00212046FFF707FE04F117
:100BB8000C012046FFF746FF00212046FFF76EFF95
:100BC80001212046FFF77AFF01212046FFF784FF25
:100BD80001212046FFF78EFF02B010BD5221406868
:100BE80000F0FEF900212046FFF752FE04F1100143
:100BF8002046FFF727FFDFE75421406800F0F0F9AF
:100C080008230193022300930C23074A074920462F
:100C1800FFF79FFD04F110012046FFF713FFCBE714
:100C28000050004000100140000C02400008024043
:100C380008B51F2811D9A0F12003DBB21F2B14D946
:100C4800A0F14003DBB21F2B0ED800F01F000121DA
:100C580081400A48FFF736FD06E000F01F00012139
:100C680081400748FFF72EFD08BD00F01F00012155
:100C780081400448FFF726FDF6E700BF08E100E0E1
:100C880000E100E004E100E008B50A4B0A4A03E08D
:100C980052F8041B43F8041B08498B42F8D3084B4D
:100CA80002E0002243F8042B064A9342F9D3FFF7E7
:100CB8001BFCFEE700000020583600085C000020FE
:100CC8005C0000207C020020FEE708B5FFF7FCFF6F
:100CD80008B5FFF7F9FF08B5FFF7F6FF08B5FFF706
:100CE800F3FF08B5FFF7F0FF08B5FFF7EDFF08B50C
:100CF800FFF7EAFF08B5FFF7E7FF08B5FFF7E4FFDE
:100D080008B5FFF7E1FF08B5FFF7DEFF08B5FFF705
:100D1800DBFF08B5FFF7D8FF08B5FFF7D5FF08B523
:100D2800FFF7D2FF08B5FFF7CFFF08B5FFF7CCFFF5
:100D380008B5FFF7C9FF08B5FFF7C6FF08B5FFF705
:100D4800C3FF08B5FFF7C0FF08B5FFF7BDFF08B53B
:100D5800FFF7BAFF08B5FFF7B7FF08B5FFF7B4FF0D
:100D680008B5FFF7B1FF08B5FFF7AEFF08B5FFF705
:100D7800ABFF08B5FFF7A8FF08B5FFF7A5FF08B553
:100D8800FFF7A2FF08B5FFF79FFF08B5FFF79CFF25
:100D980008B5FFF799FF08B5FFF796FF08B5FFF705
:100DA80093FF08B5FFF790FF08B5FFF78DFF08B56B
:100DB800FFF78AFF08B5FFF787FF08B5FFF784FF3D
:100DC80008B5FFF781FF08B5FFF77EFF08B5FFF705
:100DD8007BFF08B5FFF778FF08B5FFF775FF08B583
:100DE800FFF772FF08B5FFF76FFF08B5FFF76CFF55
:100DF80008B5FFF769FF08B5FFF766FF08B5FFF705
:100E080063FF08B5FFF760FF08B5FFF75DFF08B59A
:100E1800FFF75AFF08B5FFF757FF08B5FFF754FF6C
:100E280008B5FFF751FF08B5FFF74EFF08B5FFF704
:100E38004BFF08B5FFF748FF08B5FFF745FF08B5B2
:100E4800FFF742FF08B5FFF73FFF08B5FFF73CFF84
:100E580008B5FFF739FF08B5FFF736FF08B5FFF704
:100E680033FF08B5FFF730FF08B5FFF72DFF08B5CA
:100E7800FFF72AFF08B5FFF727FF08B5FFF724FF9C
:100E880008B5FFF721FF08B5FFF71EFF08B5FFF704
:100E98001BFF08B5FFF718FF08B5FFF715FF08B5E2
:100EA800FFF712FF08B5FFF70FFFB1FBF2F10139A9
:100EB8004FF0E023596100229A6105221A617047B8
:100EC800B1F1FF3F00D0013139B14FF0E0231B6988
:100ED80013F4803FF8D00139F6E77047024BD3F896
:100EE8000008C0F3404070470030024008B50121B7
:100EF8000148FFF785FB08BD00380240024BD3F8D4
:100F08000008C0F3406070470030024038B50C4616
:100F1800044DF0212846FFF773FB21012846FFF70F
:100F2800D1FB38BD0838024038B50C46054D4FF4A2
:100F3800E0512846FFF764FBA1022846FFF7C2FBF1
:100F480038BD00BF0838024038B50C46054D4FF48F
:100F580060412846FFF754FB61032846FFF7B2FBC0
:100F680038BD00BF0838024008B5012303FA01F173
:100F78000148FFF7A7FB08BD3038024008B5012338
:100F880003FA01F10148FFF79DFB08BD3438024020
:100F980008B54FF480310248FFF794FB08BD00BF45
:100FA8000038024008B54FF080710248FFF78AFB0D
:100FB80008BD00BF0038024008B5012303FA01F15B
:100FC8000148FFF77FFB08BD4038024008B5012300
:100FD80003FA01F10148FFF775FB08BD44380240E8
:100FE80008B51F2908D93F2909D95F290CD84039E4
:100FF800C9B2FFF7E1FF01E0FFF7B6FF08BD2039EE
:10100800C9B2FFF7BBFFF9E76039C9B2FFF7DEFFE6
:10101800F4E7000038B50C46044D03212846FFF7D5
:10102800EFFA21462846FFF775FB38BD083802401D
:101038002DE9F04105460F4614461E46DFF830807C
:101048004FF6FF714046FFF7DBFA44F4800444EAA8
:101058008711BDF8183041EA036141EA064140466C
:10106800FFF758FB2846FFF79DFFBDE8F08100BF5A
:101078000438024070B584B00446039116461D46F4
:101088009DF80F3000939DF80E309DF80D209DF8C7
:101098000C10FFF7CDFF2046FFF730FF0028FAD1EC
:1010A80031462046FFF732FF29462046FFF73CFF2E
:1010B8009DF820102046FFF747FF02212046FFF742
:1010C800A9FF04B070BD000010B588B00446052122
:1010D80003A800F073F803A800F05EF80528FAD119
:1010E8004FF470024FF0E023C3F8882D2046FFF735
:1010F8004FFF2046FFF7F2FE0028FAD02046FFF700
:10110800F5FE2368204A934233D012D81F4A9342EF
:101118001DD002F5F41202F59062934221D11C4BC6
:10112800596805910423009300222046FFF7A2FF87
:1011380017E0184A934214D1154BD9680791042334
:101148000093052300222046FFF794FF09E0104B87
:101158001968049100230093042308222046FFF70E
:1011680089FF4FF47A72E1682046FFF79EFE08B0C7
:1011780010BD074B996806910423009305230022AC
:101188002046FFF777FFECE700E1F505006CDC028D
:1011980094320008007A030A024BD3F8000C00F0DE
:1011A800070070470030024082B003680193019B3A
:1011B80019430191019B036002B0704708B50248CA
:1011C800FFF7F2FF08BD00BF003C024000B583B046
:1011D800124A01686846FFF71FFA02220B21684687
:1011E800FFF7A2FA03220B216846FFF775FA0A22D5
:1011F8000B216846FFF779FA02220C216846FFF7AF
:1012080093FA03220C216846FFF766FA0A220C219A
:101218006846FFF76AFA03B05DF804FB0000024075
:1012280008B54320FFF704FD08BD000010B50022F3
:101238004FF0A043C3F81028C3F81428C3F81C289B
:101248009A616FF080425A61164C10212046FFF7D0
:1012580039FA4FF400612046FFF734FA4FF4805111
:101268002046FFF72FFA4FF400512046FFF72AFADD
:101278004FF480212046FFF725FA4FF4002120463D
:10128800FFF720FA4FF480112046FFF71BFA4FF4BE
:1012980000112046FFF716FA4FF000412046FFF7ED
:1012A80011FA10BD1800005008B502210148FFF7D7
:1012B80009FA08BD0408005008B501210348FFF7E2
:1012C80001FA02210248FFF79BF908BD0800005007
:1012D8000408005008B54FF0A0431B69002BFADA48
:1012E80001210548FFF7EEF94FF0A0431B6913F001
:1012F800010FF9D108BD00BF1000005010B5044619
:1013080040210648FFF7DEF92046FFF7E3FF4FF4D8
:1013180080310348FFF7D6F910BD00BF0C0000501C
:101328003800005010B50B4C4FF000512046FFF725
:1013380067F94FF080412046FFF762F94FF080418E
:101348002046FFF7BFF94FF0A0435B6913F0010F88
:10135800F9D110BD0C00005008B54FF0A0431B692F
:10136800002BFADA89014FF0A043196120210548C2
:10137800FFF7A8F94FF0A0431B6913F0200FF9D12C
:1013880008BD00BF1000005008B54FF0A0431B690E
:10139800002BFADA10210548FFF794F94FF0A04323
:1013A8001B6913F0100FF9D108BD00BF10000050E1
:1013B80038B50446002206E002F1A05341339B00F1
:1013C8000021196001320E2AF6D902211248FFF7CE
:1013D80079F9124D4FF400112846FFF773F94FF4CD
:1013E80000212846FFF70CF94FF480212846FFF723
:1013F80007F94FF0A0430022C3F800280322C3F8DE
:10140800002810212046FFF7A7FF2046FFF7BCFF62
:101418002046FFF70BFF38BD040800503800005085
:1014280010B588B0044627210068FFF7D9FD20468B
:10143800FFF7CCFE2046FFF7F3FE2046FFF75EFFDE
:101448002046FFF76FFF2046FFF7B2FF2046FFF761
:101458002BFF00F027F8044607AA064901A8FFF762
:101468002BF801A92046FFF7C4F801A800F0E8FC12
:1014780008B010BD6833000810B588B000F012F845
:10148800044607AA064901A8FFF716F801A920464D
:10149800FFF7AFF801A800F0D3FC08B010BD00BFFB
:1014A80074330008014B1868704700BF78000020AB
:1014B800014B1860704700BF780000207FB50024FA
:1014C8001023CDE90234036815469E6912686B46FD
:1014D800CDE90044B0479DF8043003F00603062B1D
:1014E80003BF009B2B600120204604B070BD00980C
:1014F80090420CBF062001207047000010B5034B36
:101508000360044600F067FB204610BDB4330008B2
:1015180010B50446FFF7F2FF2046082100F042F814
:10152800204610BD2DE9F0411F46DDE90834DDF8FD
:10153800188098450646154607D1079900F04EFBD6
:1015480018B165710020BDE8F0813946304600F0D9
:1015580045FB0028F6D00123C4F800802571A3714B
:10156800F0E738B515461C4600F038FB20B10823D3
:10157800E36006232560237138BD2DE9F041054657
:101588000C4616461F4600F029FB48B9032F07D81A
:1015980023683246294620465B69BDE8F041184772
:1015A800BDE8F08100F0C6BC30B500231A4610F83B
:1015B800015B05F07F04944023432C0602F10702E7
:1015C800F5D40B6030BD30B500231A4610F8014B36
:1015D80004F07F0595402B43250602F10702F5D458
:1015E8001F2A06D8640642BF4FF0FF3404FA02F2FD
:1015F80013430B6030BD50282DE9F3410646884659
:1016080015461F4608D1D01C20F0030050F8044BA3
:101618003C6002B0BDE8F08100F00F030C2B2ED81F
:10162800DFE803F025071D25292D2D2D2D1821254F
:10163800290001A92846FFF7B7FF019C002CE7D035
:1016480006F07003102B08BFA8464444330648BF71
:101658002468DDE701A92846FFF7B5FFEDE728462E
:1016680030F8024BEAE7284630F9024BE6E728460D
:1016780050F8044BE2E7284650F8084BDEE701F043
:101688004FFC08B50346FF2B08460DD003F0700346
:10169800302B0FD004D8202B08D005D901F040FCFE
:1016A800402B0BD0502BF9D1002008BDBDE80840D5
:1016B80001F033BCBDE8084001F02CBCBDE808408F
:1016C80001F018BC70B50C460146204615461E466A
:1016D800FFF7D7FF334601462A462046BDE870404B
:1016E800FFF789BF73B50C461546064608B101F0E9
:1016F80001FC2246286012F8011BFF291CD02B1D73
:101708003046FFF7DFFF0246104610F8013BFF2B7B
:1017180014D010232B7501A9FFF746FF019B034442
:10172800EB6010F8013B6B7501A9FFF73DFF019BCA
:1017380003442B6102B070BD6860E5E72B75002398
:10174800EEE71FB503AB009300230A46194600F0E5
:10175800EDFE039805B05DF804FB00002DE9F04F9D
:1017680093B00023079300F00303012B06460C46B1
:10177800154610D0022B03D0002B5DD103075DD591
:101788002946204601F0A0FB18B1092013B0BDE896
:10179800F08F0820FAE7070745D5022306F0080668
:1017A8001E430CAB009300230C22194628460C94C8
:1017B80000F0E2FE062E43D1D4F83080D4E90A7353
:1017C800B8F1000F00F03C819946002FC0F23B8130
:1017D800032600230DF12C091A461946CDF800906E
:1017E80028460B9400F0C8FE002319460122CDF8C4
:1017F800009028460B9700F0BFFE0F212846FFF700
:10180800A0FF00F0010040EA080000230B90CDF88B
:1018180000900F221946284600F0AEFE022E00F076
:101828002C810720B2E70F6A10460D21FFF789FFC8
:101838008742B2D10623B1E701F072FB0123ADE77D
:10184800284601F05DFB8146002899D00CAA014684
:101858002846FFF747FF9DF844B0039029465846AD
:10186800FFF70FFF0F2102900E902846FFF769FF40
:10187800039A20F0010808F1FF38109F97420DD80D
:101888000027B8460123F10700F1C580320740F16F
:10189800D480012B40F0CC8000F004F99DF845A0DD
:1018A80008AB51460020FFF70DFF09AB0246514631
:1018B8000020FFF707FF0AAB024651460020FFF75A
:1018C80001FF0BA9FFF770FE0C9B08990B444345D9
:1018D800024653D809990B444345CED9DDE90A306D
:1018E800002B3FF44DAF0D9A03EB020800283BD0C4
:1018F80001383844B8F1000F3FF442AF16F008033E
:1019080004933DD0472323704E2363705523A3705F
:101918004323E370462323714F2363715223A3713A
:101928000023E3710023039309A9FFF74CFE0AA9DA
:101938000590FFF748FE099F002F69D043DDBBF1F2
:10194800FF0F3CD00BF00703042B3FF675AF01A245
:1019580052F823F0CB190008411800089B19000819
:10196800CB190008C3190008B8F1000F3FF408AFFD
:10197800F0073FF505AF002702262AE73A467CE73D
:10198800E379012B0CBF54F8203C04F1580307936A
:10199800C8E702220F990BAB02FB171258460299AF
:1019A800FFF729FE0B9931B134B307AB002220466B
:1019B80000F0E0FA00B3032365E70822EAE7002213
:1019C800E8E70422E6E70F9B6FF04042D21B03EBE7
:1019D800820AC4B10499B1B9079B0B93AAF1040A0E
:1019E8005AF8041F0029E6D00BAB002251442046C8
:1019F80000F0C0FA0028F3D00A98002841D0059BCF
:101A08000344184690E753F82230002BF4D1D2E76C
:101A180001230393F0E70D212846079EFFF791FE67
:101A2800C4E90A79C4E90806C4F830800620ADE69E
:101A3800002FBFF6CDAE00F047F8012B7FF4C5AEFE
:101A4800204600F021FB0CAA49462846FFF74AFE2B
:101A58009DF844002946FFF714FE0F9BFA4303EB59
:101A68008203002253F8221029B9C4E90A2004226B
:101A7800C4E90C23ACE60132F4E7204600F0CAFAC8
:101A8800CFE6039B002B7FF473AF79E608B5804758
:101A980001F046FA024B1868BFF35B8F704700BF2E
:101AA8000800002008B5FFF7F5FFFFF7EFFF08B5BE
:101AB8008047FFF7F7FF0000024B1868BFF35B8F02
:101AC800704700BF0400002008B5FFF7F5FFFFF7D7
:101AD800EEFF000010B5034B03600446FFF70EFD50
:101AE800204610BD1434000810B50446FFF7F2FF75
:101AF80020460C21FFF756FD204610BD2DE9F04188
:101B0800DDF81880904506460F4615461C460BD052
:101B1800B0680368CDF818801E6A2A4623463946FD
:101B2800B446BDE8F0416047194600F057F8002870
:101B3800EED00620BDE8F0812DE9F14F0D4619469B
:101B4800DDE90A4BDDE90CA681461746984600F008
:101B580045F890B1002D3460377109DB2C44A2455B
:101B680014BF01240624B471002001B0BDE8F08F31
:101B78000235F9D10123B371F6E7544506D1594628
:101B8800484600F02BF808B17771EDE7D9F808005E
:101B98000368CDE90CA6CDE90A4BDC693A46434611
:101BA8002946A44601B0BDE8F04F60472DE9F04151
:101BB80007460C4615461E46FFF7D3FC48B9B868D9
:101BC80003689F692A4633462146BC46BDE8F04172
:101BD8006047BDE8F081704700207047814208B532
:101BE8000ED0406803782A2B0CD049680B782A2B32
:101BF80008BF0131FEF79AFBB0FA80F0400908BD32
:101C08000120FCE70020FAE7184B1A68D1075CBFEF
:101C180001221A60164B1A68D2075CBF01221A60AB
:101C2800144B1A68D0075CBF01221A60124B1A685D
:101C3800D1075CBF01221A60104B1A68D2075CBF3B
:101C480001221A600E4B1A68D0075CBF01221A6085
:101C58000C4B1A68D1075CBF01221A600A4B1A683C
:101C6800D2075CBF01221A60704700BF9C000020A9
:101C78009800002094000020900000208C00002094
:101C8800880000208400002080000020184B1A687B
:101C9800D1075CBF01221A60164B1A68D2075CBFD5
:101CA80001221A60144B1A68D0075CBF01221A601F
:101CB800124B1A68D1075CBF01221A60104B1A68D0
:101CC800D2075CBF01221A600E4B1A68D0075CBFAE
:101CD80001221A600C4B1A68D1075CBF01221A60F6
:101CE8000A4B1A68D2075CBF01221A60704700BF0E
:101CF800BC000020B8000020B4000020B000002084
:101D0800AC000020A8000020A4000020A0000020B3
:101D180008B501F005F908B501F002F908B501F0B8
:101D2800FFF80000244B1A68D0075CBF01221A6034
:101D3800224B1A68D1075CBF01221A60204B1A682F
:101D4800D2075CBF01221A601E4B1A68D0075CBF1D
:101D580001221A601C4B1A68D1075CBF01221A6065
:101D68001A4B1A68D2075CBF01221A60184B1A680E
:101D7800D0075CBF01221A60164B1A68D1075CBFF6
:101D880001221A60144B1A68D2075CBF01221A603C
:101D9800124B1A68D0075CBF01221A60104B1A68F0
:101DA800D1075CBF01221A600E4B1A68D2075CBFCC
:101DB80001221A60704700BFEC000020E8000020F4
:101DC800E4000020E0000020DC000020D800002013
:101DD800D4000020D0000020CC000020C800002043
:101DE800C4000020C00000200AB101F0C3B9704748
:101DF80050F8083B1B1A58425841704708B50B6801
:101E0800B3F1804F02D30D48FFF788FF93420BD9F7
:101E1800B3EB420F4FEA420006D2B0F1804F2ABF1F
:101E28006FF0404308600B600868013001D5FFF788
:101E38006FFFBDE8084000F09FB900BF50340008AC
:101E480010B50446FFF7D4FF20B92068BDE810405C
:101E580000F070B810BD012A10B404D10A785DF8FA
:101E6800044B027070475DF8044BFFF7BDBF0000DC
:101E7800244B1A68D0075CBF01221A60224B1A68EB
:101E8800D1075CBF01221A60204B1A68D2075CBFD9
:101E980001221A601E4B1A68D0075CBF01221A6023
:101EA8001C4B1A68D1075CBF01221A601A4B1A68CA
:101EB800D2075CBF01221A60184B1A68D0075CBFB2
:101EC80001221A60164B1A68D1075CBF01221A60FA
:101ED800144B1A68D2075CBF01221A60124B1A68A9
:101EE800D0075CBF01221A60104B1A68D1075CBF8B
:101EF80001221A600E4B1A68D2075CBF01221A60D1
:101F0800704700BF1C0100201801002014010020A8
:101F1800100100200C01002008010020040100200D
:101F280000010020FC000020F8000020F400002040
:101F3800F000002001F004B80378472B17D143784C
:101F48004E2B14D18378552B11D1C378432B0ED146
:101F58000379432B0BD143792B2B08D183792B2B76
:101F680005D1C07901288CBF0020012070470020CE
:101F7800704700002DE9F3411E460378472B0446BD
:101F88000F4613D143784E2B10D18378552B0DD1A2
:101F9800C378432B0AD10379462B07D143794F2BBA
:101FA80004D18379522B01D1C2793AB32046FFF785
:101FB800C3FF024620B3E37954F8202C012B0EBF4F
:101FC80052F8785C154604F158022B6801929B6818
:101FD80028469847B0B1019B1B68019302243B68CF
:101FE80001AAD3F81080294601233846C04758B1C2
:101FF800019B3360204602B0BDE8F081034DE4E761
:10200800034DE2E70124EAE70446F3E788340008D1
:10201800B434000810B5044600F09EF80246204685
:10202800A4F12001FFF788FF60B154F8043C0133A4
:10203800012B44F8043C03D1936844F8083C9160B0
:10204800012010BD9368002BF9D0FFF72BFD037812
:10205800472B17D143784E2B14D18378552B11D1A8
:10206800C378432B0ED10379432B0BD143792B2B08
:1020780008D183792B2B05D1C07901288CBF00208A
:10208800012070470020704710B5044648B100F0A1
:1020980039F82046FFF7DBFF18B154F8140CFFF7A6
:1020A800F5FCFFF7FFFC10B50246FFF7D0FF38B18B
:1020B80052F8184C104600F025F82046FFF7F7FCB8
:1020C800104600F01FF8FFF7FFFC0378472B17D1E5
:1020D80043784E2B14D18378552B11D1C378432BD9
:1020E8000ED10379432B0BD143792B2B08D183795C
:1020F8002B2B05D1C07901288CBF00200120704707
:102108000020704738B5044600F026F805680246F6
:102118002046A4F12001FFF7D8FF28B90DB1FFF739
:10212800C1FC1160284638BD54F80C3C002BB4BFE4
:10213800C3F10103013344F80C3C53688D4203F1A9
:10214800FF33536020461CBF44F8105C1160656A79
:1021580000F0EAF9E6E770470048704720010020E0
:10216800024A0349034800F018B800BF00000020E5
:102178005F21000820010020012838BF012010B588
:102188000446204600F0D4FE00B110BD00F00AF865
:1021980008B900F0C5FE8047F3E70B46014618462C
:1021A80000F084BF024B1868BFF35B8F704700BF15
:1021B8002C01002003685A004CBF43F0004323F071
:1021C80000431844704700BF2DE9F84349B34F1E38
:1021D800044615463E464FF0000909EB060101EB9F
:1021E800D171491004EBC1084046FFF7E3FF8F4265
:1021F80003464FEAC1000FD00830AB42204407D84D
:10220800FFF7D8FF0138A84208D201F10109E4E735
:10221800894506D04E1EE0E7AB42F9D84046BDE8F6
:10222800F8834FF000084046BDE8F883012807D03E
:10223800022807D0044B00280CBF1846002070471E
:102248000248704702487047E5280008ED28000852
:10225800F528000830B5214B83B004468D1E1BB30A
:1022680001A92846AFF3008088B301992A46FFF7F1
:10227800ABFF014658B3FFF79DFF4B68A064012BE5
:1022880028D0002B01F104001FDBFFF793FF002388
:1022980023650368E064002B0DDBFFF78BFF034623
:1022A8000020236103B030BD0D4B0E49C91AC91077
:1022B80018460191DAE7C3F30360FFF7B7FF034657
:1022C80028B10020236103B030BD0123E0E70023DB
:1022D8000920E6E700230520E3E700BF000000002F
:1022E8001C3500083C3600080368DA0710B50446B8
:1022F80006D49B0700F1480009D5FDF755FF236870
:10230800590709D51A070ED5DB0613D510BDFDF7F9
:1023180043FF23685907F5D404F1D000FDF74CFFBB
:1023280023681A07F0D404F5A870FDF74DFF236859
:10233800DB06EBD404F5E870BDE81040FDF788BF74
:102348000346006800B11844704700BF704700BFDB
:1023580070B504460E46316C2046FFF77BFF0546F4
:1023680088B9326C62612369324621460120984758
:102378000828F0D0072806D12846316CFFF7E6FF79
:10238800301DFDF7FDFEFFDE2DE9F0470D1DD0F8ED
:102398000C80D0F81890074614460FCDADF5727D25
:1023A8000DF10C0CACE80F000FCDACE80F000FCD11
:1023B800ACE80F0095E80F0002AE4FF0000E8CE875
:1023C8000F00C6F800E020E0336C7B614FF4F07238
:1023D80031467AA800F0CEFE3B697AAA39465046C3
:1023E8009847889B73642146CDE9006905463B46BA
:1023F8003A460120C047044618BB4FF4F0727AA948
:10240800304600F0B7FE082D19D1316C3846FFF779
:1024180021FF09345FFA84FA05460028D4D0B36B4B
:1024280073643A46CDE900693B464AF01001012041
:10243800C04730B928460DF5727DBDE8F087072DF5
:1024480005D0092528460DF5727DBDE8F0872046A0
:10245800316CFFF77BFF03A8FDF792FEF0B5CB6B5D
:102468000B6401F1040C0E460546BCE80F00F9B0F8
:1024780001AC0FC4BCE80F000FC4BCE80F000FC4C8
:102488009CE80F004FF0FF3784E80F00009706E044
:102498002B696A46294698470828044608D11099A6
:1024A8002846FFF7D7FE0028F2D0092079B0F0BD02
:1024B8006846FFF719FF062CF7D131462846FFF783
:1024C80047FF00BFC160D96B8261196400221946B9
:1024D800FFF75ABF70B5C66843690B64AEB90369A4
:1024E8000A4604460D46014602209847072805D0AB
:1024F80008280ED129462046FFF72AFF3046296CC6
:10250800FFF724FF281DFDF73BFE0122FFF73CFFE4
:10251800FFDEFFDEC26822B1CA6B0A640022FFF741
:1025280033BFFFF79BBF00BF704700BF012910D022
:1025380009D883B90F2A0ED800EB820218465368CF
:10254800009A13607047033901298CBF02200120CB
:102558007047084670470220704700BF00B585B035
:102568000A46002303A900911946FFF7DFFF0398E5
:1025780005B05DF804FB00BF012910D009D883B964
:102588000F2A0ED8009900EB82020968516018469C
:102598007047033901298CBF022001207047084683
:1025A80070470220704700BF10B584B0002303AC09
:1025B800039200940A461946FFF7DEFF04B010BDE7
:1025C80070B5D36B136402F1040C05460C46BCE8E5
:1025D8000F00ADF50E7D0DF15C0EAEE80F00BCE806
:1025E8000F00AEE80F00BCE80F00AEE80F009CE853
:1025F8000F004FF0FF368EE80F00169610E0FFF739
:10260800D3FF214616A8A847034616AA69460820FC
:1026180083B9049B9847052806460CD0092809D099
:1026280026996846FFF716FE03466A460C2116A847
:10263800002BE4D0092616A8FFF756FE30460DF504
:102648000E7D70BD2DE9F04F9346CA6C89B00D46DA
:1026580052F8041B069200F0030C002B79D00C0CE6
:102668008DF81D400904E4B2059102EB84020221B1
:102678002F6D8DF81C10BCF1020F08BFAA6B17F064
:1026880001070CD005A9584600F0B4FA18B908207B
:1026980009B0BDE8F08F092009B0BDE8F08F1668D1
:1026A800002EEFD000F008010191B246029764466F
:1026B8009946B9F1020F48D0B2F800A0568802F145
:1026C8000408AA6C26F001030F2158469F18FFF74B
:1026D80045FF874237D82AF001023A44824294BF24
:1026E80000220122730003F002030AF0010A43EA00
:1026F8000A03012B47D0022B31D0002BCBD114B1C8
:10270800002A40F0C98008F10402D2F800A0BAF10A
:10271800000FCED105A95846029F00F06BFA002899
:10272800B9D1002FB3D00F215846FFF717FF0E215C
:1027380002465846FFF738FF674A0F215846FFF709
:1027480033FF0720A8E70022CCE7566802F1080803
:10275800B7E7090205918DF81D30032188E7D8F8FD
:10276800006026F00043002C44D122B1019A002ACF
:102778005AD0002B58D0002E01DA08F10408013392
:1027880008EB8302C1E7ECB9CAB1D8F80430D8F82D
:102798000020991C4FEAD2723FF47DAF05F1580131
:1027A8000133049100F08B8008F10400FFF7C8FDA5
:1027B80004AB01462846FFF7DDFB002857D108F196
:1027C8000802A2E70D215846FFF7C8FE2B6A83428C
:1027D800F5D1AB6A9845F2D14046FFF7EBFC0F21E3
:1027E80002465846FFF7E0FE2A4600215846FFF702
:1027F800DBFEA6E70D2158460393FFF7AFFE2A6AD2
:10280800039B8242B7D1AA6A9045B4D1002704221B
:10281800C5E90B724244AB626A63D8F80020BA4239
:1028280055DB01220292AAE7039408F1040A002664
:1028380005F158071C460DE050460497FFF780FD48
:102848000022014604AB284601360AF1040AFFF7C4
:1028580091FBE0B9A642EFD10D215846FFF77EFE65
:10286800049BC5F82880C5E90803062014E7044638
:102878000D215846FFF772FE049E2862022C04BF01
:10288800EE6205F12C06C5E90968062004E723462F
:10289800D8F80060039C6EE74046FFF78BFC08F110
:1028A80004020446AA632846FFF7B4FB00283FF455
:1028B800F2AE22460F215846FFF776FE41E70C4656
:1028C80058460D21FFF74AFE26462862DBE7581CCA
:1028D80008EB800081E700BFAF2000080023FFF766
:1028E800B1BE00BF0123FFF7ADBE00BF0223FFF753
:1028F800A9BE00BF2DE9F0430646C3B015461C46E5
:10290800042900F2D180DFE801F0AC51CF2A03009E
:10291800002C40F0C980102A00F2C6800368DC064B
:1029280000F1E78020AF3846FDF79CFCB46B3946D0
:1029380000234FF0010C0CFA03F22A42204603F15F
:10294800010303D050F8042B0A600446042B01F15C
:102958000401F0D1B4633846FDF77AFC99E0032C02
:1029680040F0A28094B204EB1243102B4FEA1245B8
:1029780000F29A8003681F0700F1C38020AF384631
:10298800FDF744FCB26B07EBC50154B10B46D01AF6
:1029980001EBC401E4001D5843F8045B8B42FAD1F3
:1029A8002244B2633846FDF70FFC72E0012C4FEA6F
:1029B800124895B271D0052C76D108EB0509B9F10A
:1029C800200F71D8B8F10F0F72D8B9F1100F036842
:1029D80000F29F80D90708D523F00103304643F061
:1029E800020340F8483BFDF7E3FB20AF3846FDF70C
:1029F800DFFBB36B002D00F0B9806D006A1E07EB9A
:102A0800C80100250132043903EB820253F8040B94
:102A180041F8040F9342F9D1002D00F0A1804146FE
:102A2800102938BF10216B0010396F46013B07EBA6
:102A3800C1010133043902EB830352F8040B41F856
:102A4800040F9A42F9D1012C00F08880B8F10F0FD9
:102A5800B26302D820A8FDF7A7FB3846FDF7ACFB08
:102A680017E00CBB806B23461FFA82FC0124371D3C
:102A780004FA03F111EA0C0F024604D052F8041BC1
:102A880047F8231010460133102BF1D1AC0400D4C1
:102A9800B063002043B0BDE8F08308EB0503102BBA
:102AA80002D8B8F1100F14D1022043B0BDE8F0836A
:102AB800002DEED003685A075CD46F463846FDF700
:102AC8007FFBB26B6B00A8F11001013B07EBC10162
:102AD800AFE70368DA0759D420AF3846FDF760FB43
:102AE800B36B002D89D10433B3633846FDF754FB2B
:102AF800CFE723F01003036000F5E870FDF7B2FBA1
:102B080010E723F00803036000F5A870FDF77EFBCB
:102B180034E7D90708D523F0010343F0020340F84E
:102B2800483BFDF745FB3368580706D5304623F088
:102B3800040340F8D03BFDF743FB20AF3846FDF7D0
:102B480037FB6846FDF73CFBC8F110025200B36B37
:102B5800A9F11005013A07EBC80153E720AFC2E716
:102B6800012CC0D0B8F10F0FB36392D83846FDF7E7
:102B78001BFB8EE723F0040340F8D03B6F46FDF7BC
:102B88001FFB3846FDF71CFBB26B9BE7304623F072
:102B9800030340F8483BFDF703FB9DE7027A034631
:102BA8007AB9427AA2B14168013A10B4427208680F
:102BB80003220C1D1A7202025C60000E10BC1A601F
:102BC80070470068013A1A7202021A60000E7047D4
:102BD800B020704700B585B0002303AA00921946BB
:102BE8000C22FFF7A3FC039805B05DF804FB00BFB7
:102BF800FFF7F0BF2DE9F043064685B00D464FF0CC
:102C080000082846FFF7CAFFB028044600F0DA801B
:102C1800070646D500F0F003802B5ED0B02B73D0AA
:102C28001BD8902B00F09B80A02B12D1C34303F03C
:102C380007034FF47F621A41010702F47F6201D54E
:102C480042F48042002319463046FFF753FE00281D
:102C5800D7D0092005B0BDE8F083C02B6DD1C628B8
:102C680000F09380C72800F0B28000F0F803C02B72
:102C780000F0D280C82800F0DD80C928E9D12846B4
:102C8800FFF78CFF020300F00F0002F470220130FE
:102C98000243012105233046FFF72CFE0028B0D05F
:102CA800D7E78300DBB21F1D0DF10C09002319467D
:102CB800CDF800900D223046FFF738FC039BCDF885
:102CC800009060064CBFDF1BFF1800230D22194639
:102CD80030460397FFF750FC93E72846FFF75EFF5F
:102CE80024022043B0F5004FB3D004010023A2B260
:102CF80019463046FFF7FEFD0028AAD114F4004F0C
:102D080018BF4FF001087CE7B12851D0B22800F075
:102D1800AD80B3286DD000F0FC03B42B99D000F03F
:102D280007020132012342F4002219463046FFF718
:102D3800E1FD00283FF465AF8BE700F0F803D02BE6
:102D480087D100F007020132052342F40022012155
:102D58003046FFF7CFFD00283FF453AF79E700F086
:102D68000D030D2B3FF475AF03AF002300F00F02E6
:102D7800194600973046FFF7D9FB002300970D222C
:102D880019463046FFF7F8FB3BE72846FFF706FFF2
:102D9800020300F00F00013002F470220323024303
:102DA80019463046FFF7A6FD00283FF42AAF50E742
:102DB8002846FFF7F3FE431EDBB20E2B02467FF6D2
:102DC80041AF46E7B8F1000F40D0002042E728465F
:102DD800FFF7E4FE431EDBB20E2B02463FF639AF87
:102DE800002304213046FFF785FD00283FF409AF92
:102DF8002FE72846FFF7D2FE020300F00F0001304C
:102E080002F470220123024319463046FFF772FD8F
:102E180000283FF4F6AE1CE700F00F02013203234E
:102E280042F4202219463046FFF764FD00283FF49B
:102E3800E8AE0EE72846FFF7B1FE00F0F00200F01A
:102E48000F031032013343EA023222E703AC434650
:102E580041460E2200943046FFF768FB0094434633
:102E68000F2241463046FFF787FBAEE700230DF1FE
:102E78000C090D221946CDF800903046FFF756FB95
:102E88002846FFF78BFE0206039C4FF002070BD57E
:102E980000F07F00B840044428460394FFF77EFE04
:102EA800030607F10707F3D400FA07F204F50174E3
:102EB800224400230392CDF800900D221946304693
:102EC800FFF75AFB9DE600BF10B5C26C536884B08B
:102ED8004FF0030C08321C0208461B0E01A901948E
:102EE80002928DF80CC08DF80D30FFF783FE04B008
:102EF80010BD00BF08B5FFF77BFE806C08BD00BFA2
:102F080008B5FFF775FEC06CC379023300EB830088
:102F180008BD00BF08B500F003F808B5FFF7FAFFD1
:102F280008B5062000F0F8F8012000F099F9000033
:102F3800024B0146186800F02DB800BF0C000020B5
:102F4800024B0146186800F023B900BF0C000020AE
:102F580070B50F4E0C463168054611B900F0F8F807
:102F680030602146284600F0F3F8431C03D14FF0A7
:102F7800FF34204670BDC41C24F00304A042F8D0DE
:102F8800211A284600F0E4F80130F2D1EFE700BF3B
:102F9800300100202DE9F843CD1C25F00305083544
:102FA8000C2D38BF0C25002D064601DBA94204D99B
:102FB8000C2333600020BDE8F883DFF8D48000F0EC
:102FC80069F8D8F800301C4644BB29463046FFF75C
:102FD800BFFF431C044658D1D8F800402746002FAD
:102FE80043D1002C4BD023683946304604EB030903
:102FF80000F0AEF8814542D121686D1A2946304665
:10300800FFF7A6FF01303AD023682B442360D8F895
:1030180000305A6862BBC8F800700FE02268521B83
:1030280020D40B2A17D96119A342256018BF59600B
:10303800636808BFC8F8001062514B60304600F062
:103048002FF804F10B00231D20F00700C21A1CBF43
:103058001B1AA350AFE76268A3420CBFC8F8002050
:103068005A60EBE723466468AEE73C467F68B6E7FC
:103078001A465B68A342FBD100235360DEE70C23AA
:103088003360304600F00CF894E70560D6E700BFDF
:1030980034010020014800F06BB800BF7402002022
:1030A800014800F066B800BF7402002010B504465D
:1030B8000448134620B10A4602202146AFF3008097
:1030C80010BD00BF000000001F2938B505460C469A
:1030D80004D9162303604FF0FF3038BDC26B12B11C
:1030E80052F821304BB9284600F030F82246014604
:1030F8002846BDE8384000F017B8012B0AD0591C03
:1031080003D1162303600120E7E7002142F82410C9
:10311800204698470020E0E7024B01461868FFF771
:10312800D3BF00BF0C00002038B5074D002304466C
:10313800084611462B6000F07DF8431C02D12B682D
:1031480003B1236038BD00BF7002002000F06AB8E8
:1031580038B5064D0023044608462B6000F072F887
:10316800431C02D12B6803B1236038BD70020020D4
:10317800704770470A44914200F1FF3300D170470D
:1031880010B511F8014B03F8014F9142F9D110BD68
:1031980038B50546002941D051F8043C0C1F002BD6
:1031A800B8BFE418FFF776FF1D4A136833B96360A8
:1031B80014602846BDE83840FFF772BFA34208D91B
:1031C800206821188B4201BF19685B6809182160C3
:1031D800EDE71A465B680BB1A342FAD9116850189B
:1031E800A0420BD120680144501883421160E0D1FD
:1031F80018685B68536008441060DAE702D90C234A
:103208002B60D6E7206821188B4204BF19685B68D9
:10321800636004BF091821605460CAE738BD00BF65
:1032280034010020024B58221A604FF0FF307047DB
:1032380070020020024B58221A604FF0FF3070478E
:1032480070020020044A05491368002B08BF0B468A
:103258001844106018467047780200208002002049
:10326800FEE700BFF8B500BFF8BC08BC9E46704733
:0C327800F8B500BFF8BC08BC9E467047CB
:10328400007A030A80DE800200BD0105007A030A89
:10329400600400043204000464040004A804000769
:1032A40062617369635F737472696E673A20636FF6
:1032B4006E737472756374696F6E2066726F6D20BD
:1032C4006E756C6C206973206E6F742076616C6906
:1032D4006400000048656C6C6F20310A0D0000002A
:1032E40048656C6C6F20330A0D00000053746172E2
:1032F400742053544D3332463430370A0D000000E5
:103304004E3462617365313342617365496E74652D
:103314007266616365450000B43300080433000835
:10332400000000001C330008000000000000000042
:103334004E3764726976657273357573617274356C
:103344005573617274450000143400083433000866
:103354001C330008000000004C3300084F0700082D
:103364005507000848656C6C6F20320A0D00000098
:1033740048656C6C6F20340A0D004E31305F5F631A
:103384007878616269763131375F5F636C6173733A
:103394005F747970655F696E666F45001434000868
:1033A4007E3300084834000800000000A033000801
:1033B4000515000819150008E11B0008E11B0008A9
:1033C40083150008C51400086B1500082D150008A6
:1033D400F71400084E31305F5F6378786162697674
:1033E4003132305F5F73695F636C6173735F7479EB
:1033F40070655F696E666F45000000001434000854
:10340400D8330008A033000800000000003400088E
:10341400DD1A0008F11A0008E11B0008E11B00088E
:1034240083150008C5140008B51B0008411B0008DB
:10343400051B0008537439747970655F696E666F93
:1034440000000000B4330008383400086261736976
:10345400635F737472696E673A3A5F4D5F63726556
:10346400617465004E31305F5F63787861626976BC
:103474003131355F5F666F726365645F756E77695E
:103484006E644500B4330008683400084E31305F80
:103494005F637878616269763131395F5F666F7234
:1034A4006569676E5F657863657074696F6E450002
:0834B400B43300089034000855
:1034BC00A9E2FF7F00842200FFFF01009DE2FF7F55
:1034CC00A908B100FFFF010091E2FF7FB0AC03003F
:1034DC00FFFF010008B10181B0B0008400000000C2
:1034EC0079E2FF7F00840200FFFF01006DE2FF7FA5
:1034FC00B0A80700FFFF010008B10181B0B0008443
:10350C000000000008B10181B0B000840000000090
:10351C0018CEFF7F010000005ECFFF7FB0AA0180B4
:10352C0094CFFF7FA908B180BCCFFF7F84FFFF7FC2
:10353C006CD0FF7F88FFFF7F82D0FF7F01000000EF
:10354C000ED2FF7F84FFFF7F70D2FF7F010000004F
:10355C0034D7FF7F80FFFF7F6CD7FF7F0100000017
:10356C0068DCFF7F7CFFFF7FB4DCFF7F0100000085
:10357C00ACDEFF7F78FFFF7FFCDEFF7FB0A807800B
:10358C0020DFFF7F01000000C8ECFF7FB0A90280A4
:10359C0054EDFF7FB0B0A880A4EDFF7F01000000C8
:1035AC00ACEDFF7FB0B0AA80DCEDFF7FAE71B280D6
:1035BC00A8EEFF7FAB3F388008EFFF7F01000000D3
:1035CC0010EFFF7FB0B0AA8048EFFF7F0100000032
:1035DC00ECEFFF7FAA0DB28068F0FF7FB0AF0880E0
:1035EC00F8F2FF7F0100000008F3FF7FAD3F02807F
:1035FC00A8F5FF7F01000000D8F5FF7F0084048050
:10360C00ECF5FF7F01000000E8F5FF7FB0AD048012
:10361C00B4F8FF7FB0A80380D8F8FF7FDCFEFF7FF3
:10362C00DCF8FF7FE0FEFF7FE8F8FF7F0100000081
:10363C00C1030008111C0008951C00082D1D000872
:08364C00791E00086921000845
:0436540099030008CE
:1036580000000000AD1A0008292F00081000002003
:103668000000000038010020A0010020080200200E
:103678000000000000000000000000000000000042
:103688000000000000000000000000000000000032
:103698000000000000000000000000000000000022
:0C36A80000000000000000000000000016
:040000050800018866
:00000001FF
